{
  "contractName": "SetTeam",
  "abi": [
    {
      "inputs": [
        {
          "internalType": "address",
          "name": "_address",
          "type": "address"
        }
      ],
      "name": "balanceOf",
      "outputs": [
        {
          "internalType": "uint256",
          "name": "",
          "type": "uint256"
        }
      ],
      "stateMutability": "view",
      "type": "function",
      "constant": true
    },
    {
      "inputs": [],
      "name": "decimals",
      "outputs": [
        {
          "internalType": "uint8",
          "name": "",
          "type": "uint8"
        }
      ],
      "stateMutability": "view",
      "type": "function",
      "constant": true
    },
    {
      "inputs": [
        {
          "internalType": "address",
          "name": "_address",
          "type": "address"
        }
      ],
      "name": "getUserVotedTeamName",
      "outputs": [
        {
          "internalType": "bytes32",
          "name": "",
          "type": "bytes32"
        }
      ],
      "stateMutability": "view",
      "type": "function",
      "constant": true
    },
    {
      "inputs": [],
      "name": "logIn",
      "outputs": [],
      "stateMutability": "nonpayable",
      "type": "function"
    },
    {
      "inputs": [],
      "name": "name",
      "outputs": [
        {
          "internalType": "string",
          "name": "",
          "type": "string"
        }
      ],
      "stateMutability": "view",
      "type": "function",
      "constant": true
    },
    {
      "inputs": [],
      "name": "owner",
      "outputs": [
        {
          "internalType": "address",
          "name": "",
          "type": "address"
        }
      ],
      "stateMutability": "view",
      "type": "function",
      "constant": true
    },
    {
      "inputs": [],
      "name": "showOwner",
      "outputs": [
        {
          "internalType": "address",
          "name": "",
          "type": "address"
        }
      ],
      "stateMutability": "view",
      "type": "function",
      "constant": true
    },
    {
      "inputs": [],
      "name": "symbol",
      "outputs": [
        {
          "internalType": "string",
          "name": "",
          "type": "string"
        }
      ],
      "stateMutability": "view",
      "type": "function",
      "constant": true
    },
    {
      "inputs": [
        {
          "internalType": "bytes32",
          "name": "",
          "type": "bytes32"
        }
      ],
      "name": "teamSetted",
      "outputs": [
        {
          "internalType": "bool",
          "name": "",
          "type": "bool"
        }
      ],
      "stateMutability": "view",
      "type": "function",
      "constant": true
    },
    {
      "inputs": [
        {
          "internalType": "bytes32",
          "name": "",
          "type": "bytes32"
        }
      ],
      "name": "teamWeight",
      "outputs": [
        {
          "internalType": "uint256",
          "name": "",
          "type": "uint256"
        }
      ],
      "stateMutability": "view",
      "type": "function",
      "constant": true
    },
    {
      "inputs": [],
      "name": "totalSupply",
      "outputs": [
        {
          "internalType": "uint256",
          "name": "",
          "type": "uint256"
        }
      ],
      "stateMutability": "view",
      "type": "function",
      "constant": true
    },
    {
      "inputs": [
        {
          "internalType": "address",
          "name": "_address",
          "type": "address"
        }
      ],
      "name": "voteBalanceOf",
      "outputs": [
        {
          "internalType": "uint256",
          "name": "",
          "type": "uint256"
        }
      ],
      "stateMutability": "view",
      "type": "function",
      "constant": true
    },
    {
      "inputs": [
        {
          "internalType": "string",
          "name": "source",
          "type": "string"
        }
      ],
      "name": "stringToBytes32",
      "outputs": [
        {
          "internalType": "bytes32",
          "name": "result",
          "type": "bytes32"
        }
      ],
      "stateMutability": "pure",
      "type": "function",
      "constant": true
    },
    {
      "inputs": [
        {
          "internalType": "string",
          "name": "_teamName",
          "type": "string"
        }
      ],
      "name": "setTeam",
      "outputs": [],
      "stateMutability": "nonpayable",
      "type": "function"
    },
    {
      "inputs": [
        {
          "internalType": "string",
          "name": "_teamName",
          "type": "string"
        }
      ],
      "name": "getTeamWeightByTeamName",
      "outputs": [
        {
          "internalType": "uint256",
          "name": "",
          "type": "uint256"
        }
      ],
      "stateMutability": "view",
      "type": "function",
      "constant": true
    }
  ],
  "bytecode": "0x608060405269d3c21bcecceda10000006000556012600160006101000a81548160ff021916908360ff1602179055506040518060400160405280600981526020017f6c6f6c20746f6b656e00000000000000000000000000000000000000000000008152506002908162000074919062000395565b506040518060400160405280600281526020017f6c7400000000000000000000000000000000000000000000000000000000000081525060039081620000bb919062000395565b5060006009556000600a55348015620000d357600080fd5b5033600460006101000a81548173ffffffffffffffffffffffffffffffffffffffff021916908373ffffffffffffffffffffffffffffffffffffffff1602179055506200047c565b600081519050919050565b7f4e487b7100000000000000000000000000000000000000000000000000000000600052604160045260246000fd5b7f4e487b7100000000000000000000000000000000000000000000000000000000600052602260045260246000fd5b600060028204905060018216806200019d57607f821691505b602082108103620001b357620001b262000155565b5b50919050565b60008190508160005260206000209050919050565b60006020601f8301049050919050565b600082821b905092915050565b6000600883026200021d7fffffffffffffffffffffffffffffffffffffffffffffffffffffffffffffffff82620001de565b620002298683620001de565b95508019841693508086168417925050509392505050565b6000819050919050565b6000819050919050565b600062000276620002706200026a8462000241565b6200024b565b62000241565b9050919050565b6000819050919050565b620002928362000255565b620002aa620002a1826200027d565b848454620001eb565b825550505050565b600090565b620002c1620002b2565b620002ce81848462000287565b505050565b5b81811015620002f657620002ea600082620002b7565b600181019050620002d4565b5050565b601f82111562000345576200030f81620001b9565b6200031a84620001ce565b810160208510156200032a578190505b620003426200033985620001ce565b830182620002d3565b50505b505050565b600082821c905092915050565b60006200036a600019846008026200034a565b1980831691505092915050565b600062000385838362000357565b9150826002028217905092915050565b620003a0826200011b565b67ffffffffffffffff811115620003bc57620003bb62000126565b5b620003c8825462000184565b620003d5828285620002fa565b600060209050601f8311600181146200040d5760008415620003f8578287015190505b62000404858262000377565b86555062000474565b601f1984166200041d86620001b9565b60005b82811015620004475784890151825560018201915060208501945060208101905062000420565b8683101562000467578489015162000463601f89168262000357565b8355505b6001600288020188555050505b505050505050565b61115d806200048c6000396000f3fe608060405234801561001057600080fd5b50600436106100f55760003560e01c806370a08231116100975780638da5cb5b116100665780638da5cb5b1461029a57806395d89b41146102b8578063cfb51928146102d6578063ded9468814610306576100f5565b806370a08231146101ee578063792f97ae1461021e57806384ab8bb81461024e5780638735741d1461027e576100f5565b80632a57937a116100d35780632a57937a146101665780632d82ee8b14610196578063313ce567146101c6578063377b47a3146101e4576100f5565b8063026bdfa1146100fa57806306fdde031461012a57806318160ddd14610148575b600080fd5b610114600480360381019061010f9190610a2a565b610324565b6040516101219190610a70565b60405180910390f35b61013261033c565b60405161013f9190610b1b565b60405180910390f35b6101506103ca565b60405161015d9190610a70565b60405180910390f35b610180600480360381019061017b9190610a2a565b6103d0565b60405161018d9190610b58565b60405180910390f35b6101b060048036038101906101ab9190610bd8565b6103f0565b6040516101bd9190610a70565b60405180910390f35b6101ce61045a565b6040516101db9190610c41565b60405180910390f35b6101ec61046d565b005b61020860048036038101906102039190610cba565b610672565b6040516102159190610a70565b60405180910390f35b61023860048036038101906102339190610cba565b6106be565b6040516102459190610cf6565b60405180910390f35b61026860048036038101906102639190610cba565b61070a565b6040516102759190610a70565b60405180910390f35b61029860048036038101906102939190610bd8565b610756565b005b6102a26108d9565b6040516102af9190610d20565b60405180910390f35b6102c06108ff565b6040516102cd9190610b1b565b60405180910390f35b6102f060048036038101906102eb9190610e6b565b61098d565b6040516102fd9190610cf6565b60405180910390f35b61030e6109b6565b60405161031b9190610d20565b60405180910390f35b60076020528060005260406000206000915090505481565b6002805461034990610ee3565b80601f016020809104026020016040519081016040528092919081815260200182805461037590610ee3565b80156103c25780601f10610397576101008083540402835291602001916103c2565b820191906000526020600020905b8154815290600101906020018083116103a557829003601f168201915b505050505081565b60005481565b60086020528060005260406000206000915054906101000a900460ff1681565b60006007600061044385858080601f016020809104026020016040519081016040528093929190818152602001838380828437600081840152601f19601f8201169050808301925050505050505061098d565b815260200190815260200160002054905092915050565b600160009054906101000a900460ff1681565b600660003373ffffffffffffffffffffffffffffffffffffffff1673ffffffffffffffffffffffffffffffffffffffff16815260200190815260200160002060009054906101000a900460ff16156104fa576040517f08c379a00000000000000000000000000000000000000000000000000000000081526004016104f190610f60565b60405180910390fd5b678ac7230489e800006000541015610547576040517f08c379a000000000000000000000000000000000000000000000000000000000815260040161053e90610fcc565b60405180910390fd5b6001600660003373ffffffffffffffffffffffffffffffffffffffff1673ffffffffffffffffffffffffffffffffffffffff16815260200190815260200160002060006101000a81548160ff0219169083151502179055506040518060800160405280678ac7230489e800008152602001600015158152602001600080191681526020016000815250600560003373ffffffffffffffffffffffffffffffffffffffff1673ffffffffffffffffffffffffffffffffffffffff1681526020019081526020016000206000820151816000015560208201518160010160006101000a81548160ff0219169083151502179055506040820151816002015560608201518160030155905050678ac7230489e80000600080828254610669919061101b565b92505081905550565b6000600560008373ffffffffffffffffffffffffffffffffffffffff1673ffffffffffffffffffffffffffffffffffffffff168152602001908152602001600020600001549050919050565b6000600560008373ffffffffffffffffffffffffffffffffffffffff1673ffffffffffffffffffffffffffffffffffffffff168152602001908152602001600020600201549050919050565b6000600560008373ffffffffffffffffffffffffffffffffffffffff1673ffffffffffffffffffffffffffffffffffffffff168152602001908152602001600020600301549050919050565b600460009054906101000a900473ffffffffffffffffffffffffffffffffffffffff1673ffffffffffffffffffffffffffffffffffffffff163373ffffffffffffffffffffffffffffffffffffffff16146107b057600080fd5b600082829050116107f6576040517f08c379a00000000000000000000000000000000000000000000000000000000081526004016107ed9061109b565b60405180910390fd5b600061084583838080601f016020809104026020016040519081016040528093929190818152602001838380828437600081840152601f19601f8201169050808301925050505050505061098d565b90506008600082815260200190815260200160002060009054906101000a900460ff16156108a8576040517f08c379a000000000000000000000000000000000000000000000000000000000815260040161089f90611107565b60405180910390fd5b60016008600083815260200190815260200160002060006101000a81548160ff021916908315150217905550505050565b600460009054906101000a900473ffffffffffffffffffffffffffffffffffffffff1681565b6003805461090c90610ee3565b80601f016020809104026020016040519081016040528092919081815260200182805461093890610ee3565b80156109855780601f1061095a57610100808354040283529160200191610985565b820191906000526020600020905b81548152906001019060200180831161096857829003601f168201915b505050505081565b60008082905060008151036109a8576000801b9150506109b1565b60208301519150505b919050565b6000600460009054906101000a900473ffffffffffffffffffffffffffffffffffffffff16905090565b6000604051905090565b600080fd5b600080fd5b6000819050919050565b610a07816109f4565b8114610a1257600080fd5b50565b600081359050610a24816109fe565b92915050565b600060208284031215610a4057610a3f6109ea565b5b6000610a4e84828501610a15565b91505092915050565b6000819050919050565b610a6a81610a57565b82525050565b6000602082019050610a856000830184610a61565b92915050565b600081519050919050565b600082825260208201905092915050565b60005b83811015610ac5578082015181840152602081019050610aaa565b60008484015250505050565b6000601f19601f8301169050919050565b6000610aed82610a8b565b610af78185610a96565b9350610b07818560208601610aa7565b610b1081610ad1565b840191505092915050565b60006020820190508181036000830152610b358184610ae2565b905092915050565b60008115159050919050565b610b5281610b3d565b82525050565b6000602082019050610b6d6000830184610b49565b92915050565b600080fd5b600080fd5b600080fd5b60008083601f840112610b9857610b97610b73565b5b8235905067ffffffffffffffff811115610bb557610bb4610b78565b5b602083019150836001820283011115610bd157610bd0610b7d565b5b9250929050565b60008060208385031215610bef57610bee6109ea565b5b600083013567ffffffffffffffff811115610c0d57610c0c6109ef565b5b610c1985828601610b82565b92509250509250929050565b600060ff82169050919050565b610c3b81610c25565b82525050565b6000602082019050610c566000830184610c32565b92915050565b600073ffffffffffffffffffffffffffffffffffffffff82169050919050565b6000610c8782610c5c565b9050919050565b610c9781610c7c565b8114610ca257600080fd5b50565b600081359050610cb481610c8e565b92915050565b600060208284031215610cd057610ccf6109ea565b5b6000610cde84828501610ca5565b91505092915050565b610cf0816109f4565b82525050565b6000602082019050610d0b6000830184610ce7565b92915050565b610d1a81610c7c565b82525050565b6000602082019050610d356000830184610d11565b92915050565b600080fd5b7f4e487b7100000000000000000000000000000000000000000000000000000000600052604160045260246000fd5b610d7882610ad1565b810181811067ffffffffffffffff82111715610d9757610d96610d40565b5b80604052505050565b6000610daa6109e0565b9050610db68282610d6f565b919050565b600067ffffffffffffffff821115610dd657610dd5610d40565b5b610ddf82610ad1565b9050602081019050919050565b82818337600083830152505050565b6000610e0e610e0984610dbb565b610da0565b905082815260208101848484011115610e2a57610e29610d3b565b5b610e35848285610dec565b509392505050565b600082601f830112610e5257610e51610b73565b5b8135610e62848260208601610dfb565b91505092915050565b600060208284031215610e8157610e806109ea565b5b600082013567ffffffffffffffff811115610e9f57610e9e6109ef565b5b610eab84828501610e3d565b91505092915050565b7f4e487b7100000000000000000000000000000000000000000000000000000000600052602260045260246000fd5b60006002820490506001821680610efb57607f821691505b602082108103610f0e57610f0d610eb4565b5b50919050565b7f596f75206861766520616c726561647920726567697374657265640000000000600082015250565b6000610f4a601b83610a96565b9150610f5582610f14565b602082019050919050565b60006020820190508181036000830152610f7981610f3d565b9050919050565b7f4e6f7420656e6f75676820746f74616c537570706c7921000000000000000000600082015250565b6000610fb6601783610a96565b9150610fc182610f80565b602082019050919050565b60006020820190508181036000830152610fe581610fa9565b9050919050565b7f4e487b7100000000000000000000000000000000000000000000000000000000600052601160045260246000fd5b600061102682610a57565b915061103183610a57565b925082820390508181111561104957611048610fec565b5b92915050565b7f5465616d206e616d652063616e6e6f7420626520656d70747900000000000000600082015250565b6000611085601983610a96565b91506110908261104f565b602082019050919050565b600060208201905081810360008301526110b481611078565b9050919050565b7f5465616d206e616d6520616c7265616479206578697374730000000000000000600082015250565b60006110f1601883610a96565b91506110fc826110bb565b602082019050919050565b60006020820190508181036000830152611120816110e4565b905091905056fea264697066735822122048ad60b06f57940c8da22996e0dac147a2b703dce73d5484f48f16890e9bceba64736f6c63430008120033",
  "immutableReferences": {},
  "source": "// SPDX-License-Identifier: MIT\npragma solidity >=0.8.18<0.9.0;\nimport './Token.sol';\n\ncontract SetTeam is Token {\n    //      mapping \n    // stringToBytes32(<Team Name>)  mapping     .\n\n    // team weight  mapping\n    mapping(bytes32 => uint) public teamWeight;\n    // team    mapping\n    mapping(bytes32 => bool) public teamSetted;\n\n    uint bettingTotalBalance = 0;\n    uint winnerTeamPureBalance = 0;\n\n    modifier onlyOwner() {\n        require(msg.sender == owner);\n        _;\n    }\n\n    function stringToBytes32(string memory source) public pure returns(bytes32 result) {\n        bytes memory tempEmptyStringTest = bytes(source);\n        if(tempEmptyStringTest.length == 0) {\n            return 0x0;\n        }\n        assembly {\n            result := mload(add(source, 32))\n        }\n    }\n    \n    // team \n    function setTeam(string calldata _teamName) external onlyOwner {\n        require(bytes(_teamName).length > 0, \"Team name cannot be empty\");\n        bytes32 teamNameHash = stringToBytes32((_teamName));\n        require(!teamSetted[teamNameHash], \"Team name already exists\");\n\n        teamSetted[teamNameHash] = true;\n    }\n\n    // team weight \n    function getTeamWeightByTeamName(string calldata _teamName) external view returns (uint) {\n        return teamWeight[stringToBytes32(_teamName)];\n    }\n\n}",
  "sourcePath": "/home/minkun/vote-main/src/contracts/SetTeam.sol",
  "compiler": {
    "name": "solc",
    "version": "0.8.18+commit.87f61d96.Emscripten.clang"
  },
  "schemaVersion": "3.4.14",
  "updatedAt": "2023-08-05T08:41:30.360Z",
  "networkType": "ethereum",
  "devdoc": {
    "kind": "dev",
    "methods": {},
    "version": 1
  },
  "userdoc": {
    "kind": "user",
    "methods": {},
    "version": 1
  }
}