{
  "contractName": "SetTeam",
  "abi": [
    {
      "inputs": [
        {
          "internalType": "address",
          "name": "_address",
          "type": "address"
        }
      ],
      "name": "balanceOf",
      "outputs": [
        {
          "internalType": "uint256",
          "name": "",
          "type": "uint256"
        }
      ],
      "stateMutability": "view",
      "type": "function",
      "constant": true
    },
    {
      "inputs": [],
      "name": "decimals",
      "outputs": [
        {
          "internalType": "uint8",
          "name": "",
          "type": "uint8"
        }
      ],
      "stateMutability": "view",
      "type": "function",
      "constant": true
    },
    {
      "inputs": [
        {
          "internalType": "address",
          "name": "_address",
          "type": "address"
        }
      ],
      "name": "getUserVotedTeamName",
      "outputs": [
        {
          "internalType": "bytes32",
          "name": "",
          "type": "bytes32"
        }
      ],
      "stateMutability": "view",
      "type": "function",
      "constant": true
    },
    {
      "inputs": [],
      "name": "logIn",
      "outputs": [
        {
          "internalType": "uint256",
          "name": "",
          "type": "uint256"
        }
      ],
      "stateMutability": "nonpayable",
      "type": "function"
    },
    {
      "inputs": [],
      "name": "name",
      "outputs": [
        {
          "internalType": "string",
          "name": "",
          "type": "string"
        }
      ],
      "stateMutability": "view",
      "type": "function",
      "constant": true
    },
    {
      "inputs": [],
      "name": "owner",
      "outputs": [
        {
          "internalType": "address",
          "name": "",
          "type": "address"
        }
      ],
      "stateMutability": "view",
      "type": "function",
      "constant": true
    },
    {
      "inputs": [],
      "name": "showOwner",
      "outputs": [
        {
          "internalType": "address",
          "name": "",
          "type": "address"
        }
      ],
      "stateMutability": "view",
      "type": "function",
      "constant": true
    },
    {
      "inputs": [
        {
          "internalType": "bytes32",
          "name": "",
          "type": "bytes32"
        }
      ],
      "name": "stringTeamName",
      "outputs": [
        {
          "internalType": "string",
          "name": "",
          "type": "string"
        }
      ],
      "stateMutability": "view",
      "type": "function",
      "constant": true
    },
    {
      "inputs": [],
      "name": "symbol",
      "outputs": [
        {
          "internalType": "string",
          "name": "",
          "type": "string"
        }
      ],
      "stateMutability": "view",
      "type": "function",
      "constant": true
    },
    {
      "inputs": [
        {
          "internalType": "bytes32",
          "name": "",
          "type": "bytes32"
        }
      ],
      "name": "teamWeight",
      "outputs": [
        {
          "internalType": "uint256",
          "name": "",
          "type": "uint256"
        }
      ],
      "stateMutability": "view",
      "type": "function",
      "constant": true
    },
    {
      "inputs": [],
      "name": "totalSupply",
      "outputs": [
        {
          "internalType": "uint256",
          "name": "",
          "type": "uint256"
        }
      ],
      "stateMutability": "view",
      "type": "function",
      "constant": true
    },
    {
      "inputs": [
        {
          "internalType": "address",
          "name": "_address",
          "type": "address"
        }
      ],
      "name": "voteBalanceOf",
      "outputs": [
        {
          "internalType": "uint256",
          "name": "",
          "type": "uint256"
        }
      ],
      "stateMutability": "view",
      "type": "function",
      "constant": true
    },
    {
      "inputs": [
        {
          "internalType": "string",
          "name": "source",
          "type": "string"
        }
      ],
      "name": "stringToBytes32",
      "outputs": [
        {
          "internalType": "bytes32",
          "name": "result",
          "type": "bytes32"
        }
      ],
      "stateMutability": "pure",
      "type": "function",
      "constant": true
    },
    {
      "inputs": [
        {
          "internalType": "string",
          "name": "_teamName",
          "type": "string"
        }
      ],
      "name": "getTeamWeightByTeamName",
      "outputs": [
        {
          "internalType": "uint256",
          "name": "",
          "type": "uint256"
        }
      ],
      "stateMutability": "view",
      "type": "function",
      "constant": true
    }
  ],
  "bytecode": "0x608060405269d3c21bcecceda10000006000556012600160006101000a81548160ff021916908360ff1602179055506040518060400160405280600981526020017f6c6f6c20746f6b656e00000000000000000000000000000000000000000000008152506002908162000074919062000395565b506040518060400160405280600281526020017f6c7400000000000000000000000000000000000000000000000000000000000081525060039081620000bb919062000395565b5060006009556000600a55348015620000d357600080fd5b5033600460006101000a81548173ffffffffffffffffffffffffffffffffffffffff021916908373ffffffffffffffffffffffffffffffffffffffff1602179055506200047c565b600081519050919050565b7f4e487b7100000000000000000000000000000000000000000000000000000000600052604160045260246000fd5b7f4e487b7100000000000000000000000000000000000000000000000000000000600052602260045260246000fd5b600060028204905060018216806200019d57607f821691505b602082108103620001b357620001b262000155565b5b50919050565b60008190508160005260206000209050919050565b60006020601f8301049050919050565b600082821b905092915050565b6000600883026200021d7fffffffffffffffffffffffffffffffffffffffffffffffffffffffffffffffff82620001de565b620002298683620001de565b95508019841693508086168417925050509392505050565b6000819050919050565b6000819050919050565b600062000276620002706200026a8462000241565b6200024b565b62000241565b9050919050565b6000819050919050565b620002928362000255565b620002aa620002a1826200027d565b848454620001eb565b825550505050565b600090565b620002c1620002b2565b620002ce81848462000287565b505050565b5b81811015620002f657620002ea600082620002b7565b600181019050620002d4565b5050565b601f82111562000345576200030f81620001b9565b6200031a84620001ce565b810160208510156200032a578190505b620003426200033985620001ce565b830182620002d3565b50505b505050565b600082821c905092915050565b60006200036a600019846008026200034a565b1980831691505092915050565b600062000385838362000357565b9150826002028217905092915050565b620003a0826200011b565b67ffffffffffffffff811115620003bc57620003bb62000126565b5b620003c8825462000184565b620003d5828285620002fa565b600060209050601f8311600181146200040d5760008415620003f8578287015190505b62000404858262000377565b86555062000474565b601f1984166200041d86620001b9565b60005b82811015620004475784890151825560018201915060208501945060208101905062000420565b8683101562000467578489015162000463601f89168262000357565b8355505b6001600288020188555050505b505050505050565b610f47806200048c6000396000f3fe608060405234801561001057600080fd5b50600436106100ea5760003560e01c8063792f97ae1161008c57806395d89b411161006657806395d89b4114610275578063967f3fa414610293578063cfb51928146102c3578063ded94688146102f3576100ea565b8063792f97ae146101f757806384ab8bb8146102275780638da5cb5b14610257576100ea565b80632d82ee8b116100c85780632d82ee8b1461015b578063313ce5671461018b578063377b47a3146101a957806370a08231146101c7576100ea565b8063026bdfa1146100ef57806306fdde031461011f57806318160ddd1461013d575b600080fd5b61010960048036038101906101049190610922565b610311565b6040516101169190610968565b60405180910390f35b610127610329565b6040516101349190610a13565b60405180910390f35b6101456103b7565b6040516101529190610968565b60405180910390f35b61017560048036038101906101709190610a9a565b6103bd565b6040516101829190610968565b60405180910390f35b610193610427565b6040516101a09190610b03565b60405180910390f35b6101b161043a565b6040516101be9190610968565b60405180910390f35b6101e160048036038101906101dc9190610b7c565b61064d565b6040516101ee9190610968565b60405180910390f35b610211600480360381019061020c9190610b7c565b610699565b60405161021e9190610bb8565b60405180910390f35b610241600480360381019061023c9190610b7c565b6106e5565b60405161024e9190610968565b60405180910390f35b61025f610731565b60405161026c9190610be2565b60405180910390f35b61027d610757565b60405161028a9190610a13565b60405180910390f35b6102ad60048036038101906102a89190610922565b6107e5565b6040516102ba9190610a13565b60405180910390f35b6102dd60048036038101906102d89190610d2d565b610885565b6040516102ea9190610bb8565b60405180910390f35b6102fb6108ae565b6040516103089190610be2565b60405180910390f35b60076020528060005260406000206000915090505481565b6002805461033690610da5565b80601f016020809104026020016040519081016040528092919081815260200182805461036290610da5565b80156103af5780601f10610384576101008083540402835291602001916103af565b820191906000526020600020905b81548152906001019060200180831161039257829003601f168201915b505050505081565b60005481565b60006007600061041085858080601f016020809104026020016040519081016040528093929190818152602001838380828437600081840152601f19601f82011690508083019250505050505050610885565b815260200190815260200160002054905092915050565b600160009054906101000a900460ff1681565b6000600660003373ffffffffffffffffffffffffffffffffffffffff1673ffffffffffffffffffffffffffffffffffffffff16815260200190815260200160002060009054906101000a900460ff16156104c9576040517f08c379a00000000000000000000000000000000000000000000000000000000081526004016104c090610e22565b60405180910390fd5b678ac7230489e800006000541015610516576040517f08c379a000000000000000000000000000000000000000000000000000000000815260040161050d90610e8e565b60405180910390fd5b6001600660003373ffffffffffffffffffffffffffffffffffffffff1673ffffffffffffffffffffffffffffffffffffffff16815260200190815260200160002060006101000a81548160ff0219169083151502179055506040518060800160405280678ac7230489e800008152602001600015158152602001600080191681526020016000815250600560003373ffffffffffffffffffffffffffffffffffffffff1673ffffffffffffffffffffffffffffffffffffffff1681526020019081526020016000206000820151816000015560208201518160010160006101000a81548160ff0219169083151502179055506040820151816002015560608201518160030155905050678ac7230489e800006000808282546106389190610edd565b925050819055506106483361064d565b905090565b6000600560008373ffffffffffffffffffffffffffffffffffffffff1673ffffffffffffffffffffffffffffffffffffffff168152602001908152602001600020600001549050919050565b6000600560008373ffffffffffffffffffffffffffffffffffffffff1673ffffffffffffffffffffffffffffffffffffffff168152602001908152602001600020600201549050919050565b6000600560008373ffffffffffffffffffffffffffffffffffffffff1673ffffffffffffffffffffffffffffffffffffffff168152602001908152602001600020600301549050919050565b600460009054906101000a900473ffffffffffffffffffffffffffffffffffffffff1681565b6003805461076490610da5565b80601f016020809104026020016040519081016040528092919081815260200182805461079090610da5565b80156107dd5780601f106107b2576101008083540402835291602001916107dd565b820191906000526020600020905b8154815290600101906020018083116107c057829003601f168201915b505050505081565b6008602052806000526040600020600091509050805461080490610da5565b80601f016020809104026020016040519081016040528092919081815260200182805461083090610da5565b801561087d5780601f106108525761010080835404028352916020019161087d565b820191906000526020600020905b81548152906001019060200180831161086057829003601f168201915b505050505081565b60008082905060008151036108a0576000801b9150506108a9565b60208301519150505b919050565b6000600460009054906101000a900473ffffffffffffffffffffffffffffffffffffffff16905090565b6000604051905090565b600080fd5b600080fd5b6000819050919050565b6108ff816108ec565b811461090a57600080fd5b50565b60008135905061091c816108f6565b92915050565b600060208284031215610938576109376108e2565b5b60006109468482850161090d565b91505092915050565b6000819050919050565b6109628161094f565b82525050565b600060208201905061097d6000830184610959565b92915050565b600081519050919050565b600082825260208201905092915050565b60005b838110156109bd5780820151818401526020810190506109a2565b60008484015250505050565b6000601f19601f8301169050919050565b60006109e582610983565b6109ef818561098e565b93506109ff81856020860161099f565b610a08816109c9565b840191505092915050565b60006020820190508181036000830152610a2d81846109da565b905092915050565b600080fd5b600080fd5b600080fd5b60008083601f840112610a5a57610a59610a35565b5b8235905067ffffffffffffffff811115610a7757610a76610a3a565b5b602083019150836001820283011115610a9357610a92610a3f565b5b9250929050565b60008060208385031215610ab157610ab06108e2565b5b600083013567ffffffffffffffff811115610acf57610ace6108e7565b5b610adb85828601610a44565b92509250509250929050565b600060ff82169050919050565b610afd81610ae7565b82525050565b6000602082019050610b186000830184610af4565b92915050565b600073ffffffffffffffffffffffffffffffffffffffff82169050919050565b6000610b4982610b1e565b9050919050565b610b5981610b3e565b8114610b6457600080fd5b50565b600081359050610b7681610b50565b92915050565b600060208284031215610b9257610b916108e2565b5b6000610ba084828501610b67565b91505092915050565b610bb2816108ec565b82525050565b6000602082019050610bcd6000830184610ba9565b92915050565b610bdc81610b3e565b82525050565b6000602082019050610bf76000830184610bd3565b92915050565b600080fd5b7f4e487b7100000000000000000000000000000000000000000000000000000000600052604160045260246000fd5b610c3a826109c9565b810181811067ffffffffffffffff82111715610c5957610c58610c02565b5b80604052505050565b6000610c6c6108d8565b9050610c788282610c31565b919050565b600067ffffffffffffffff821115610c9857610c97610c02565b5b610ca1826109c9565b9050602081019050919050565b82818337600083830152505050565b6000610cd0610ccb84610c7d565b610c62565b905082815260208101848484011115610cec57610ceb610bfd565b5b610cf7848285610cae565b509392505050565b600082601f830112610d1457610d13610a35565b5b8135610d24848260208601610cbd565b91505092915050565b600060208284031215610d4357610d426108e2565b5b600082013567ffffffffffffffff811115610d6157610d606108e7565b5b610d6d84828501610cff565b91505092915050565b7f4e487b7100000000000000000000000000000000000000000000000000000000600052602260045260246000fd5b60006002820490506001821680610dbd57607f821691505b602082108103610dd057610dcf610d76565b5b50919050565b7f596f75206861766520616c726561647920726567697374657265640000000000600082015250565b6000610e0c601b8361098e565b9150610e1782610dd6565b602082019050919050565b60006020820190508181036000830152610e3b81610dff565b9050919050565b7f4e6f7420656e6f75676820746f74616c537570706c7921000000000000000000600082015250565b6000610e7860178361098e565b9150610e8382610e42565b602082019050919050565b60006020820190508181036000830152610ea781610e6b565b9050919050565b7f4e487b7100000000000000000000000000000000000000000000000000000000600052601160045260246000fd5b6000610ee88261094f565b9150610ef38361094f565b9250828203905081811115610f0b57610f0a610eae565b5b9291505056fea26469706673582212201d03925b938100955d5b7e8c540bd39f61df7bd2d900486b96ef11be72bde6b164736f6c63430008120033",
  "immutableReferences": {},
  "source": "// SPDX-License-Identifier: MIT\r\npragma solidity >=0.8.18<0.9.0;\r\nimport './Token.sol';\r\n\r\ncontract SetTeam is Token {\r\n    //      mapping \r\n    // stringToBytes32(<Team Name>)  mapping     .\r\n\r\n    // team weight  mapping\r\n    mapping(bytes32 => uint) public teamWeight;\r\n    mapping(bytes32 => string) public stringTeamName;\r\n    // team    mapping\r\n\r\n    uint bettingTotalBalance = 0;\r\n    uint winnerTeamPureBalance = 0;\r\n\r\n    modifier onlyOwner() {\r\n        require(msg.sender == owner);\r\n        _;\r\n    }\r\n\r\n    function stringToBytes32(string memory source) public pure returns(bytes32 result) {\r\n        bytes memory tempEmptyStringTest = bytes(source);\r\n        if(tempEmptyStringTest.length == 0) {\r\n            return 0x0;\r\n        }\r\n        assembly {\r\n            result := mload(add(source, 32))\r\n        }\r\n    }\r\n    // team weight \r\n    function getTeamWeightByTeamName(string calldata _teamName) external view returns (uint) {\r\n        return teamWeight[stringToBytes32(_teamName)];\r\n    }\r\n\r\n}",
  "sourcePath": "/home/sligh/projectBlockChain/Betting/src/contracts/SetTeam.sol",
  "compiler": {
    "name": "solc",
    "version": "0.8.18+commit.87f61d96.Emscripten.clang"
  },
  "schemaVersion": "3.4.14",
  "updatedAt": "2023-08-13T14:19:38.136Z",
  "networkType": "ethereum",
  "devdoc": {
    "kind": "dev",
    "methods": {},
    "version": 1
  },
  "userdoc": {
    "kind": "user",
    "methods": {},
    "version": 1
  }
}