{
  "contractName": "SetTeam",
  "abi": [
    {
      "constant": true,
      "inputs": [
        {
          "name": "",
          "type": "bytes32"
        }
      ],
      "name": "teamWeight",
      "outputs": [
        {
          "name": "",
          "type": "uint256"
        }
      ],
      "payable": false,
      "stateMutability": "view",
      "type": "function"
    },
    {
      "constant": true,
      "inputs": [],
      "name": "name",
      "outputs": [
        {
          "name": "",
          "type": "string"
        }
      ],
      "payable": false,
      "stateMutability": "view",
      "type": "function"
    },
    {
      "constant": true,
      "inputs": [],
      "name": "totalSupply",
      "outputs": [
        {
          "name": "",
          "type": "uint256"
        }
      ],
      "payable": false,
      "stateMutability": "view",
      "type": "function"
    },
    {
      "constant": true,
      "inputs": [
        {
          "name": "",
          "type": "bytes32"
        }
      ],
      "name": "teamSetted",
      "outputs": [
        {
          "name": "",
          "type": "bool"
        }
      ],
      "payable": false,
      "stateMutability": "view",
      "type": "function"
    },
    {
      "constant": true,
      "inputs": [],
      "name": "decimals",
      "outputs": [
        {
          "name": "",
          "type": "uint8"
        }
      ],
      "payable": false,
      "stateMutability": "view",
      "type": "function"
    },
    {
      "constant": false,
      "inputs": [],
      "name": "logIn",
      "outputs": [],
      "payable": false,
      "stateMutability": "nonpayable",
      "type": "function"
    },
    {
      "constant": true,
      "inputs": [
        {
          "name": "_address",
          "type": "address"
        }
      ],
      "name": "balanceOf",
      "outputs": [
        {
          "name": "",
          "type": "uint256"
        }
      ],
      "payable": false,
      "stateMutability": "view",
      "type": "function"
    },
    {
      "constant": true,
      "inputs": [
        {
          "name": "_address",
          "type": "address"
        }
      ],
      "name": "getUserVotedTeamName",
      "outputs": [
        {
          "name": "",
          "type": "bytes32"
        }
      ],
      "payable": false,
      "stateMutability": "view",
      "type": "function"
    },
    {
      "constant": true,
      "inputs": [
        {
          "name": "_address",
          "type": "address"
        }
      ],
      "name": "voteBalanceOf",
      "outputs": [
        {
          "name": "",
          "type": "uint256"
        }
      ],
      "payable": false,
      "stateMutability": "view",
      "type": "function"
    },
    {
      "constant": true,
      "inputs": [],
      "name": "owner",
      "outputs": [
        {
          "name": "",
          "type": "address"
        }
      ],
      "payable": false,
      "stateMutability": "view",
      "type": "function"
    },
    {
      "constant": true,
      "inputs": [],
      "name": "symbol",
      "outputs": [
        {
          "name": "",
          "type": "string"
        }
      ],
      "payable": false,
      "stateMutability": "view",
      "type": "function"
    },
    {
      "constant": true,
      "inputs": [],
      "name": "showOwner",
      "outputs": [
        {
          "name": "",
          "type": "address"
        }
      ],
      "payable": false,
      "stateMutability": "view",
      "type": "function"
    },
    {
      "constant": true,
      "inputs": [
        {
          "name": "source",
          "type": "string"
        }
      ],
      "name": "stringToBytes32",
      "outputs": [
        {
          "name": "result",
          "type": "bytes32"
        }
      ],
      "payable": false,
      "stateMutability": "pure",
      "type": "function"
    },
    {
      "constant": false,
      "inputs": [
        {
          "name": "_teamName",
          "type": "string"
        }
      ],
      "name": "setTeam",
      "outputs": [],
      "payable": false,
      "stateMutability": "nonpayable",
      "type": "function"
    },
    {
      "constant": true,
      "inputs": [
        {
          "name": "_teamName",
          "type": "string"
        }
      ],
      "name": "getTeamWeightByTeamName",
      "outputs": [
        {
          "name": "",
          "type": "uint256"
        }
      ],
      "payable": false,
      "stateMutability": "view",
      "type": "function"
    }
  ],
  "bytecode": "0x608060405269d3c21bcecceda10000006000556012600160006101000a81548160ff021916908360ff1602179055506040805190810160405280600981526020017f6c6f6c20746f6b656e000000000000000000000000000000000000000000000081525060029080519060200190610079929190610116565b506040805190810160405280600281526020017f6c74000000000000000000000000000000000000000000000000000000000000815250600390805190602001906100c5929190610116565b5060006009556000600a5533600460006101000a81548173ffffffffffffffffffffffffffffffffffffffff021916908373ffffffffffffffffffffffffffffffffffffffff1602179055506101bb565b828054600181600116156101000203166002900490600052602060002090601f016020900481019282601f1061015757805160ff1916838001178555610185565b82800160010185558215610185579182015b82811115610184578251825591602001919060010190610169565b5b5090506101929190610196565b5090565b6101b891905b808211156101b457600081600090555060010161019c565b5090565b90565b610ec1806101ca6000396000f3fe6080604052600436106100d5576000357c010000000000000000000000000000000000000000000000000000000090048063026bdfa1146100da57806306fdde031461012957806318160ddd146101b95780632a57937a146101e45780632d82ee8b14610237578063313ce567146102d1578063377b47a31461030257806370a0823114610319578063792f97ae1461037e57806384ab8bb8146103e35780638735741d146104485780638da5cb5b146104ce57806395d89b4114610525578063cfb51928146105b5578063ded9468814610691575b600080fd5b3480156100e657600080fd5b50610113600480360360208110156100fd57600080fd5b81019080803590602001909291905050506106e8565b6040518082815260200191505060405180910390f35b34801561013557600080fd5b5061013e610700565b6040518080602001828103825283818151815260200191508051906020019080838360005b8381101561017e578082015181840152602081019050610163565b50505050905090810190601f1680156101ab5780820380516001836020036101000a031916815260200191505b509250505060405180910390f35b3480156101c557600080fd5b506101ce61079e565b6040518082815260200191505060405180910390f35b3480156101f057600080fd5b5061021d6004803603602081101561020757600080fd5b81019080803590602001909291905050506107a4565b604051808215151515815260200191505060405180910390f35b34801561024357600080fd5b506102bb6004803603602081101561025a57600080fd5b810190808035906020019064010000000081111561027757600080fd5b82018360208201111561028957600080fd5b803590602001918460018302840111640100000000831117156102ab57600080fd5b90919293919293905050506107c4565b6040518082815260200191505060405180910390f35b3480156102dd57600080fd5b506102e661082e565b604051808260ff1660ff16815260200191505060405180910390f35b34801561030e57600080fd5b50610317610841565b005b34801561032557600080fd5b506103686004803603602081101561033c57600080fd5b81019080803573ffffffffffffffffffffffffffffffffffffffff169060200190929190505050610aa8565b6040518082815260200191505060405180910390f35b34801561038a57600080fd5b506103cd600480360360208110156103a157600080fd5b81019080803573ffffffffffffffffffffffffffffffffffffffff169060200190929190505050610af4565b6040518082815260200191505060405180910390f35b3480156103ef57600080fd5b506104326004803603602081101561040657600080fd5b81019080803573ffffffffffffffffffffffffffffffffffffffff169060200190929190505050610b40565b6040518082815260200191505060405180910390f35b34801561045457600080fd5b506104cc6004803603602081101561046b57600080fd5b810190808035906020019064010000000081111561048857600080fd5b82018360208201111561049a57600080fd5b803590602001918460018302840111640100000000831117156104bc57600080fd5b9091929391929390505050610b8c565b005b3480156104da57600080fd5b506104e3610d7b565b604051808273ffffffffffffffffffffffffffffffffffffffff1673ffffffffffffffffffffffffffffffffffffffff16815260200191505060405180910390f35b34801561053157600080fd5b5061053a610da1565b6040518080602001828103825283818151815260200191508051906020019080838360005b8381101561057a57808201518184015260208101905061055f565b50505050905090810190601f1680156105a75780820380516001836020036101000a031916815260200191505b509250505060405180910390f35b3480156105c157600080fd5b5061067b600480360360208110156105d857600080fd5b81019080803590602001906401000000008111156105f557600080fd5b82018360208201111561060757600080fd5b8035906020019184600183028401116401000000008311171561062957600080fd5b91908080601f016020809104026020016040519081016040528093929190818152602001838380828437600081840152601f19601f820116905080830192505050505050509192919290505050610e3f565b6040518082815260200191505060405180910390f35b34801561069d57600080fd5b506106a6610e6b565b604051808273ffffffffffffffffffffffffffffffffffffffff1673ffffffffffffffffffffffffffffffffffffffff16815260200191505060405180910390f35b60076020528060005260406000206000915090505481565b60028054600181600116156101000203166002900480601f0160208091040260200160405190810160405280929190818152602001828054600181600116156101000203166002900480156107965780601f1061076b57610100808354040283529160200191610796565b820191906000526020600020905b81548152906001019060200180831161077957829003601f168201915b505050505081565b60005481565b60086020528060005260406000206000915054906101000a900460ff1681565b60006007600061081785858080601f016020809104026020016040519081016040528093929190818152602001838380828437600081840152601f19601f82011690508083019250505050505050610e3f565b815260200190815260200160002054905092915050565b600160009054906101000a900460ff1681565b600660003373ffffffffffffffffffffffffffffffffffffffff1673ffffffffffffffffffffffffffffffffffffffff16815260200190815260200160002060009054906101000a900460ff16151515610903576040517f08c379a000000000000000000000000000000000000000000000000000000000815260040180806020018281038252601b8152602001807f596f75206861766520616c72656164792072656769737465726564000000000081525060200191505060405180910390fd5b678ac7230489e8000060005410151515610985576040517f08c379a00000000000000000000000000000000000000000000000000000000081526004018080602001828103825260178152602001807f4e6f7420656e6f75676820746f74616c537570706c792100000000000000000081525060200191505060405180910390fd5b6001600660003373ffffffffffffffffffffffffffffffffffffffff1673ffffffffffffffffffffffffffffffffffffffff16815260200190815260200160002060006101000a81548160ff021916908315150217905550608060405190810160405280678ac7230489e800008152602001600015158152602001600080191681526020016000815250600560003373ffffffffffffffffffffffffffffffffffffffff1673ffffffffffffffffffffffffffffffffffffffff1681526020019081526020016000206000820151816000015560208201518160010160006101000a81548160ff0219169083151502179055506040820151816002015560608201518160030155905050678ac7230489e800006000808282540392505081905550565b6000600560008373ffffffffffffffffffffffffffffffffffffffff1673ffffffffffffffffffffffffffffffffffffffff168152602001908152602001600020600001549050919050565b6000600560008373ffffffffffffffffffffffffffffffffffffffff1673ffffffffffffffffffffffffffffffffffffffff168152602001908152602001600020600201549050919050565b6000600560008373ffffffffffffffffffffffffffffffffffffffff1673ffffffffffffffffffffffffffffffffffffffff168152602001908152602001600020600301549050919050565b600460009054906101000a900473ffffffffffffffffffffffffffffffffffffffff1673ffffffffffffffffffffffffffffffffffffffff163373ffffffffffffffffffffffffffffffffffffffff16141515610be857600080fd5b600082829050111515610c63576040517f08c379a00000000000000000000000000000000000000000000000000000000081526004018080602001828103825260198152602001807f5465616d206e616d652063616e6e6f7420626520656d7074790000000000000081525060200191505060405180910390fd5b6000610cb283838080601f016020809104026020016040519081016040528093929190818152602001838380828437600081840152601f19601f82011690508083019250505050505050610e3f565b90506008600082815260200190815260200160002060009054906101000a900460ff16151515610d4a576040517f08c379a00000000000000000000000000000000000000000000000000000000081526004018080602001828103825260188152602001807f5465616d206e616d6520616c726561647920657869737473000000000000000081525060200191505060405180910390fd5b60016008600083815260200190815260200160002060006101000a81548160ff021916908315150217905550505050565b600460009054906101000a900473ffffffffffffffffffffffffffffffffffffffff1681565b60038054600181600116156101000203166002900480601f016020809104026020016040519081016040528092919081815260200182805460018160011615610100020316600290048015610e375780601f10610e0c57610100808354040283529160200191610e37565b820191906000526020600020905b815481529060010190602001808311610e1a57829003601f168201915b505050505081565b60006060829050600081511415610e5d576000600102915050610e66565b60208301519150505b919050565b6000600460009054906101000a900473ffffffffffffffffffffffffffffffffffffffff1690509056fea165627a7a723058202621b988545066b02d18db0a98021c92d5829b95201b750b41c349affe04d5bc0029",
  "source": "// SPDX-License-Identifier: MIT\npragma solidity >=0.4.22<0.9.0;\nimport './Token.sol';\n\ncontract SetTeam is Token {\n    // 팀 관련 변수 접근은 모두 mapping으로 들어감\n    // stringToBytes32(<Team Name>) 을 mapping에 넣어야 해당 값이 튀어나오게 했음.\n\n    // team weight에 접근하는 mapping\n    mapping(bytes32 => uint) public teamWeight;\n    // team이 입력되었는지 확인용으로 만든 mapping\n    mapping(bytes32 => bool) public teamSetted;\n\n    uint bettingTotalBalance = 0;\n    uint winnerTeamPureBalance = 0;\n\n    modifier onlyOwner() {\n        require(msg.sender == owner);\n        _;\n    }\n\n    function stringToBytes32(string memory source) public pure returns(bytes32 result) {\n        bytes memory tempEmptyStringTest = bytes(source);\n        if(tempEmptyStringTest.length == 0) {\n            return 0x0;\n        }\n        assembly {\n            result := mload(add(source, 32))\n        }\n    }\n    \n    // team 설정\n    function setTeam(string calldata _teamName) external onlyOwner {\n        require(bytes(_teamName).length > 0, \"Team name cannot be empty\");\n        bytes32 teamNameHash = stringToBytes32((_teamName));\n        require(!teamSetted[teamNameHash], \"Team name already exists\");\n\n        teamSetted[teamNameHash] = true;\n    }\n\n    // team weight를 불러오기\n    function getTeamWeightByTeamName(string calldata _teamName) external view returns (uint) {\n        return teamWeight[stringToBytes32(_teamName)];\n    }\n\n}",
  "sourcePath": "/home/minkun/vote-main/src/contracts/SetTeam.sol",
  "compiler": {
    "name": "solc",
    "version": "0.5.1+commit.c8a2cb62.Emscripten.clang"
  },
  "schemaVersion": "3.4.14",
  "updatedAt": "2023-08-03T11:24:34.068Z",
  "networkType": "ethereum",
  "devdoc": {
    "methods": {}
  },
  "userdoc": {
    "methods": {}
  }
}