{
  "contractName": "SetTeam",
  "abi": [
    {
      "constant": true,
      "inputs": [],
      "name": "name",
      "outputs": [
        {
          "name": "",
          "type": "string"
        }
      ],
      "payable": false,
      "stateMutability": "view",
      "type": "function"
    },
    {
      "constant": true,
      "inputs": [],
      "name": "totalSupply",
      "outputs": [
        {
          "name": "",
          "type": "uint256"
        }
      ],
      "payable": false,
      "stateMutability": "view",
      "type": "function"
    },
    {
      "constant": true,
      "inputs": [],
      "name": "decimals",
      "outputs": [
        {
          "name": "",
          "type": "uint8"
        }
      ],
      "payable": false,
      "stateMutability": "view",
      "type": "function"
    },
    {
      "constant": false,
      "inputs": [],
      "name": "logIn",
      "outputs": [],
      "payable": false,
      "stateMutability": "nonpayable",
      "type": "function"
    },
    {
      "constant": true,
      "inputs": [
        {
          "name": "",
          "type": "uint256"
        }
      ],
      "name": "teams",
      "outputs": [
        {
          "name": "teamName",
          "type": "string"
        },
        {
          "name": "top",
          "type": "string"
        },
        {
          "name": "jug",
          "type": "string"
        },
        {
          "name": "mid",
          "type": "string"
        },
        {
          "name": "adc",
          "type": "string"
        },
        {
          "name": "sup",
          "type": "string"
        }
      ],
      "payable": false,
      "stateMutability": "view",
      "type": "function"
    },
    {
      "constant": true,
      "inputs": [
        {
          "name": "",
          "type": "bytes32"
        }
      ],
      "name": "teamIndex",
      "outputs": [
        {
          "name": "",
          "type": "uint256"
        }
      ],
      "payable": false,
      "stateMutability": "view",
      "type": "function"
    },
    {
      "constant": true,
      "inputs": [
        {
          "name": "_address",
          "type": "address"
        }
      ],
      "name": "getUserVotedTeamIndex",
      "outputs": [
        {
          "name": "",
          "type": "uint256"
        }
      ],
      "payable": false,
      "stateMutability": "view",
      "type": "function"
    },
    {
      "constant": true,
      "inputs": [
        {
          "name": "_address",
          "type": "address"
        }
      ],
      "name": "balanceOf",
      "outputs": [
        {
          "name": "",
          "type": "uint256"
        }
      ],
      "payable": false,
      "stateMutability": "view",
      "type": "function"
    },
    {
      "constant": true,
      "inputs": [
        {
          "name": "_address",
          "type": "address"
        }
      ],
      "name": "voteBalanceOf",
      "outputs": [
        {
          "name": "",
          "type": "uint256"
        }
      ],
      "payable": false,
      "stateMutability": "view",
      "type": "function"
    },
    {
      "constant": true,
      "inputs": [],
      "name": "owner",
      "outputs": [
        {
          "name": "",
          "type": "address"
        }
      ],
      "payable": false,
      "stateMutability": "view",
      "type": "function"
    },
    {
      "constant": true,
      "inputs": [],
      "name": "symbol",
      "outputs": [
        {
          "name": "",
          "type": "string"
        }
      ],
      "payable": false,
      "stateMutability": "view",
      "type": "function"
    },
    {
      "constant": true,
      "inputs": [],
      "name": "showOwner",
      "outputs": [
        {
          "name": "",
          "type": "address"
        }
      ],
      "payable": false,
      "stateMutability": "view",
      "type": "function"
    },
    {
      "constant": true,
      "inputs": [
        {
          "name": "",
          "type": "uint256"
        }
      ],
      "name": "teamWeight",
      "outputs": [
        {
          "name": "",
          "type": "uint256"
        }
      ],
      "payable": false,
      "stateMutability": "view",
      "type": "function"
    },
    {
      "constant": true,
      "inputs": [],
      "name": "INVALID_INDEX",
      "outputs": [
        {
          "name": "",
          "type": "uint256"
        }
      ],
      "payable": false,
      "stateMutability": "view",
      "type": "function"
    },
    {
      "inputs": [],
      "payable": false,
      "stateMutability": "nonpayable",
      "type": "constructor"
    },
    {
      "constant": true,
      "inputs": [
        {
          "name": "source",
          "type": "string"
        }
      ],
      "name": "stringToBytes32",
      "outputs": [
        {
          "name": "result",
          "type": "bytes32"
        }
      ],
      "payable": false,
      "stateMutability": "pure",
      "type": "function"
    },
    {
      "constant": false,
      "inputs": [
        {
          "name": "_teamName",
          "type": "string"
        },
        {
          "name": "_top",
          "type": "string"
        },
        {
          "name": "_jug",
          "type": "string"
        },
        {
          "name": "_mid",
          "type": "string"
        },
        {
          "name": "_adc",
          "type": "string"
        },
        {
          "name": "_sup",
          "type": "string"
        }
      ],
      "name": "setTeam",
      "outputs": [],
      "payable": false,
      "stateMutability": "nonpayable",
      "type": "function"
    },
    {
      "constant": true,
      "inputs": [
        {
          "name": "_teamName",
          "type": "string"
        }
      ],
      "name": "getTeamDataByTeamName",
      "outputs": [
        {
          "name": "",
          "type": "string"
        },
        {
          "name": "",
          "type": "string"
        },
        {
          "name": "",
          "type": "string"
        },
        {
          "name": "",
          "type": "string"
        },
        {
          "name": "",
          "type": "string"
        },
        {
          "name": "",
          "type": "string"
        }
      ],
      "payable": false,
      "stateMutability": "view",
      "type": "function"
    },
    {
      "constant": true,
      "inputs": [
        {
          "name": "_teamName",
          "type": "string"
        }
      ],
      "name": "getTeamWeightByTeamName",
      "outputs": [
        {
          "name": "",
          "type": "uint256"
        }
      ],
      "payable": false,
      "stateMutability": "view",
      "type": "function"
    }
  ],
  "bytecode": "0x608060405269d3c21bcecceda10000006000556012600160006101000a81548160ff021916908360ff1602179055506040805190810160405280600981526020017f6c6f6c20746f6b656e0000000000000000000000000000000000000000000000815250600290805190602001906200007b9291906200014e565b506040805190810160405280600281526020017f6c7400000000000000000000000000000000000000000000000000000000000081525060039080519060200190620000c99291906200014e565b506064600755600754600b556000600c556000600d55348015620000ec57600080fd5b5033600460006101000a81548173ffffffffffffffffffffffffffffffffffffffff021916908373ffffffffffffffffffffffffffffffffffffffff160217905550600754600a600080815260200190815260200160002081905550620001fd565b828054600181600116156101000203166002900490600052602060002090601f016020900481019282601f106200019157805160ff1916838001178555620001c2565b82800160010185558215620001c2579182015b82811115620001c1578251825591602001919060010190620001a4565b5b509050620001d19190620001d5565b5090565b620001fa91905b80821115620001f6576000816000905550600101620001dc565b5090565b90565b61234f806200020d6000396000f3fe6080604052600436106100f6576000357c01000000000000000000000000000000000000000000000000000000009004806306fdde03146100fb57806318160ddd1461018b5780632d82ee8b146101b6578063313ce56714610250578063377b47a3146102815780633ed2b77a146102985780634a0e2bc014610568578063548e0ae5146105b757806370a082311461061c5780638262bafc1461068157806384ab8bb81461099c5780638da5cb5b14610a0157806395d89b4114610a58578063cfb5192814610ae8578063ded9468814610bc4578063dfb826b114610c1b578063ed5225ef14610c6a578063fc7d666714610e99575b600080fd5b34801561010757600080fd5b50610110610ec4565b6040518080602001828103825283818151815260200191508051906020019080838360005b83811015610150578082015181840152602081019050610135565b50505050905090810190601f16801561017d5780820380516001836020036101000a031916815260200191505b509250505060405180910390f35b34801561019757600080fd5b506101a0610f62565b6040518082815260200191505060405180910390f35b3480156101c257600080fd5b5061023a600480360360208110156101d957600080fd5b81019080803590602001906401000000008111156101f657600080fd5b82018360208201111561020857600080fd5b8035906020019184600183028401116401000000008311171561022a57600080fd5b9091929391929390505050610f68565b6040518082815260200191505060405180910390f35b34801561025c57600080fd5b50610265610fd2565b604051808260ff1660ff16815260200191505060405180910390f35b34801561028d57600080fd5b50610296610fe5565b005b3480156102a457600080fd5b506102d1600480360360208110156102bb57600080fd5b810190808035906020019092919050505061124a565b6040518080602001806020018060200180602001806020018060200187810387528d818151815260200191508051906020019080838360005b8381101561032557808201518184015260208101905061030a565b50505050905090810190601f1680156103525780820380516001836020036101000a031916815260200191505b5087810386528c818151815260200191508051906020019080838360005b8381101561038b578082015181840152602081019050610370565b50505050905090810190601f1680156103b85780820380516001836020036101000a031916815260200191505b5087810385528b818151815260200191508051906020019080838360005b838110156103f15780820151818401526020810190506103d6565b50505050905090810190601f16801561041e5780820380516001836020036101000a031916815260200191505b5087810384528a818151815260200191508051906020019080838360005b8381101561045757808201518184015260208101905061043c565b50505050905090810190601f1680156104845780820380516001836020036101000a031916815260200191505b50878103835289818151815260200191508051906020019080838360005b838110156104bd5780820151818401526020810190506104a2565b50505050905090810190601f1680156104ea5780820380516001836020036101000a031916815260200191505b50878103825288818151815260200191508051906020019080838360005b83811015610523578082015181840152602081019050610508565b50505050905090810190601f1680156105505780820380516001836020036101000a031916815260200191505b509c5050505050505050505050505060405180910390f35b34801561057457600080fd5b506105a16004803603602081101561058b57600080fd5b8101908080359060200190929190505050611625565b6040518082815260200191505060405180910390f35b3480156105c357600080fd5b50610606600480360360208110156105da57600080fd5b81019080803573ffffffffffffffffffffffffffffffffffffffff16906020019092919050505061163d565b6040518082815260200191505060405180910390f35b34801561062857600080fd5b5061066b6004803603602081101561063f57600080fd5b81019080803573ffffffffffffffffffffffffffffffffffffffff169060200190929190505050611689565b6040518082815260200191505060405180910390f35b34801561068d57600080fd5b50610705600480360360208110156106a457600080fd5b81019080803590602001906401000000008111156106c157600080fd5b8201836020820111156106d357600080fd5b803590602001918460018302840111640100000000831117156106f557600080fd5b90919293919293905050506116d5565b6040518080602001806020018060200180602001806020018060200187810387528d818151815260200191508051906020019080838360005b8381101561075957808201518184015260208101905061073e565b50505050905090810190601f1680156107865780820380516001836020036101000a031916815260200191505b5087810386528c818151815260200191508051906020019080838360005b838110156107bf5780820151818401526020810190506107a4565b50505050905090810190601f1680156107ec5780820380516001836020036101000a031916815260200191505b5087810385528b818151815260200191508051906020019080838360005b8381101561082557808201518184015260208101905061080a565b50505050905090810190601f1680156108525780820380516001836020036101000a031916815260200191505b5087810384528a818151815260200191508051906020019080838360005b8381101561088b578082015181840152602081019050610870565b50505050905090810190601f1680156108b85780820380516001836020036101000a031916815260200191505b50878103835289818151815260200191508051906020019080838360005b838110156108f15780820151818401526020810190506108d6565b50505050905090810190601f16801561091e5780820380516001836020036101000a031916815260200191505b50878103825288818151815260200191508051906020019080838360005b8381101561095757808201518184015260208101905061093c565b50505050905090810190601f1680156109845780820380516001836020036101000a031916815260200191505b509c5050505050505050505050505060405180910390f35b3480156109a857600080fd5b506109eb600480360360208110156109bf57600080fd5b81019080803573ffffffffffffffffffffffffffffffffffffffff169060200190929190505050611bf0565b6040518082815260200191505060405180910390f35b348015610a0d57600080fd5b50610a16611c3c565b604051808273ffffffffffffffffffffffffffffffffffffffff1673ffffffffffffffffffffffffffffffffffffffff16815260200191505060405180910390f35b348015610a6457600080fd5b50610a6d611c62565b6040518080602001828103825283818151815260200191508051906020019080838360005b83811015610aad578082015181840152602081019050610a92565b50505050905090810190601f168015610ada5780820380516001836020036101000a031916815260200191505b509250505060405180910390f35b348015610af457600080fd5b50610bae60048036036020811015610b0b57600080fd5b8101908080359060200190640100000000811115610b2857600080fd5b820183602082011115610b3a57600080fd5b80359060200191846001830284011164010000000083111715610b5c57600080fd5b91908080601f016020809104026020016040519081016040528093929190818152602001838380828437600081840152601f19601f820116905080830192505050505050509192919290505050611d00565b6040518082815260200191505060405180910390f35b348015610bd057600080fd5b50610bd9611d2c565b604051808273ffffffffffffffffffffffffffffffffffffffff1673ffffffffffffffffffffffffffffffffffffffff16815260200191505060405180910390f35b348015610c2757600080fd5b50610c5460048036036020811015610c3e57600080fd5b8101908080359060200190929190505050611d56565b6040518082815260200191505060405180910390f35b348015610c7657600080fd5b50610e97600480360360c0811015610c8d57600080fd5b8101908080359060200190640100000000811115610caa57600080fd5b820183602082011115610cbc57600080fd5b80359060200191846001830284011164010000000083111715610cde57600080fd5b909192939192939080359060200190640100000000811115610cff57600080fd5b820183602082011115610d1157600080fd5b80359060200191846001830284011164010000000083111715610d3357600080fd5b909192939192939080359060200190640100000000811115610d5457600080fd5b820183602082011115610d6657600080fd5b80359060200191846001830284011164010000000083111715610d8857600080fd5b909192939192939080359060200190640100000000811115610da957600080fd5b820183602082011115610dbb57600080fd5b80359060200191846001830284011164010000000083111715610ddd57600080fd5b909192939192939080359060200190640100000000811115610dfe57600080fd5b820183602082011115610e1057600080fd5b80359060200191846001830284011164010000000083111715610e3257600080fd5b909192939192939080359060200190640100000000811115610e5357600080fd5b820183602082011115610e6557600080fd5b80359060200191846001830284011164010000000083111715610e8757600080fd5b9091929391929390505050611d6e565b005b348015610ea557600080fd5b50610eae61221c565b6040518082815260200191505060405180910390f35b60028054600181600116156101000203166002900480601f016020809104026020016040519081016040528092919081815260200182805460018160011615610100020316600290048015610f5a5780601f10610f2f57610100808354040283529160200191610f5a565b820191906000526020600020905b815481529060010190602001808311610f3d57829003601f168201915b505050505081565b60005481565b600060096000610fbb85858080601f016020809104026020016040519081016040528093929190818152602001838380828437600081840152601f19601f82011690508083019250505050505050612222565b815260200190815260200160002054905092915050565b600160009054906101000a900460ff1681565b600660003373ffffffffffffffffffffffffffffffffffffffff1673ffffffffffffffffffffffffffffffffffffffff16815260200190815260200160002060009054906101000a900460ff161515156110a7576040517f08c379a000000000000000000000000000000000000000000000000000000000815260040180806020018281038252601b8152602001807f596f75206861766520616c72656164792072656769737465726564000000000081525060200191505060405180910390fd5b678ac7230489e8000060005410151515611129576040517f08c379a00000000000000000000000000000000000000000000000000000000081526004018080602001828103825260178152602001807f4e6f7420656e6f75676820746f74616c537570706c792100000000000000000081525060200191505060405180910390fd5b6001600660003373ffffffffffffffffffffffffffffffffffffffff1673ffffffffffffffffffffffffffffffffffffffff16815260200190815260200160002060006101000a81548160ff021916908315150217905550608060405190810160405280678ac7230489e80000815260200160001515815260200160075481526020016000815250600560003373ffffffffffffffffffffffffffffffffffffffff1673ffffffffffffffffffffffffffffffffffffffff1681526020019081526020016000206000820151816000015560208201518160010160006101000a81548160ff0219169083151502179055506040820151816002015560608201518160030155905050678ac7230489e800006000808282540392505081905550565b60088181548110151561125957fe5b9060005260206000209060060201600091509050806000018054600181600116156101000203166002900480601f0160208091040260200160405190810160405280929190818152602001828054600181600116156101000203166002900480156113055780601f106112da57610100808354040283529160200191611305565b820191906000526020600020905b8154815290600101906020018083116112e857829003601f168201915b505050505090806001018054600181600116156101000203166002900480601f0160208091040260200160405190810160405280929190818152602001828054600181600116156101000203166002900480156113a35780601f10611378576101008083540402835291602001916113a3565b820191906000526020600020905b81548152906001019060200180831161138657829003601f168201915b505050505090806002018054600181600116156101000203166002900480601f0160208091040260200160405190810160405280929190818152602001828054600181600116156101000203166002900480156114415780601f1061141657610100808354040283529160200191611441565b820191906000526020600020905b81548152906001019060200180831161142457829003601f168201915b505050505090806003018054600181600116156101000203166002900480601f0160208091040260200160405190810160405280929190818152602001828054600181600116156101000203166002900480156114df5780601f106114b4576101008083540402835291602001916114df565b820191906000526020600020905b8154815290600101906020018083116114c257829003601f168201915b505050505090806004018054600181600116156101000203166002900480601f01602080910402602001604051908101604052809291908181526020018280546001816001161561010002031660029004801561157d5780601f106115525761010080835404028352916020019161157d565b820191906000526020600020905b81548152906001019060200180831161156057829003601f168201915b505050505090806005018054600181600116156101000203166002900480601f01602080910402602001604051908101604052809291908181526020018280546001816001161561010002031660029004801561161b5780601f106115f05761010080835404028352916020019161161b565b820191906000526020600020905b8154815290600101906020018083116115fe57829003601f168201915b5050505050905086565b600a6020528060005260406000206000915090505481565b6000600560008373ffffffffffffffffffffffffffffffffffffffff1673ffffffffffffffffffffffffffffffffffffffff168152602001908152602001600020600201549050919050565b6000600560008373ffffffffffffffffffffffffffffffffffffffff1673ffffffffffffffffffffffffffffffffffffffff168152602001908152602001600020600001549050919050565b606080606080606080600061172d89898080601f016020809104026020016040519081016040528093929190818152602001838380828437600081840152601f19601f82011690508083019250505050505050612222565b905060075481141515156117a9576040517f08c379a00000000000000000000000000000000000000000000000000000000081526004018080602001828103825260118152602001807f496e76616c6964207465616d206e616d6500000000000000000000000000000081525060200191505060405180910390fd5b6117b1612247565b6008828154811015156117c057fe5b906000526020600020906006020160c06040519081016040529081600082018054600181600116156101000203166002900480601f0160208091040260200160405190810160405280929190818152602001828054600181600116156101000203166002900480156118735780601f1061184857610100808354040283529160200191611873565b820191906000526020600020905b81548152906001019060200180831161185657829003601f168201915b50505050508152602001600182018054600181600116156101000203166002900480601f0160208091040260200160405190810160405280929190818152602001828054600181600116156101000203166002900480156119155780601f106118ea57610100808354040283529160200191611915565b820191906000526020600020905b8154815290600101906020018083116118f857829003601f168201915b50505050508152602001600282018054600181600116156101000203166002900480601f0160208091040260200160405190810160405280929190818152602001828054600181600116156101000203166002900480156119b75780601f1061198c576101008083540402835291602001916119b7565b820191906000526020600020905b81548152906001019060200180831161199a57829003601f168201915b50505050508152602001600382018054600181600116156101000203166002900480601f016020809104026020016040519081016040528092919081815260200182805460018160011615610100020316600290048015611a595780601f10611a2e57610100808354040283529160200191611a59565b820191906000526020600020905b815481529060010190602001808311611a3c57829003601f168201915b50505050508152602001600482018054600181600116156101000203166002900480601f016020809104026020016040519081016040528092919081815260200182805460018160011615610100020316600290048015611afb5780601f10611ad057610100808354040283529160200191611afb565b820191906000526020600020905b815481529060010190602001808311611ade57829003601f168201915b50505050508152602001600582018054600181600116156101000203166002900480601f016020809104026020016040519081016040528092919081815260200182805460018160011615610100020316600290048015611b9d5780601f10611b7257610100808354040283529160200191611b9d565b820191906000526020600020905b815481529060010190602001808311611b8057829003601f168201915b5050505050815250509050806000015181602001518260400151836060015184608001518560a0015185955084945083935082925081915080905097509750975097509750975050509295509295509295565b6000600560008373ffffffffffffffffffffffffffffffffffffffff1673ffffffffffffffffffffffffffffffffffffffff168152602001908152602001600020600301549050919050565b600460009054906101000a900473ffffffffffffffffffffffffffffffffffffffff1681565b60038054600181600116156101000203166002900480601f016020809104026020016040519081016040528092919081815260200182805460018160011615610100020316600290048015611cf85780601f10611ccd57610100808354040283529160200191611cf8565b820191906000526020600020905b815481529060010190602001808311611cdb57829003601f168201915b505050505081565b60006060829050600081511415611d1e576000600102915050611d27565b60208301519150505b919050565b6000600460009054906101000a900473ffffffffffffffffffffffffffffffffffffffff16905090565b60096020528060005260406000206000915090505481565b600460009054906101000a900473ffffffffffffffffffffffffffffffffffffffff1673ffffffffffffffffffffffffffffffffffffffff163373ffffffffffffffffffffffffffffffffffffffff16141515611dca57600080fd5b60008c8c9050111515611e45576040517f08c379a00000000000000000000000000000000000000000000000000000000081526004018080602001828103825260198152602001807f5465616d206e616d652063616e6e6f7420626520656d7074790000000000000081525060200191505060405180910390fd5b6000611e948d8d8080601f016020809104026020016040519081016040528093929190818152602001838380828437600081840152601f19601f82011690508083019250505050505050611d00565b90506000600a600083815260200190815260200160002054141515611f21576040517f08c379a00000000000000000000000000000000000000000000000000000000081526004018080602001828103825260188152602001807f5465616d206e616d6520616c726561647920657869737473000000000000000081525060200191505060405180910390fd5b611f29612247565b60c0604051908101604052808f8f8080601f016020809104026020016040519081016040528093929190818152602001838380828437600081840152601f19601f8201169050808301925050505050505081526020018d8d8080601f016020809104026020016040519081016040528093929190818152602001838380828437600081840152601f19601f8201169050808301925050505050505081526020018b8b8080601f016020809104026020016040519081016040528093929190818152602001838380828437600081840152601f19601f82011690508083019250505050505050815260200189898080601f016020809104026020016040519081016040528093929190818152602001838380828437600081840152601f19601f82011690508083019250505050505050815260200187878080601f016020809104026020016040519081016040528093929190818152602001838380828437600081840152601f19601f82011690508083019250505050505050815260200185858080601f016020809104026020016040519081016040528093929190818152602001838380828437600081840152601f19601f8201169050808301925050505050505081525090506000600880549050905060088290806001815401808255809150509060018203906000526020600020906006020160009091929091909150600082015181600001908051906020019061214592919061227e565b50602082015181600101908051906020019061216292919061227e565b50604082015181600201908051906020019061217f92919061227e565b50606082015181600301908051906020019061219c92919061227e565b5060808201518160040190805190602001906121b992919061227e565b5060a08201518160050190805190602001906121d692919061227e565b5050505080600a60008581526020019081526020016000208190555060006009600083815260200190815260200160002081905550505050505050505050505050505050565b60075481565b6000600a600061223184611d00565b8152602001908152602001600020549050919050565b60c0604051908101604052806060815260200160608152602001606081526020016060815260200160608152602001606081525090565b828054600181600116156101000203166002900490600052602060002090601f016020900481019282601f106122bf57805160ff19168380011785556122ed565b828001600101855582156122ed579182015b828111156122ec5782518255916020019190600101906122d1565b5b5090506122fa91906122fe565b5090565b61232091905b8082111561231c576000816000905550600101612304565b5090565b9056fea165627a7a72305820163889095aa6cb552728bc02e7d1d3fbf166a64d22148ebfbc8a74bc530dcb1f0029",
  "source": "// SPDX-License-Identifier: MIT\npragma solidity >=0.4.22 <0.9.0;\nimport './Token.sol';\n\n// SetTeam.sol\ncontract SetTeam is Token {\n    //  Team      gas ,   .\n    // react json    , \n    //  struct team data \n    struct Team {\n        // Name of the team\n        string teamName;\n        // players\n        string top;\n        string jug;\n        string mid;\n        string adc;\n        string sup;\n    }\n    Team[] public teams;\n    mapping(uint => uint) public teamWeight;    // Team Index -> team Weight\n    mapping(bytes32 => uint) public teamIndex;   \n    \n    //   index  . Vote.sol gameEnd()   .\n    // default : invalid index\n    uint winnerTeamIndex = INVALID_INDEX;\n\n    //    .          \n    //     \n    uint bettingTotalBalance = 0;   \n    uint winnerTeamPureBalance = 0;   \n\n    // msg.sender owner(ganache  )     \n    modifier onlyOwner() {\n        require(msg.sender == owner);\n        _;\n    }\n\n    constructor () public {\n        teamIndex[\"\"] = INVALID_INDEX;\n    }\n\n    function stringToBytes32(string memory source) public pure returns (bytes32 result) {\n        bytes memory tempEmptyStringTest = bytes(source);\n        if (tempEmptyStringTest.length == 0) {\n            return 0x0;\n        }\n\n        assembly {\n            result := mload(add(source, 32))\n        }\n    }\n\n    function setTeam(string calldata _teamName, string calldata _top, string calldata _jug, string calldata _mid, string calldata _adc, string calldata _sup) external onlyOwner {\n        //    \n        require(bytes(_teamName).length > 0, \"Team name cannot be empty\");\n\n        bytes32 teamNameHash = stringToBytes32(_teamName);\n\n        //  teamName  \n        require(teamIndex[teamNameHash] == 0, \"Team name already exists\");\n\n        //   Team  \n        Team memory newTeam = Team({\n            teamName: _teamName,\n            top: _top,\n            jug: _jug,\n            mid: _mid,\n            adc: _adc,\n            sup: _sup\n        });\n        // teamIndex \n        uint _teamIndex = teams.length;\n        //   (   index   )\n        teams.push(newTeam);    \n\n        // teamIndex mapping      \n        teamIndex[teamNameHash] = _teamIndex;\n        // team   0 \n        // !  : mapping  0 ,   0   ?\n        teamWeight[_teamIndex] = 0;\n    }\n    // function setTeam(string calldata _teamName, string calldata _top, string calldata _jug, string calldata _mid, string calldata _adc, string calldata _sup) external onlyOwner {\n    //     //    \n    //     require(bytes(_teamName).length > 0, \"Team name cannot be empty\");\n\n    //     //  teamName  \n    //     require(teamIndex[_teamName] == 0, \"Team name already exists\");\n\n    //     //   Team  \n    //     Team memory newTeam = Team({\n    //         teamName: _teamName,\n    //         top: _top,\n    //         jug: _jug,\n    //         mid: _mid,\n    //         adc: _adc,\n    //         sup: _sup\n    //     });\n    //     // teamIndex \n    //     uint _teamIndex = teams.length;\n    //     //   (   index   )\n    //     teams.push(newTeam);    \n\n    //     // teamIndex mapping      \n    //     teamIndex[_teamName] = _teamIndex;\n    //     // team   0 \n    //     // !  : mapping  0 ,   0   ?\n    //     teamWeight[_teamIndex] = 0;\n    // }\n\n    // Vote.sol   ,    index \n    // function getTeamIndexByTeamName(string memory _teamName) internal view returns (uint) {\n    //     return teamIndex[_teamName];\n    // }\n\n    function getTeamIndexByTeamName(string memory _teamName) internal view returns (uint) {\n        return teamIndex[stringToBytes32(_teamName)];\n    }\n\n    // React  (,  )   \n    // function getTeamDataByTeamName(string calldata  _teamName) external view returns (string memory, string memory, string memory, string memory, string memory, string memory) {\n    //     uint _teamIndex = getTeamIndexByTeamName(_teamName);\n    //     require(_teamIndex != INVALID_INDEX, \"Invalid team name\"); // check name\n\n    //     Team memory team = teams[_teamIndex];\n    //     return (team.teamName, team.top, team.jug, team.mid, team.adc, team.sup);\n    // }\n    function getTeamDataByTeamName(string calldata  _teamName) external view returns (string memory, string memory, string memory, string memory, string memory, string memory) {\n        uint _teamIndex = getTeamIndexByTeamName(_teamName);\n        require(_teamIndex != INVALID_INDEX, \"Invalid team name\"); // check name\n\n        Team memory team = teams[_teamIndex];\n        return (team.teamName, team.top, team.jug, team.mid, team.adc, team.sup);\n    }\n\n    // Vote.sol .      \n    // function getTeamWeightByTeamName(string calldata _teamName) external view returns (uint) {\n    //     return teamWeight[getTeamIndexByTeamName(_teamName)];\n    // }\n\n    function getTeamWeightByTeamName(string calldata _teamName) external view returns (uint) {\n        return teamWeight[getTeamIndexByTeamName(_teamName)];\n    }\n}\n",
  "sourcePath": "/home/minkun/vote-main/src/contracts/SetTeam.sol",
  "compiler": {
    "name": "solc",
    "version": "0.5.1+commit.c8a2cb62.Emscripten.clang"
  },
  "schemaVersion": "3.4.14",
  "updatedAt": "2023-08-02T06:46:31.198Z",
  "networkType": "ethereum",
  "devdoc": {
    "methods": {}
  },
  "userdoc": {
    "methods": {}
  }
}