{
  "contractName": "Token",
  "abi": [
    {
      "constant": true,
      "inputs": [],
      "name": "name",
      "outputs": [
        {
          "name": "",
          "type": "string"
        }
      ],
      "payable": false,
      "stateMutability": "view",
      "type": "function"
    },
    {
      "constant": true,
      "inputs": [],
      "name": "totalSupply",
      "outputs": [
        {
          "name": "",
          "type": "uint256"
        }
      ],
      "payable": false,
      "stateMutability": "view",
      "type": "function"
    },
    {
      "constant": true,
      "inputs": [],
      "name": "decimals",
      "outputs": [
        {
          "name": "",
          "type": "uint8"
        }
      ],
      "payable": false,
      "stateMutability": "view",
      "type": "function"
    },
    {
      "constant": true,
      "inputs": [],
      "name": "owner",
      "outputs": [
        {
          "name": "",
          "type": "address"
        }
      ],
      "payable": false,
      "stateMutability": "view",
      "type": "function"
    },
    {
      "constant": true,
      "inputs": [],
      "name": "symbol",
      "outputs": [
        {
          "name": "",
          "type": "string"
        }
      ],
      "payable": false,
      "stateMutability": "view",
      "type": "function"
    },
    {
      "inputs": [],
      "payable": false,
      "stateMutability": "nonpayable",
      "type": "constructor"
    },
    {
      "constant": true,
      "inputs": [
        {
          "name": "_address",
          "type": "address"
        }
      ],
      "name": "balanceOf",
      "outputs": [
        {
          "name": "",
          "type": "uint256"
        }
      ],
      "payable": false,
      "stateMutability": "view",
      "type": "function"
    },
    {
      "constant": true,
      "inputs": [
        {
          "name": "_address",
          "type": "address"
        }
      ],
      "name": "voteBalanceOf",
      "outputs": [
        {
          "name": "",
          "type": "uint256"
        }
      ],
      "payable": false,
      "stateMutability": "view",
      "type": "function"
    },
    {
      "constant": true,
      "inputs": [
        {
          "name": "_address",
          "type": "address"
        }
      ],
      "name": "getUserVotedTeamName",
      "outputs": [
        {
          "name": "",
          "type": "bytes32"
        }
      ],
      "payable": false,
      "stateMutability": "view",
      "type": "function"
    },
    {
      "constant": false,
      "inputs": [],
      "name": "logIn",
      "outputs": [],
      "payable": false,
      "stateMutability": "nonpayable",
      "type": "function"
    },
    {
      "constant": true,
      "inputs": [],
      "name": "showOwner",
      "outputs": [
        {
          "name": "",
          "type": "address"
        }
      ],
      "payable": false,
      "stateMutability": "view",
      "type": "function"
    }
  ],
  "bytecode": "0x608060405269d3c21bcecceda10000006000556012600160006101000a81548160ff021916908360ff1602179055506040805190810160405280600981526020017f6c6f6c20746f6b656e000000000000000000000000000000000000000000000081525060029080519060200190610079929190610119565b506040805190810160405280600281526020017f6c74000000000000000000000000000000000000000000000000000000000000815250600390805190602001906100c5929190610119565b503480156100d257600080fd5b5033600460006101000a81548173ffffffffffffffffffffffffffffffffffffffff021916908373ffffffffffffffffffffffffffffffffffffffff1602179055506101be565b828054600181600116156101000203166002900490600052602060002090601f016020900481019282601f1061015a57805160ff1916838001178555610188565b82800160010185558215610188579182015b8281111561018757825182559160200191906001019061016c565b5b5090506101959190610199565b5090565b6101bb91905b808211156101b757600081600090555060010161019f565b5090565b90565b61092f806101cd6000396000f3fe60806040526004361061009e576000357c01000000000000000000000000000000000000000000000000000000009004806306fdde03146100a357806318160ddd14610133578063313ce5671461015e578063377b47a31461018f57806370a08231146101a6578063792f97ae1461020b57806384ab8bb8146102705780638da5cb5b146102d557806395d89b411461032c578063ded94688146103bc575b600080fd5b3480156100af57600080fd5b506100b8610413565b6040518080602001828103825283818151815260200191508051906020019080838360005b838110156100f85780820151818401526020810190506100dd565b50505050905090810190601f1680156101255780820380516001836020036101000a031916815260200191505b509250505060405180910390f35b34801561013f57600080fd5b506101486104b1565b6040518082815260200191505060405180910390f35b34801561016a57600080fd5b506101736104b7565b604051808260ff1660ff16815260200191505060405180910390f35b34801561019b57600080fd5b506101a46104ca565b005b3480156101b257600080fd5b506101f5600480360360208110156101c957600080fd5b81019080803573ffffffffffffffffffffffffffffffffffffffff169060200190929190505050610731565b6040518082815260200191505060405180910390f35b34801561021757600080fd5b5061025a6004803603602081101561022e57600080fd5b81019080803573ffffffffffffffffffffffffffffffffffffffff16906020019092919050505061077d565b6040518082815260200191505060405180910390f35b34801561027c57600080fd5b506102bf6004803603602081101561029357600080fd5b81019080803573ffffffffffffffffffffffffffffffffffffffff1690602001909291905050506107c9565b6040518082815260200191505060405180910390f35b3480156102e157600080fd5b506102ea610815565b604051808273ffffffffffffffffffffffffffffffffffffffff1673ffffffffffffffffffffffffffffffffffffffff16815260200191505060405180910390f35b34801561033857600080fd5b5061034161083b565b6040518080602001828103825283818151815260200191508051906020019080838360005b83811015610381578082015181840152602081019050610366565b50505050905090810190601f1680156103ae5780820380516001836020036101000a031916815260200191505b509250505060405180910390f35b3480156103c857600080fd5b506103d16108d9565b604051808273ffffffffffffffffffffffffffffffffffffffff1673ffffffffffffffffffffffffffffffffffffffff16815260200191505060405180910390f35b60028054600181600116156101000203166002900480601f0160208091040260200160405190810160405280929190818152602001828054600181600116156101000203166002900480156104a95780601f1061047e576101008083540402835291602001916104a9565b820191906000526020600020905b81548152906001019060200180831161048c57829003601f168201915b505050505081565b60005481565b600160009054906101000a900460ff1681565b600660003373ffffffffffffffffffffffffffffffffffffffff1673ffffffffffffffffffffffffffffffffffffffff16815260200190815260200160002060009054906101000a900460ff1615151561058c576040517f08c379a000000000000000000000000000000000000000000000000000000000815260040180806020018281038252601b8152602001807f596f75206861766520616c72656164792072656769737465726564000000000081525060200191505060405180910390fd5b678ac7230489e800006000541015151561060e576040517f08c379a00000000000000000000000000000000000000000000000000000000081526004018080602001828103825260178152602001807f4e6f7420656e6f75676820746f74616c537570706c792100000000000000000081525060200191505060405180910390fd5b6001600660003373ffffffffffffffffffffffffffffffffffffffff1673ffffffffffffffffffffffffffffffffffffffff16815260200190815260200160002060006101000a81548160ff021916908315150217905550608060405190810160405280678ac7230489e800008152602001600015158152602001600080191681526020016000815250600560003373ffffffffffffffffffffffffffffffffffffffff1673ffffffffffffffffffffffffffffffffffffffff1681526020019081526020016000206000820151816000015560208201518160010160006101000a81548160ff0219169083151502179055506040820151816002015560608201518160030155905050678ac7230489e800006000808282540392505081905550565b6000600560008373ffffffffffffffffffffffffffffffffffffffff1673ffffffffffffffffffffffffffffffffffffffff168152602001908152602001600020600001549050919050565b6000600560008373ffffffffffffffffffffffffffffffffffffffff1673ffffffffffffffffffffffffffffffffffffffff168152602001908152602001600020600201549050919050565b6000600560008373ffffffffffffffffffffffffffffffffffffffff1673ffffffffffffffffffffffffffffffffffffffff168152602001908152602001600020600301549050919050565b600460009054906101000a900473ffffffffffffffffffffffffffffffffffffffff1681565b60038054600181600116156101000203166002900480601f0160208091040260200160405190810160405280929190818152602001828054600181600116156101000203166002900480156108d15780601f106108a6576101008083540402835291602001916108d1565b820191906000526020600020905b8154815290600101906020018083116108b457829003601f168201915b505050505081565b6000600460009054906101000a900473ffffffffffffffffffffffffffffffffffffffff1690509056fea165627a7a72305820dd3b39b50992b467f200a2fcbe3107a746b56ea11af778efce16d81a92203ea10029",
  "source": "// SPDX-License-Identifier: MIT\npragma solidity >=0.4.22 <0.9.0;\n// Token.sol\n// 주석에서 설명하는 토큰, 돈은 모두 같은 개념\n// 실제 배포용이 아닌 testnet에서 하는 것이기 때문에 가스비 제외하고는 실제 Eth를 사용하는 과정은 없음\ncontract Token {\n    uint256 public totalSupply = 1000000 * (10 ** 18);      // 총 토큰 발행량\n    uint8 public decimals = 18;                             // 소수점 자리 수\n    string public name = 'lol token';                       // 토큰 이름\n    string public symbol = 'lt';                            // 단위\n    address public owner;                                   // owner 주소(constructor에 의해서 정해짐)\n\n    struct User {\n        uint256 balance;    // user의 돈\n        bool voted;         // 한 팀에 베팅하면, 추가 베팅을 못하게 하는 변수\n        bytes32 teamName;     // user가 베팅한 팀명( hashed by function stringToBytes32() )\n        uint voteBalance;   // 그 팀에 얼마를 박았는가?(박은 비율에 따라서 돈을 되돌려주기 때문에 설정했음)\n    }\n\n\n    mapping(address => User) userData;          // struct User에 접근하기 위해서 설정\n    mapping(address => bool) registeredUsers;   // logIn()함수가 계좌당 한 번만 실행되기 위해서 설정\n\n\n    constructor () public {                            // owner 값 저장해둠\n        owner = msg.sender;\n    }    \n\n    // 주소에 따른 잔액을 표시\n    function balanceOf(address _address) view public returns(uint) {\n        return userData[_address].balance;\n    }\n    // 주소에 따른 베팅금액 표시\n    function voteBalanceOf(address _address) view public returns(uint) {\n        return userData[_address].voteBalance;\n    }\n    // 주소에 따른 베팅을 한 팀명 표시\n    function getUserVotedTeamName(address _address) view public returns(bytes32) {\n        return userData[_address].teamName;\n    }\n\n\n    function logIn() public {\n        // logIn()은 한 번만 실행될 수 있음(by mapping -> registeredUsers)\n        // 토큰 총 발행량을 넘어서는 유저의 수는 안됨\n        require(!registeredUsers[msg.sender], 'You have already registered');\n        require(totalSupply >= 10 * (10 ** 18), 'Not enough totalSupply!');\n        registeredUsers[msg.sender] = true;\n\n        // user에게 기본 자본, 투표권 등 지급 및 세팅 설정\n        userData[msg.sender] = User({\n            balance: 10 * (10 ** 18),\n            voted: false,\n            teamName: '',\n            voteBalance: 0\n        });\n        totalSupply -= 10 * (10 ** 18);\n    }\n\n    // 없어도 됨. react에서 owner의 주소를 잘 받아오는지 표기하기 위해서 인위적으로 만들었음\n    function showOwner() public view returns(address) {\n        return owner;\n    }\n}",
  "sourcePath": "/home/minkun/vote-main/src/contracts/Token.sol",
  "compiler": {
    "name": "solc",
    "version": "0.5.1+commit.c8a2cb62.Emscripten.clang"
  },
  "schemaVersion": "3.4.14",
  "updatedAt": "2023-08-03T11:24:34.065Z",
  "networkType": "ethereum",
  "devdoc": {
    "methods": {}
  },
  "userdoc": {
    "methods": {}
  }
}