{
  "contractName": "Token",
  "abi": [
    {
      "inputs": [],
      "stateMutability": "nonpayable",
      "type": "constructor"
    },
    {
      "inputs": [],
      "name": "decimals",
      "outputs": [
        {
          "internalType": "uint8",
          "name": "",
          "type": "uint8"
        }
      ],
      "stateMutability": "view",
      "type": "function",
      "constant": true
    },
    {
      "inputs": [],
      "name": "name",
      "outputs": [
        {
          "internalType": "string",
          "name": "",
          "type": "string"
        }
      ],
      "stateMutability": "view",
      "type": "function",
      "constant": true
    },
    {
      "inputs": [],
      "name": "owner",
      "outputs": [
        {
          "internalType": "address",
          "name": "",
          "type": "address"
        }
      ],
      "stateMutability": "view",
      "type": "function",
      "constant": true
    },
    {
      "inputs": [],
      "name": "symbol",
      "outputs": [
        {
          "internalType": "string",
          "name": "",
          "type": "string"
        }
      ],
      "stateMutability": "view",
      "type": "function",
      "constant": true
    },
    {
      "inputs": [],
      "name": "totalSupply",
      "outputs": [
        {
          "internalType": "uint256",
          "name": "",
          "type": "uint256"
        }
      ],
      "stateMutability": "view",
      "type": "function",
      "constant": true
    },
    {
      "inputs": [
        {
          "internalType": "address",
          "name": "_address",
          "type": "address"
        }
      ],
      "name": "balanceOf",
      "outputs": [
        {
          "internalType": "uint256",
          "name": "",
          "type": "uint256"
        }
      ],
      "stateMutability": "view",
      "type": "function",
      "constant": true
    },
    {
      "inputs": [
        {
          "internalType": "address",
          "name": "_address",
          "type": "address"
        }
      ],
      "name": "voteBalanceOf",
      "outputs": [
        {
          "internalType": "uint256",
          "name": "",
          "type": "uint256"
        }
      ],
      "stateMutability": "view",
      "type": "function",
      "constant": true
    },
    {
      "inputs": [
        {
          "internalType": "address",
          "name": "_address",
          "type": "address"
        }
      ],
      "name": "getUserVotedTeamName",
      "outputs": [
        {
          "internalType": "bytes32",
          "name": "",
          "type": "bytes32"
        }
      ],
      "stateMutability": "view",
      "type": "function",
      "constant": true
    },
    {
      "inputs": [],
      "name": "logIn",
      "outputs": [
        {
          "internalType": "uint256",
          "name": "",
          "type": "uint256"
        }
      ],
      "stateMutability": "nonpayable",
      "type": "function"
    },
    {
      "inputs": [],
      "name": "showOwner",
      "outputs": [
        {
          "internalType": "address",
          "name": "",
          "type": "address"
        }
      ],
      "stateMutability": "view",
      "type": "function",
      "constant": true
    }
  ],
  "bytecode": "0x608060405269d3c21bcecceda10000006000556012600160006101000a81548160ff021916908360ff1602179055506040518060400160405280600981526020017f6c6f6c20746f6b656e0000000000000000000000000000000000000000000000815250600290816200007491906200038b565b506040518060400160405280600281526020017f6c7400000000000000000000000000000000000000000000000000000000000081525060039081620000bb91906200038b565b50348015620000c957600080fd5b5033600460006101000a81548173ffffffffffffffffffffffffffffffffffffffff021916908373ffffffffffffffffffffffffffffffffffffffff16021790555062000472565b600081519050919050565b7f4e487b7100000000000000000000000000000000000000000000000000000000600052604160045260246000fd5b7f4e487b7100000000000000000000000000000000000000000000000000000000600052602260045260246000fd5b600060028204905060018216806200019357607f821691505b602082108103620001a957620001a86200014b565b5b50919050565b60008190508160005260206000209050919050565b60006020601f8301049050919050565b600082821b905092915050565b600060088302620002137fffffffffffffffffffffffffffffffffffffffffffffffffffffffffffffffff82620001d4565b6200021f8683620001d4565b95508019841693508086168417925050509392505050565b6000819050919050565b6000819050919050565b60006200026c62000266620002608462000237565b62000241565b62000237565b9050919050565b6000819050919050565b62000288836200024b565b620002a0620002978262000273565b848454620001e1565b825550505050565b600090565b620002b7620002a8565b620002c48184846200027d565b505050565b5b81811015620002ec57620002e0600082620002ad565b600181019050620002ca565b5050565b601f8211156200033b576200030581620001af565b6200031084620001c4565b8101602085101562000320578190505b620003386200032f85620001c4565b830182620002c9565b50505b505050565b600082821c905092915050565b6000620003606000198460080262000340565b1980831691505092915050565b60006200037b83836200034d565b9150826002028217905092915050565b620003968262000111565b67ffffffffffffffff811115620003b257620003b16200011c565b5b620003be82546200017a565b620003cb828285620002f0565b600060209050601f831160018114620004035760008415620003ee578287015190505b620003fa85826200036d565b8655506200046a565b601f1984166200041386620001af565b60005b828110156200043d5784890151825560018201915060208501945060208101905062000416565b868310156200045d578489015162000459601f8916826200034d565b8355505b6001600288020188555050505b505050505050565b610a5d80620004826000396000f3fe608060405234801561001057600080fd5b506004361061009e5760003560e01c8063792f97ae11610066578063792f97ae1461014b57806384ab8bb81461017b5780638da5cb5b146101ab57806395d89b41146101c9578063ded94688146101e75761009e565b806306fdde03146100a357806318160ddd146100c1578063313ce567146100df578063377b47a3146100fd57806370a082311461011b575b600080fd5b6100ab610205565b6040516100b89190610711565b60405180910390f35b6100c9610293565b6040516100d6919061074c565b60405180910390f35b6100e7610299565b6040516100f49190610783565b60405180910390f35b6101056102ac565b604051610112919061074c565b60405180910390f35b61013560048036038101906101309190610801565b6104bf565b604051610142919061074c565b60405180910390f35b61016560048036038101906101609190610801565b61050b565b6040516101729190610847565b60405180910390f35b61019560048036038101906101909190610801565b610557565b6040516101a2919061074c565b60405180910390f35b6101b36105a3565b6040516101c09190610871565b60405180910390f35b6101d16105c9565b6040516101de9190610711565b60405180910390f35b6101ef610657565b6040516101fc9190610871565b60405180910390f35b60028054610212906108bb565b80601f016020809104026020016040519081016040528092919081815260200182805461023e906108bb565b801561028b5780601f106102605761010080835404028352916020019161028b565b820191906000526020600020905b81548152906001019060200180831161026e57829003601f168201915b505050505081565b60005481565b600160009054906101000a900460ff1681565b6000600660003373ffffffffffffffffffffffffffffffffffffffff1673ffffffffffffffffffffffffffffffffffffffff16815260200190815260200160002060009054906101000a900460ff161561033b576040517f08c379a000000000000000000000000000000000000000000000000000000000815260040161033290610938565b60405180910390fd5b678ac7230489e800006000541015610388576040517f08c379a000000000000000000000000000000000000000000000000000000000815260040161037f906109a4565b60405180910390fd5b6001600660003373ffffffffffffffffffffffffffffffffffffffff1673ffffffffffffffffffffffffffffffffffffffff16815260200190815260200160002060006101000a81548160ff0219169083151502179055506040518060800160405280678ac7230489e800008152602001600015158152602001600080191681526020016000815250600560003373ffffffffffffffffffffffffffffffffffffffff1673ffffffffffffffffffffffffffffffffffffffff1681526020019081526020016000206000820151816000015560208201518160010160006101000a81548160ff0219169083151502179055506040820151816002015560608201518160030155905050678ac7230489e800006000808282546104aa91906109f3565b925050819055506104ba336104bf565b905090565b6000600560008373ffffffffffffffffffffffffffffffffffffffff1673ffffffffffffffffffffffffffffffffffffffff168152602001908152602001600020600001549050919050565b6000600560008373ffffffffffffffffffffffffffffffffffffffff1673ffffffffffffffffffffffffffffffffffffffff168152602001908152602001600020600201549050919050565b6000600560008373ffffffffffffffffffffffffffffffffffffffff1673ffffffffffffffffffffffffffffffffffffffff168152602001908152602001600020600301549050919050565b600460009054906101000a900473ffffffffffffffffffffffffffffffffffffffff1681565b600380546105d6906108bb565b80601f0160208091040260200160405190810160405280929190818152602001828054610602906108bb565b801561064f5780601f106106245761010080835404028352916020019161064f565b820191906000526020600020905b81548152906001019060200180831161063257829003601f168201915b505050505081565b6000600460009054906101000a900473ffffffffffffffffffffffffffffffffffffffff16905090565b600081519050919050565b600082825260208201905092915050565b60005b838110156106bb5780820151818401526020810190506106a0565b60008484015250505050565b6000601f19601f8301169050919050565b60006106e382610681565b6106ed818561068c565b93506106fd81856020860161069d565b610706816106c7565b840191505092915050565b6000602082019050818103600083015261072b81846106d8565b905092915050565b6000819050919050565b61074681610733565b82525050565b6000602082019050610761600083018461073d565b92915050565b600060ff82169050919050565b61077d81610767565b82525050565b60006020820190506107986000830184610774565b92915050565b600080fd5b600073ffffffffffffffffffffffffffffffffffffffff82169050919050565b60006107ce826107a3565b9050919050565b6107de816107c3565b81146107e957600080fd5b50565b6000813590506107fb816107d5565b92915050565b6000602082840312156108175761081661079e565b5b6000610825848285016107ec565b91505092915050565b6000819050919050565b6108418161082e565b82525050565b600060208201905061085c6000830184610838565b92915050565b61086b816107c3565b82525050565b60006020820190506108866000830184610862565b92915050565b7f4e487b7100000000000000000000000000000000000000000000000000000000600052602260045260246000fd5b600060028204905060018216806108d357607f821691505b6020821081036108e6576108e561088c565b5b50919050565b7f596f75206861766520616c726561647920726567697374657265640000000000600082015250565b6000610922601b8361068c565b915061092d826108ec565b602082019050919050565b6000602082019050818103600083015261095181610915565b9050919050565b7f4e6f7420656e6f75676820746f74616c537570706c7921000000000000000000600082015250565b600061098e60178361068c565b915061099982610958565b602082019050919050565b600060208201905081810360008301526109bd81610981565b9050919050565b7f4e487b7100000000000000000000000000000000000000000000000000000000600052601160045260246000fd5b60006109fe82610733565b9150610a0983610733565b9250828203905081811115610a2157610a206109c4565b5b9291505056fea26469706673582212202cd1ad3ce565da3757728b5063f2506f7e82889893d17c49a160e039908c910d64736f6c63430008120033",
  "immutableReferences": {},
  "source": "// SPDX-License-Identifier: MIT\r\npragma solidity >=0.8.18<0.9.0;\r\n// Token.sol\r\n//   ,    \r\n//    testnet       Eth   \r\ncontract Token {\r\n    uint256 public totalSupply = 1000000 * (10 ** 18);      //   \r\n    uint8 public decimals = 18;                             //   \r\n    string public name = 'lol token';                       //  \r\n    string public symbol = 'lt';                            // \r\n    address public owner;                                   // owner (constructor  )\r\n\r\n    struct User {\r\n        uint256 balance;    // user \r\n        bool voted;         //   ,     \r\n        bytes32 teamName;     // user  ( hashed by function stringToBytes32() )\r\n        uint voteBalance;   //    ?(      )\r\n    }\r\n\r\n\r\n    mapping(address => User) userData;          // struct User   \r\n    mapping(address => bool) registeredUsers;   // logIn()      \r\n\r\n\r\n    constructor () {                            // owner  \r\n        owner = msg.sender;\r\n    }    \r\n\r\n    //    \r\n    function balanceOf(address _address) view public returns(uint) {\r\n        return userData[_address].balance;\r\n    }\r\n    //    \r\n    function voteBalanceOf(address _address) view public returns(uint) {\r\n        return userData[_address].voteBalance;\r\n    }\r\n    //      \r\n    function getUserVotedTeamName(address _address) view public returns(bytes32) {\r\n        return userData[_address].teamName;\r\n    }\r\n\r\n\r\n    function logIn() public returns(uint){\r\n        // logIn()     (by mapping -> registeredUsers)\r\n        //       \r\n        require(!registeredUsers[msg.sender], 'You have already registered');\r\n        require(totalSupply >= 10 * (10 ** 18), 'Not enough totalSupply!');\r\n        registeredUsers[msg.sender] = true;\r\n\r\n        // user  ,      \r\n        userData[msg.sender] = User({\r\n            balance: 10 * (10 ** 18),\r\n            voted: false,\r\n            teamName: '',\r\n            voteBalance: 0\r\n        });\r\n        totalSupply -= 10 * (10 ** 18);\r\n        return balanceOf(msg.sender);\r\n    }\r\n\r\n    //  . react owner       \r\n    function showOwner() public view returns(address) {\r\n        return owner;\r\n    }\r\n}",
  "sourcePath": "/home/minkun/vote-main/src/contracts/Token.sol",
  "compiler": {
    "name": "solc",
    "version": "0.8.18+commit.87f61d96.Emscripten.clang"
  },
  "schemaVersion": "3.4.14",
  "updatedAt": "2023-08-14T05:27:54.596Z",
  "networkType": "ethereum",
  "devdoc": {
    "kind": "dev",
    "methods": {},
    "version": 1
  },
  "userdoc": {
    "kind": "user",
    "methods": {},
    "version": 1
  }
}