{
  "contractName": "Token",
  "abi": [
    {
      "constant": true,
      "inputs": [],
      "name": "name",
      "outputs": [
        {
          "name": "",
          "type": "string"
        }
      ],
      "payable": false,
      "stateMutability": "view",
      "type": "function"
    },
    {
      "constant": true,
      "inputs": [],
      "name": "totalSupply",
      "outputs": [
        {
          "name": "",
          "type": "uint256"
        }
      ],
      "payable": false,
      "stateMutability": "view",
      "type": "function"
    },
    {
      "constant": true,
      "inputs": [],
      "name": "decimals",
      "outputs": [
        {
          "name": "",
          "type": "uint8"
        }
      ],
      "payable": false,
      "stateMutability": "view",
      "type": "function"
    },
    {
      "constant": true,
      "inputs": [],
      "name": "owner",
      "outputs": [
        {
          "name": "",
          "type": "address"
        }
      ],
      "payable": false,
      "stateMutability": "view",
      "type": "function"
    },
    {
      "constant": true,
      "inputs": [],
      "name": "symbol",
      "outputs": [
        {
          "name": "",
          "type": "string"
        }
      ],
      "payable": false,
      "stateMutability": "view",
      "type": "function"
    },
    {
      "constant": true,
      "inputs": [],
      "name": "INVALID_INDEX",
      "outputs": [
        {
          "name": "",
          "type": "uint256"
        }
      ],
      "payable": false,
      "stateMutability": "view",
      "type": "function"
    },
    {
      "inputs": [],
      "payable": false,
      "stateMutability": "nonpayable",
      "type": "constructor"
    },
    {
      "constant": true,
      "inputs": [
        {
          "name": "_address",
          "type": "address"
        }
      ],
      "name": "balanceOf",
      "outputs": [
        {
          "name": "",
          "type": "uint256"
        }
      ],
      "payable": false,
      "stateMutability": "view",
      "type": "function"
    },
    {
      "constant": true,
      "inputs": [
        {
          "name": "_address",
          "type": "address"
        }
      ],
      "name": "voteBalanceOf",
      "outputs": [
        {
          "name": "",
          "type": "uint256"
        }
      ],
      "payable": false,
      "stateMutability": "view",
      "type": "function"
    },
    {
      "constant": true,
      "inputs": [
        {
          "name": "_address",
          "type": "address"
        }
      ],
      "name": "getUserVotedTeamIndex",
      "outputs": [
        {
          "name": "",
          "type": "uint256"
        }
      ],
      "payable": false,
      "stateMutability": "view",
      "type": "function"
    },
    {
      "constant": false,
      "inputs": [],
      "name": "logIn",
      "outputs": [],
      "payable": false,
      "stateMutability": "nonpayable",
      "type": "function"
    },
    {
      "constant": true,
      "inputs": [],
      "name": "showOwner",
      "outputs": [
        {
          "name": "",
          "type": "address"
        }
      ],
      "payable": false,
      "stateMutability": "view",
      "type": "function"
    }
  ],
  "bytecode": "0x608060405269d3c21bcecceda10000006000556012600160006101000a81548160ff021916908360ff1602179055506040805190810160405280600981526020017f6c6f6c20746f6b656e00000000000000000000000000000000000000000000008152506002908051906020019061007992919061011e565b506040805190810160405280600281526020017f6c74000000000000000000000000000000000000000000000000000000000000815250600390805190602001906100c592919061011e565b5060646007553480156100d757600080fd5b5033600460006101000a81548173ffffffffffffffffffffffffffffffffffffffff021916908373ffffffffffffffffffffffffffffffffffffffff1602179055506101c3565b828054600181600116156101000203166002900490600052602060002090601f016020900481019282601f1061015f57805160ff191683800117855561018d565b8280016001018555821561018d579182015b8281111561018c578251825591602001919060010190610171565b5b50905061019a919061019e565b5090565b6101c091905b808211156101bc5760008160009055506001016101a4565b5090565b90565b610969806101d26000396000f3fe6080604052600436106100a9576000357c01000000000000000000000000000000000000000000000000000000009004806306fdde03146100ae57806318160ddd1461013e578063313ce56714610169578063377b47a31461019a578063548e0ae5146101b157806370a082311461021657806384ab8bb81461027b5780638da5cb5b146102e057806395d89b4114610337578063ded94688146103c7578063fc7d66671461041e575b600080fd5b3480156100ba57600080fd5b506100c3610449565b6040518080602001828103825283818151815260200191508051906020019080838360005b838110156101035780820151818401526020810190506100e8565b50505050905090810190601f1680156101305780820380516001836020036101000a031916815260200191505b509250505060405180910390f35b34801561014a57600080fd5b506101536104e7565b6040518082815260200191505060405180910390f35b34801561017557600080fd5b5061017e6104ed565b604051808260ff1660ff16815260200191505060405180910390f35b3480156101a657600080fd5b506101af610500565b005b3480156101bd57600080fd5b50610200600480360360208110156101d457600080fd5b81019080803573ffffffffffffffffffffffffffffffffffffffff169060200190929190505050610765565b6040518082815260200191505060405180910390f35b34801561022257600080fd5b506102656004803603602081101561023957600080fd5b81019080803573ffffffffffffffffffffffffffffffffffffffff1690602001909291905050506107b1565b6040518082815260200191505060405180910390f35b34801561028757600080fd5b506102ca6004803603602081101561029e57600080fd5b81019080803573ffffffffffffffffffffffffffffffffffffffff1690602001909291905050506107fd565b6040518082815260200191505060405180910390f35b3480156102ec57600080fd5b506102f5610849565b604051808273ffffffffffffffffffffffffffffffffffffffff1673ffffffffffffffffffffffffffffffffffffffff16815260200191505060405180910390f35b34801561034357600080fd5b5061034c61086f565b6040518080602001828103825283818151815260200191508051906020019080838360005b8381101561038c578082015181840152602081019050610371565b50505050905090810190601f1680156103b95780820380516001836020036101000a031916815260200191505b509250505060405180910390f35b3480156103d357600080fd5b506103dc61090d565b604051808273ffffffffffffffffffffffffffffffffffffffff1673ffffffffffffffffffffffffffffffffffffffff16815260200191505060405180910390f35b34801561042a57600080fd5b50610433610937565b6040518082815260200191505060405180910390f35b60028054600181600116156101000203166002900480601f0160208091040260200160405190810160405280929190818152602001828054600181600116156101000203166002900480156104df5780601f106104b4576101008083540402835291602001916104df565b820191906000526020600020905b8154815290600101906020018083116104c257829003601f168201915b505050505081565b60005481565b600160009054906101000a900460ff1681565b600660003373ffffffffffffffffffffffffffffffffffffffff1673ffffffffffffffffffffffffffffffffffffffff16815260200190815260200160002060009054906101000a900460ff161515156105c2576040517f08c379a000000000000000000000000000000000000000000000000000000000815260040180806020018281038252601b8152602001807f596f75206861766520616c72656164792072656769737465726564000000000081525060200191505060405180910390fd5b678ac7230489e8000060005410151515610644576040517f08c379a00000000000000000000000000000000000000000000000000000000081526004018080602001828103825260178152602001807f4e6f7420656e6f75676820746f74616c537570706c792100000000000000000081525060200191505060405180910390fd5b6001600660003373ffffffffffffffffffffffffffffffffffffffff1673ffffffffffffffffffffffffffffffffffffffff16815260200190815260200160002060006101000a81548160ff021916908315150217905550608060405190810160405280678ac7230489e80000815260200160001515815260200160075481526020016000815250600560003373ffffffffffffffffffffffffffffffffffffffff1673ffffffffffffffffffffffffffffffffffffffff1681526020019081526020016000206000820151816000015560208201518160010160006101000a81548160ff0219169083151502179055506040820151816002015560608201518160030155905050678ac7230489e800006000808282540392505081905550565b6000600560008373ffffffffffffffffffffffffffffffffffffffff1673ffffffffffffffffffffffffffffffffffffffff168152602001908152602001600020600201549050919050565b6000600560008373ffffffffffffffffffffffffffffffffffffffff1673ffffffffffffffffffffffffffffffffffffffff168152602001908152602001600020600001549050919050565b6000600560008373ffffffffffffffffffffffffffffffffffffffff1673ffffffffffffffffffffffffffffffffffffffff168152602001908152602001600020600301549050919050565b600460009054906101000a900473ffffffffffffffffffffffffffffffffffffffff1681565b60038054600181600116156101000203166002900480601f0160208091040260200160405190810160405280929190818152602001828054600181600116156101000203166002900480156109055780601f106108da57610100808354040283529160200191610905565b820191906000526020600020905b8154815290600101906020018083116108e857829003601f168201915b505050505081565b6000600460009054906101000a900473ffffffffffffffffffffffffffffffffffffffff16905090565b6007548156fea165627a7a723058207ce4e742b1631fb9f35f898c533b44f8ea7a01a20cfc022959ae0d06aba49d5d0029",
  "source": "// SPDX-License-Identifier: MIT\npragma solidity >=0.4.22 <0.9.0;\n// Token.sol\n// 주석에서 설명하는 토큰, 돈은 모두 같은 개념\n// 실제 배포용이 아닌 testnet에서 하는 것이기 때문에 가스비 제외하고는 실제 Eth를 사용하는 과정은 없음\ncontract Token {\n    uint256 public totalSupply = 1000000 * (10 ** 18);      // 총 토큰 발행량\n    uint8 public decimals = 18;                             // 소수점 자리 수\n    string public name = 'lol token';                       // 토큰 이름\n    string public symbol = 'lt';                            // 단위\n    address public owner;                                   // owner 주소(constructor에 의해서 정해짐)\n\n    struct User {\n        uint256 balance;    // user의 돈\n        bool voted;         // 한 팀에 베팅하면, 추가 베팅을 못하게 하는 변수\n        uint teamIndex;     // user가 베팅한 팀의 index(결국 팀의 이름을 구할 수 있음)\n        uint voteBalance;   // 그 팀에 얼마를 박았는가?(박은 비율에 따라서 돈을 되돌려주기 때문에 설정했음)\n    }\n\n\n    mapping(address => User) userData;          // struct User에 접근하기 위해서 설정\n    mapping(address => bool) registeredUsers;   // logIn()함수가 계좌당 한 번만 실행되기 위해서 설정\n\n    uint public INVALID_INDEX = 100;            // SetTeam.sol, Token.sol에서 올바르지 않은 값은 모두 이거로 설정했음\n\n    constructor () public {                            // owner 값 저장해둠\n        owner = msg.sender;\n    }    \n\n    // 주소에 따른 잔액을 표시\n    function balanceOf(address _address) view public returns(uint) {\n        return userData[_address].balance;\n    }\n    // 주소에 따른 베팅금액 표시\n    function voteBalanceOf(address _address) view public returns(uint) {\n        return userData[_address].voteBalance;\n    }\n    // 주소에 따른 베팅을 한 팀 index 표시\n    function getUserVotedTeamIndex(address _address) view public returns(uint) {\n        return userData[_address].teamIndex;\n    }\n\n\n    function logIn() public {\n        // logIn()은 한 번만 실행될 수 있음(by mapping -> registeredUsers)\n        // 토큰 총 발행량을 넘어서는 유저의 수는 안됨\n        require(!registeredUsers[msg.sender], 'You have already registered');\n        require(totalSupply >= 10 * (10 ** 18), 'Not enough totalSupply!');\n        registeredUsers[msg.sender] = true;\n\n        // user에게 기본 자본, 투표권 등 지급 및 세팅 설정\n        userData[msg.sender] = User({\n            balance: 10 * (10 ** 18),\n            voted: false,\n            teamIndex: INVALID_INDEX,\n            voteBalance: 0\n        });\n        totalSupply -= 10 * (10 ** 18);\n    }\n\n    // 없어도 됨. react에서 owner의 주소를 잘 받아오는지 표기하기 위해서 인위적으로 만들었음\n    function showOwner() public view returns(address) {\n        return owner;\n    }\n}",
  "sourcePath": "/home/minkun/vote-main/src/contracts/Token.sol",
  "compiler": {
    "name": "solc",
    "version": "0.5.1+commit.c8a2cb62.Emscripten.clang"
  },
  "schemaVersion": "3.4.14",
  "updatedAt": "2023-08-02T06:46:31.193Z",
  "networkType": "ethereum",
  "devdoc": {
    "methods": {}
  },
  "userdoc": {
    "methods": {}
  }
}