{
  "contractName": "Vote",
  "abi": [
    {
      "anonymous": false,
      "inputs": [],
      "name": "BettingResultOver",
      "type": "event"
    },
    {
      "inputs": [
        {
          "internalType": "address",
          "name": "_address",
          "type": "address"
        }
      ],
      "name": "balanceOf",
      "outputs": [
        {
          "internalType": "uint256",
          "name": "",
          "type": "uint256"
        }
      ],
      "stateMutability": "view",
      "type": "function",
      "constant": true
    },
    {
      "inputs": [],
      "name": "decimals",
      "outputs": [
        {
          "internalType": "uint8",
          "name": "",
          "type": "uint8"
        }
      ],
      "stateMutability": "view",
      "type": "function",
      "constant": true
    },
    {
      "inputs": [
        {
          "internalType": "string",
          "name": "_teamName",
          "type": "string"
        }
      ],
      "name": "getTeamWeightByTeamName",
      "outputs": [
        {
          "internalType": "uint256",
          "name": "",
          "type": "uint256"
        }
      ],
      "stateMutability": "view",
      "type": "function",
      "constant": true
    },
    {
      "inputs": [
        {
          "internalType": "address",
          "name": "_address",
          "type": "address"
        }
      ],
      "name": "getUserVotedTeamName",
      "outputs": [
        {
          "internalType": "bytes32",
          "name": "",
          "type": "bytes32"
        }
      ],
      "stateMutability": "view",
      "type": "function",
      "constant": true
    },
    {
      "inputs": [],
      "name": "logIn",
      "outputs": [],
      "stateMutability": "nonpayable",
      "type": "function"
    },
    {
      "inputs": [],
      "name": "name",
      "outputs": [
        {
          "internalType": "string",
          "name": "",
          "type": "string"
        }
      ],
      "stateMutability": "view",
      "type": "function",
      "constant": true
    },
    {
      "inputs": [],
      "name": "owner",
      "outputs": [
        {
          "internalType": "address",
          "name": "",
          "type": "address"
        }
      ],
      "stateMutability": "view",
      "type": "function",
      "constant": true
    },
    {
      "inputs": [
        {
          "internalType": "string",
          "name": "_teamName",
          "type": "string"
        }
      ],
      "name": "setTeam",
      "outputs": [],
      "stateMutability": "nonpayable",
      "type": "function"
    },
    {
      "inputs": [],
      "name": "showOwner",
      "outputs": [
        {
          "internalType": "address",
          "name": "",
          "type": "address"
        }
      ],
      "stateMutability": "view",
      "type": "function",
      "constant": true
    },
    {
      "inputs": [
        {
          "internalType": "string",
          "name": "source",
          "type": "string"
        }
      ],
      "name": "stringToBytes32",
      "outputs": [
        {
          "internalType": "bytes32",
          "name": "result",
          "type": "bytes32"
        }
      ],
      "stateMutability": "pure",
      "type": "function",
      "constant": true
    },
    {
      "inputs": [],
      "name": "symbol",
      "outputs": [
        {
          "internalType": "string",
          "name": "",
          "type": "string"
        }
      ],
      "stateMutability": "view",
      "type": "function",
      "constant": true
    },
    {
      "inputs": [
        {
          "internalType": "bytes32",
          "name": "",
          "type": "bytes32"
        }
      ],
      "name": "teamSetted",
      "outputs": [
        {
          "internalType": "bool",
          "name": "",
          "type": "bool"
        }
      ],
      "stateMutability": "view",
      "type": "function",
      "constant": true
    },
    {
      "inputs": [
        {
          "internalType": "bytes32",
          "name": "",
          "type": "bytes32"
        }
      ],
      "name": "teamWeight",
      "outputs": [
        {
          "internalType": "uint256",
          "name": "",
          "type": "uint256"
        }
      ],
      "stateMutability": "view",
      "type": "function",
      "constant": true
    },
    {
      "inputs": [],
      "name": "totalSupply",
      "outputs": [
        {
          "internalType": "uint256",
          "name": "",
          "type": "uint256"
        }
      ],
      "stateMutability": "view",
      "type": "function",
      "constant": true
    },
    {
      "inputs": [],
      "name": "versusExecuted",
      "outputs": [
        {
          "internalType": "bool",
          "name": "",
          "type": "bool"
        }
      ],
      "stateMutability": "view",
      "type": "function",
      "constant": true
    },
    {
      "inputs": [
        {
          "internalType": "address",
          "name": "_address",
          "type": "address"
        }
      ],
      "name": "voteBalanceOf",
      "outputs": [
        {
          "internalType": "uint256",
          "name": "",
          "type": "uint256"
        }
      ],
      "stateMutability": "view",
      "type": "function",
      "constant": true
    },
    {
      "inputs": [
        {
          "internalType": "string",
          "name": "_team1",
          "type": "string"
        },
        {
          "internalType": "string",
          "name": "_team2",
          "type": "string"
        }
      ],
      "name": "versus",
      "outputs": [],
      "stateMutability": "nonpayable",
      "type": "function"
    },
    {
      "inputs": [
        {
          "internalType": "string",
          "name": "_teamName",
          "type": "string"
        },
        {
          "internalType": "uint256",
          "name": "_amount",
          "type": "uint256"
        }
      ],
      "name": "vote",
      "outputs": [
        {
          "internalType": "bool",
          "name": "",
          "type": "bool"
        }
      ],
      "stateMutability": "nonpayable",
      "type": "function"
    },
    {
      "inputs": [
        {
          "internalType": "string",
          "name": "_teamNameWin",
          "type": "string"
        },
        {
          "internalType": "string",
          "name": "_teamNameLose",
          "type": "string"
        }
      ],
      "name": "gameEnd",
      "outputs": [],
      "stateMutability": "nonpayable",
      "type": "function"
    },
    {
      "inputs": [],
      "name": "returnBettingResult",
      "outputs": [
        {
          "internalType": "uint256",
          "name": "",
          "type": "uint256"
        }
      ],
      "stateMutability": "nonpayable",
      "type": "function"
    },
    {
      "inputs": [],
      "name": "returnBettingResultOver",
      "outputs": [],
      "stateMutability": "nonpayable",
      "type": "function"
    },
    {
      "inputs": [],
      "name": "showVersusExecuted",
      "outputs": [
        {
          "internalType": "bool",
          "name": "",
          "type": "bool"
        }
      ],
      "stateMutability": "view",
      "type": "function",
      "constant": true
    }
  ],
  "bytecode": "0x608060405269d3c21bcecceda10000006000556012600160006101000a81548160ff021916908360ff1602179055506040518060400160405280600981526020017f6c6f6c20746f6b656e00000000000000000000000000000000000000000000008152506002908162000074919062000424565b506040518060400160405280600281526020017f6c7400000000000000000000000000000000000000000000000000000000000081525060039081620000bb919062000424565b5060006009556000600a556200010c6040518060400160405280600481526020017f6e6f6e65000000000000000000000000000000000000000000000000000000008152506200017f60201b60201c565b600d556000600e60006101000a81548160ff0219169083151502179055503480156200013757600080fd5b5033600460006101000a81548173ffffffffffffffffffffffffffffffffffffffff021916908373ffffffffffffffffffffffffffffffffffffffff1602179055506200050b565b60008082905060008151036200019c576000801b915050620001a5565b60208301519150505b919050565b600081519050919050565b7f4e487b7100000000000000000000000000000000000000000000000000000000600052604160045260246000fd5b7f4e487b7100000000000000000000000000000000000000000000000000000000600052602260045260246000fd5b600060028204905060018216806200022c57607f821691505b602082108103620002425762000241620001e4565b5b50919050565b60008190508160005260206000209050919050565b60006020601f8301049050919050565b600082821b905092915050565b600060088302620002ac7fffffffffffffffffffffffffffffffffffffffffffffffffffffffffffffffff826200026d565b620002b886836200026d565b95508019841693508086168417925050509392505050565b6000819050919050565b6000819050919050565b600062000305620002ff620002f984620002d0565b620002da565b620002d0565b9050919050565b6000819050919050565b6200032183620002e4565b6200033962000330826200030c565b8484546200027a565b825550505050565b600090565b6200035062000341565b6200035d81848462000316565b505050565b5b8181101562000385576200037960008262000346565b60018101905062000363565b5050565b601f821115620003d4576200039e8162000248565b620003a9846200025d565b81016020851015620003b9578190505b620003d1620003c8856200025d565b83018262000362565b50505b505050565b600082821c905092915050565b6000620003f960001984600802620003d9565b1980831691505092915050565b6000620004148383620003e6565b9150826002028217905092915050565b6200042f82620001aa565b67ffffffffffffffff8111156200044b576200044a620001b5565b5b62000457825462000213565b6200046482828562000389565b600060209050601f8311600181146200049c576000841562000487578287015190505b62000493858262000406565b86555062000503565b601f198416620004ac8662000248565b60005b82811015620004d657848901518255600182019150602085019450602081019050620004af565b86831015620004f65784890151620004f2601f891682620003e6565b8355505b6001600288020188555050505b505050505050565b612162806200051b6000396000f3fe608060405234801561001057600080fd5b50600436106101425760003560e01c8063792f97ae116100b8578063a63858031161007c578063a638580314610369578063a8285fdb14610399578063cfb51928146103b7578063d7e80eee146103e7578063ded9468814610403578063fec873891461042157610142565b8063792f97ae146102b157806384ab8bb8146102e15780638735741d146103115780638da5cb5b1461032d57806395d89b411461034b57610142565b80632a57937a1161010a5780632a57937a146101db5780632d82ee8b1461020b578063313ce5671461023b578063377b47a3146102595780636ae2a1ca1461026357806370a082311461028157610142565b8063026bdfa11461014757806306fdde03146101775780630b3f277f146101955780630e85b2941461019f57806318160ddd146101bd575b600080fd5b610161600480360381019061015c9190611630565b61043d565b60405161016e9190611676565b60405180910390f35b61017f610455565b60405161018c9190611721565b60405180910390f35b61019d6104e3565b005b6101a76106ac565b6040516101b4919061175e565b60405180910390f35b6101c56106c3565b6040516101d29190611676565b60405180910390f35b6101f560048036038101906101f09190611630565b6106c9565b604051610202919061175e565b60405180910390f35b610225600480360381019061022091906117de565b6106e9565b6040516102329190611676565b60405180910390f35b610243610753565b6040516102509190611847565b60405180910390f35b610261610766565b005b61026b61096b565b604051610278919061175e565b60405180910390f35b61029b600480360381019061029691906118c0565b61097e565b6040516102a89190611676565b60405180910390f35b6102cb60048036038101906102c691906118c0565b6109ca565b6040516102d891906118fc565b60405180910390f35b6102fb60048036038101906102f691906118c0565b610a16565b6040516103089190611676565b60405180910390f35b61032b600480360381019061032691906117de565b610a62565b005b610335610be5565b6040516103429190611926565b60405180910390f35b610353610c0b565b6040516103609190611721565b60405180910390f35b610383600480360381019061037e919061196d565b610c99565b604051610390919061175e565b60405180910390f35b6103a1610ff0565b6040516103ae9190611676565b60405180910390f35b6103d160048036038101906103cc9190611afd565b61126b565b6040516103de91906118fc565b60405180910390f35b61040160048036038101906103fc9190611b46565b611294565b005b61040b6114a5565b6040516104189190611926565b60405180910390f35b61043b60048036038101906104369190611b46565b6114cf565b005b60076020528060005260406000206000915090505481565b6002805461046290611bf6565b80601f016020809104026020016040519081016040528092919081815260200182805461048e90611bf6565b80156104db5780601f106104b0576101008083540402835291602001916104db565b820191906000526020600020905b8154815290600101906020018083116104be57829003601f168201915b505050505081565b600460009054906101000a900473ffffffffffffffffffffffffffffffffffffffff1673ffffffffffffffffffffffffffffffffffffffff163373ffffffffffffffffffffffffffffffffffffffff161461053d57600080fd5b600e60009054906101000a900460ff1661058c576040517f08c379a000000000000000000000000000000000000000000000000000000000815260040161058390611c73565b60405180910390fd5b6105ca6040518060400160405280600481526020017f6e6f6e650000000000000000000000000000000000000000000000000000000081525061126b565b600d54036105d757600080fd5b60076000600d548152602001908152602001600020546000808282546105fd9190611cc2565b92505081905550600060076000600d548152602001908152602001600020819055507fb9965e294ca2529c415e9cb787ae63bc589f2db22057272aeb9800e2750a4fff60405160405180910390a16106896040518060400160405280600481526020017f6e6f6e650000000000000000000000000000000000000000000000000000000081525061126b565b600d819055506000600e60006101000a81548160ff021916908315150217905550565b6000600e60009054906101000a900460ff16905090565b60005481565b60086020528060005260406000206000915054906101000a900460ff1681565b60006007600061073c85858080601f016020809104026020016040519081016040528093929190818152602001838380828437600081840152601f19601f8201169050808301925050505050505061126b565b815260200190815260200160002054905092915050565b600160009054906101000a900460ff1681565b600660003373ffffffffffffffffffffffffffffffffffffffff1673ffffffffffffffffffffffffffffffffffffffff16815260200190815260200160002060009054906101000a900460ff16156107f3576040517f08c379a00000000000000000000000000000000000000000000000000000000081526004016107ea90611d42565b60405180910390fd5b678ac7230489e800006000541015610840576040517f08c379a000000000000000000000000000000000000000000000000000000000815260040161083790611dae565b60405180910390fd5b6001600660003373ffffffffffffffffffffffffffffffffffffffff1673ffffffffffffffffffffffffffffffffffffffff16815260200190815260200160002060006101000a81548160ff0219169083151502179055506040518060800160405280678ac7230489e800008152602001600015158152602001600080191681526020016000815250600560003373ffffffffffffffffffffffffffffffffffffffff1673ffffffffffffffffffffffffffffffffffffffff1681526020019081526020016000206000820151816000015560208201518160010160006101000a81548160ff0219169083151502179055506040820151816002015560608201518160030155905050678ac7230489e800006000808282546109629190611dce565b92505081905550565b600e60009054906101000a900460ff1681565b6000600560008373ffffffffffffffffffffffffffffffffffffffff1673ffffffffffffffffffffffffffffffffffffffff168152602001908152602001600020600001549050919050565b6000600560008373ffffffffffffffffffffffffffffffffffffffff1673ffffffffffffffffffffffffffffffffffffffff168152602001908152602001600020600201549050919050565b6000600560008373ffffffffffffffffffffffffffffffffffffffff1673ffffffffffffffffffffffffffffffffffffffff168152602001908152602001600020600301549050919050565b600460009054906101000a900473ffffffffffffffffffffffffffffffffffffffff1673ffffffffffffffffffffffffffffffffffffffff163373ffffffffffffffffffffffffffffffffffffffff1614610abc57600080fd5b60008282905011610b02576040517f08c379a0000000000000000000000000000000000000000000000000000000008152600401610af990611e4e565b60405180910390fd5b6000610b5183838080601f016020809104026020016040519081016040528093929190818152602001838380828437600081840152601f19601f8201169050808301925050505050505061126b565b90506008600082815260200190815260200160002060009054906101000a900460ff1615610bb4576040517f08c379a0000000000000000000000000000000000000000000000000000000008152600401610bab90611eba565b60405180910390fd5b60016008600083815260200190815260200160002060006101000a81548160ff021916908315150217905550505050565b600460009054906101000a900473ffffffffffffffffffffffffffffffffffffffff1681565b60038054610c1890611bf6565b80601f0160208091040260200160405190810160405280929190818152602001828054610c4490611bf6565b8015610c915780601f10610c6657610100808354040283529160200191610c91565b820191906000526020600020905b815481529060010190602001808311610c7457829003601f168201915b505050505081565b6000600e60009054906101000a900460ff16610cea576040517f08c379a0000000000000000000000000000000000000000000000000000000008152600401610ce190611c73565b60405180910390fd5b600560003373ffffffffffffffffffffffffffffffffffffffff1673ffffffffffffffffffffffffffffffffffffffff16815260200190815260200160002060010160009054906101000a900460ff1615610d7a576040517f08c379a0000000000000000000000000000000000000000000000000000000008152600401610d7190611f26565b60405180910390fd5b81610d843361097e565b1015610dc5576040517f08c379a0000000000000000000000000000000000000000000000000000000008152600401610dbc90611f92565b60405180910390fd5b6000610e1485858080601f016020809104026020016040519081016040528093929190818152602001838380828437600081840152601f19601f8201169050808301925050505050505061126b565b9050600b54811480610e275750600c5481145b610e66576040517f08c379a0000000000000000000000000000000000000000000000000000000008152600401610e5d90611ffe565b60405180910390fd5b82600560003373ffffffffffffffffffffffffffffffffffffffff1673ffffffffffffffffffffffffffffffffffffffff1681526020019081526020016000206000016000828254610eb89190611dce565b9250508190555082600760008381526020019081526020016000206000828254610ee29190611cc2565b9250508190555082600560003373ffffffffffffffffffffffffffffffffffffffff1673ffffffffffffffffffffffffffffffffffffffff1681526020019081526020016000206003016000828254610f3b9190611cc2565b925050819055506001600560003373ffffffffffffffffffffffffffffffffffffffff1673ffffffffffffffffffffffffffffffffffffffff16815260200190815260200160002060010160006101000a81548160ff02191690831515021790555080600560003373ffffffffffffffffffffffffffffffffffffffff1673ffffffffffffffffffffffffffffffffffffffff1681526020019081526020016000206002018190555060019150509392505050565b6000600e60009054906101000a900460ff16611041576040517f08c379a000000000000000000000000000000000000000000000000000000000815260040161103890611c73565b60405180910390fd5b61107f6040518060400160405280600481526020017f6e6f6e650000000000000000000000000000000000000000000000000000000081525061126b565b600d540361108c57600080fd5b600d54611098336109ca565b03611178576000600954600a546110ae33610a16565b6110b8919061204d565b6110c2919061207e565b905080600560003373ffffffffffffffffffffffffffffffffffffffff1673ffffffffffffffffffffffffffffffffffffffff16815260200190815260200160002060000160008282546111169190611cc2565b925050819055508060076000600d54815260200190815260200160002060008282546111429190611dce565b92505081905550600060076000600d548152602001908152602001600020540361116f5761116e6104e3565b5b80915050611268565b6000600560003373ffffffffffffffffffffffffffffffffffffffff1673ffffffffffffffffffffffffffffffffffffffff168152602001908152602001600020600201819055506000600560003373ffffffffffffffffffffffffffffffffffffffff1673ffffffffffffffffffffffffffffffffffffffff168152602001908152602001600020600301819055506000600560003373ffffffffffffffffffffffffffffffffffffffff1673ffffffffffffffffffffffffffffffffffffffff16815260200190815260200160002060010160006101000a81548160ff021916908315150217905550600090505b90565b6000808290506000815103611286576000801b91505061128f565b60208301519150505b919050565b600e60009054906101000a900460ff166112e3576040517f08c379a00000000000000000000000000000000000000000000000000000000081526004016112da90611c73565b60405180910390fd5b600460009054906101000a900473ffffffffffffffffffffffffffffffffffffffff1673ffffffffffffffffffffffffffffffffffffffff163373ffffffffffffffffffffffffffffffffffffffff161461133d57600080fd5b600061138c85858080601f016020809104026020016040519081016040528093929190818152602001838380828437600081840152601f19601f8201169050808301925050505050505061126b565b905060006113dd84848080601f016020809104026020016040519081016040528093929190818152602001838380828437600081840152601f19601f8201169050808301925050505050505061126b565b9050600b548214806113f05750600c5482145b6113f957600080fd5b600b5481148061140a5750600c5481145b61141357600080fd5b6007600083815260200190815260200160002054600a8190555060076000828152602001908152602001600020546007600084815260200190815260200160002060008282546114639190611cc2565b92505081905550600760008381526020019081526020016000205460098190555060006007600083815260200190815260200160002081905550505050505050565b6000600460009054906101000a900473ffffffffffffffffffffffffffffffffffffffff16905090565b600e60009054906101000a900460ff161561151f576040517f08c379a00000000000000000000000000000000000000000000000000000000081526004016115169061210c565b60405180910390fd5b61156c84848080601f016020809104026020016040519081016040528093929190818152602001838380828437600081840152601f19601f8201169050808301925050505050505061126b565b600b819055506115bf82828080601f016020809104026020016040519081016040528093929190818152602001838380828437600081840152601f19601f8201169050808301925050505050505061126b565b600c819055506001600e60006101000a81548160ff02191690831515021790555050505050565b6000604051905090565b600080fd5b600080fd5b6000819050919050565b61160d816115fa565b811461161857600080fd5b50565b60008135905061162a81611604565b92915050565b600060208284031215611646576116456115f0565b5b60006116548482850161161b565b91505092915050565b6000819050919050565b6116708161165d565b82525050565b600060208201905061168b6000830184611667565b92915050565b600081519050919050565b600082825260208201905092915050565b60005b838110156116cb5780820151818401526020810190506116b0565b60008484015250505050565b6000601f19601f8301169050919050565b60006116f382611691565b6116fd818561169c565b935061170d8185602086016116ad565b611716816116d7565b840191505092915050565b6000602082019050818103600083015261173b81846116e8565b905092915050565b60008115159050919050565b61175881611743565b82525050565b6000602082019050611773600083018461174f565b92915050565b600080fd5b600080fd5b600080fd5b60008083601f84011261179e5761179d611779565b5b8235905067ffffffffffffffff8111156117bb576117ba61177e565b5b6020830191508360018202830111156117d7576117d6611783565b5b9250929050565b600080602083850312156117f5576117f46115f0565b5b600083013567ffffffffffffffff811115611813576118126115f5565b5b61181f85828601611788565b92509250509250929050565b600060ff82169050919050565b6118418161182b565b82525050565b600060208201905061185c6000830184611838565b92915050565b600073ffffffffffffffffffffffffffffffffffffffff82169050919050565b600061188d82611862565b9050919050565b61189d81611882565b81146118a857600080fd5b50565b6000813590506118ba81611894565b92915050565b6000602082840312156118d6576118d56115f0565b5b60006118e4848285016118ab565b91505092915050565b6118f6816115fa565b82525050565b600060208201905061191160008301846118ed565b92915050565b61192081611882565b82525050565b600060208201905061193b6000830184611917565b92915050565b61194a8161165d565b811461195557600080fd5b50565b60008135905061196781611941565b92915050565b600080600060408486031215611986576119856115f0565b5b600084013567ffffffffffffffff8111156119a4576119a36115f5565b5b6119b086828701611788565b935093505060206119c386828701611958565b9150509250925092565b600080fd5b7f4e487b7100000000000000000000000000000000000000000000000000000000600052604160045260246000fd5b611a0a826116d7565b810181811067ffffffffffffffff82111715611a2957611a286119d2565b5b80604052505050565b6000611a3c6115e6565b9050611a488282611a01565b919050565b600067ffffffffffffffff821115611a6857611a676119d2565b5b611a71826116d7565b9050602081019050919050565b82818337600083830152505050565b6000611aa0611a9b84611a4d565b611a32565b905082815260208101848484011115611abc57611abb6119cd565b5b611ac7848285611a7e565b509392505050565b600082601f830112611ae457611ae3611779565b5b8135611af4848260208601611a8d565b91505092915050565b600060208284031215611b1357611b126115f0565b5b600082013567ffffffffffffffff811115611b3157611b306115f5565b5b611b3d84828501611acf565b91505092915050565b60008060008060408587031215611b6057611b5f6115f0565b5b600085013567ffffffffffffffff811115611b7e57611b7d6115f5565b5b611b8a87828801611788565b9450945050602085013567ffffffffffffffff811115611bad57611bac6115f5565b5b611bb987828801611788565b925092505092959194509250565b7f4e487b7100000000000000000000000000000000000000000000000000000000600052602260045260246000fd5b60006002820490506001821680611c0e57607f821691505b602082108103611c2157611c20611bc7565b5b50919050565b7f56657273757320686173206e6f74206265656e20657865637574656420796574600082015250565b6000611c5d60208361169c565b9150611c6882611c27565b602082019050919050565b60006020820190508181036000830152611c8c81611c50565b9050919050565b7f4e487b7100000000000000000000000000000000000000000000000000000000600052601160045260246000fd5b6000611ccd8261165d565b9150611cd88361165d565b9250828201905080821115611cf057611cef611c93565b5b92915050565b7f596f75206861766520616c726561647920726567697374657265640000000000600082015250565b6000611d2c601b8361169c565b9150611d3782611cf6565b602082019050919050565b60006020820190508181036000830152611d5b81611d1f565b9050919050565b7f4e6f7420656e6f75676820746f74616c537570706c7921000000000000000000600082015250565b6000611d9860178361169c565b9150611da382611d62565b602082019050919050565b60006020820190508181036000830152611dc781611d8b565b9050919050565b6000611dd98261165d565b9150611de48361165d565b9250828203905081811115611dfc57611dfb611c93565b5b92915050565b7f5465616d206e616d652063616e6e6f7420626520656d70747900000000000000600082015250565b6000611e3860198361169c565b9150611e4382611e02565b602082019050919050565b60006020820190508181036000830152611e6781611e2b565b9050919050565b7f5465616d206e616d6520616c7265616479206578697374730000000000000000600082015250565b6000611ea460188361169c565b9150611eaf82611e6e565b602082019050919050565b60006020820190508181036000830152611ed381611e97565b9050919050565b7f596f75206861766520616c726561647920766f74656421000000000000000000600082015250565b6000611f1060178361169c565b9150611f1b82611eda565b602082019050919050565b60006020820190508181036000830152611f3f81611f03565b9050919050565b7f4e6f7420656e6f75676820746f6b656e73210000000000000000000000000000600082015250565b6000611f7c60128361169c565b9150611f8782611f46565b602082019050919050565b60006020820190508181036000830152611fab81611f6f565b9050919050565b7f496e76616c6964207465616d206e616d65210000000000000000000000000000600082015250565b6000611fe860128361169c565b9150611ff382611fb2565b602082019050919050565b6000602082019050818103600083015261201781611fdb565b9050919050565b7f4e487b7100000000000000000000000000000000000000000000000000000000600052601260045260246000fd5b60006120588261165d565b91506120638361165d565b9250826120735761207261201e565b5b828204905092915050565b60006120898261165d565b91506120948361165d565b92508282026120a28161165d565b915082820484148315176120b9576120b8611c93565b5b5092915050565b7f5665727375732068617320616c7265616479206265656e206578656375746564600082015250565b60006120f660208361169c565b9150612101826120c0565b602082019050919050565b60006020820190508181036000830152612125816120e9565b905091905056fea2646970667358221220d8fe658c8bce31b6eb4a1f956291532cafffb61b17cf2888c49f3dd46089cdd264736f6c63430008120033",
  "immutableReferences": {},
  "source": "// SPDX-License-Identifier: MIT\npragma solidity >=0.8.18<0.9.0; //>=0.8.18 <0.9.0\nimport './SetTeam.sol';\n// Vote.sol\n\ncontract Vote is SetTeam {\n    // vote.sol function versus( )   \n    //        betting result  \n    bytes32 team1;  \n    bytes32 team2;\n    //    , default : 'none'\n    bytes32 teamNameWin = stringToBytes32('none');\n    // versus       modifier ,   bool \n    // versus  : false , versus  : true , returnBettingResultOver()   false...\n    bool public versusExecuted = false;\n    // returnBettingResult() returnBettingResultOver    \n    // react   .( returnBettingResultOver  )\n    event BettingResultOver();\n    // versus  \n    modifier onlyBeforeVersus() {\n        require(!versusExecuted, \"Versus has already been executed\");\n        _;\n    }\n    // versus  \n    modifier onlyAfterVersus() {\n        require(versusExecuted, \"Versus has not been executed yet\");\n        _;\n    }\n    // team1, team2 \n    function versus(string calldata _team1, string calldata _team2) public onlyBeforeVersus {\n        team1 = stringToBytes32(_team1);\n        team2 = stringToBytes32(_team2);\n        versusExecuted = true;\n    }\n    // vote  ( )\n    function vote(string calldata _teamName, uint _amount) public onlyAfterVersus returns (bool) {\n        require(!userData[msg.sender].voted, \"You have already voted!\");\n        require(balanceOf(msg.sender) >= _amount, \"Not enough tokens!\");\n        \n        bytes32 teamName = stringToBytes32(_teamName);\n        require(teamName == team1 || teamName == team2, \"Invalid team name!\");\n\n        userData[msg.sender].balance -= _amount;\n        teamWeight[teamName] += _amount;\n\n        userData[msg.sender].voteBalance += _amount;\n\n        userData[msg.sender].voted = true;\n        userData[msg.sender].teamName = teamName;\n\n        return true;\n    }\n    // game end :  \n    function gameEnd(string calldata _teamNameWin, string calldata _teamNameLose) public onlyAfterVersus onlyOwner {\n        bytes32 win = stringToBytes32(_teamNameWin);\n        bytes32 lose = stringToBytes32(_teamNameLose);\n        require(win == team1 || win == team2);\n        require(lose == team1 || lose == team2);\n\n        winnerTeamPureBalance = teamWeight[win];\n        teamWeight[win] += teamWeight[lose];\n        bettingTotalBalance = teamWeight[win];\n        teamWeight[lose] = 0;\n    }\n    //  ...\n    //   user   retrunBettingResultOver() \n    function returnBettingResult() public onlyAfterVersus returns(uint) {\n        require(teamNameWin != stringToBytes32('none'));\n\n        if (getUserVotedTeamName(msg.sender) == teamNameWin) {\n            uint amountToReturn = (voteBalanceOf(msg.sender) / winnerTeamPureBalance) * bettingTotalBalance;\n            userData[msg.sender].balance += amountToReturn;\n            teamWeight[teamNameWin] -= amountToReturn;\n\n            if (teamWeight[teamNameWin] == 0) {\n                returnBettingResultOver();\n            }\n            return amountToReturn;\n        }\n        userData[msg.sender].teamName = '';\n        userData[msg.sender].voteBalance = 0;\n        userData[msg.sender].voted = false;\n        return 0;\n    }\n    //     versus()  \n    function returnBettingResultOver() public onlyOwner onlyAfterVersus {\n        require(teamNameWin != stringToBytes32('none'));\n        totalSupply += teamWeight[teamNameWin];\n        teamWeight[teamNameWin] = 0;\n        \n        emit BettingResultOver();\n        teamNameWin = stringToBytes32('none');\n        versusExecuted = false;\n\n    }\n\n    function showVersusExecuted() public view returns(bool) {\n        return versusExecuted;\n    }\n}",
  "sourcePath": "/home/minkun/vote-main/src/contracts/Vote.sol",
  "compiler": {
    "name": "solc",
    "version": "0.8.18+commit.87f61d96.Emscripten.clang"
  },
  "schemaVersion": "3.4.14",
  "updatedAt": "2023-08-05T08:41:30.370Z",
  "networkType": "ethereum",
  "devdoc": {
    "kind": "dev",
    "methods": {},
    "version": 1
  },
  "userdoc": {
    "kind": "user",
    "methods": {},
    "version": 1
  }
}