{
  "contractName": "Vote",
  "abi": [
    {
      "anonymous": false,
      "inputs": [],
      "name": "BettingResultOver",
      "type": "event"
    },
    {
      "inputs": [
        {
          "internalType": "address",
          "name": "_address",
          "type": "address"
        }
      ],
      "name": "balanceOf",
      "outputs": [
        {
          "internalType": "uint256",
          "name": "",
          "type": "uint256"
        }
      ],
      "stateMutability": "view",
      "type": "function"
    },
    {
      "inputs": [],
      "name": "decimals",
      "outputs": [
        {
          "internalType": "uint8",
          "name": "",
          "type": "uint8"
        }
      ],
      "stateMutability": "view",
      "type": "function"
    },
    {
      "inputs": [
        {
          "internalType": "string",
          "name": "_teamName",
          "type": "string"
        }
      ],
      "name": "getTeamWeightByTeamName",
      "outputs": [
        {
          "internalType": "uint256",
          "name": "",
          "type": "uint256"
        }
      ],
      "stateMutability": "view",
      "type": "function"
    },
    {
      "inputs": [
        {
          "internalType": "address",
          "name": "_address",
          "type": "address"
        }
      ],
      "name": "getUserVotedTeamName",
      "outputs": [
        {
          "internalType": "bytes32",
          "name": "",
          "type": "bytes32"
        }
      ],
      "stateMutability": "view",
      "type": "function"
    },
    {
      "inputs": [],
      "name": "logIn",
      "outputs": [
        {
          "internalType": "uint256",
          "name": "",
          "type": "uint256"
        }
      ],
      "stateMutability": "nonpayable",
      "type": "function"
    },
    {
      "inputs": [],
      "name": "name",
      "outputs": [
        {
          "internalType": "string",
          "name": "",
          "type": "string"
        }
      ],
      "stateMutability": "view",
      "type": "function"
    },
    {
      "inputs": [],
      "name": "owner",
      "outputs": [
        {
          "internalType": "address",
          "name": "",
          "type": "address"
        }
      ],
      "stateMutability": "view",
      "type": "function"
    },
    {
      "inputs": [
        {
          "internalType": "string",
          "name": "_teamName",
          "type": "string"
        }
      ],
      "name": "setTeam",
      "outputs": [],
      "stateMutability": "nonpayable",
      "type": "function"
    },
    {
      "inputs": [],
      "name": "showOwner",
      "outputs": [
        {
          "internalType": "address",
          "name": "",
          "type": "address"
        }
      ],
      "stateMutability": "view",
      "type": "function"
    },
    {
      "inputs": [
        {
          "internalType": "string",
          "name": "source",
          "type": "string"
        }
      ],
      "name": "stringToBytes32",
      "outputs": [
        {
          "internalType": "bytes32",
          "name": "result",
          "type": "bytes32"
        }
      ],
      "stateMutability": "pure",
      "type": "function"
    },
    {
      "inputs": [],
      "name": "symbol",
      "outputs": [
        {
          "internalType": "string",
          "name": "",
          "type": "string"
        }
      ],
      "stateMutability": "view",
      "type": "function"
    },
    {
      "inputs": [],
      "name": "team1",
      "outputs": [
        {
          "internalType": "bytes32",
          "name": "",
          "type": "bytes32"
        }
      ],
      "stateMutability": "view",
      "type": "function"
    },
    {
      "inputs": [],
      "name": "team2",
      "outputs": [
        {
          "internalType": "bytes32",
          "name": "",
          "type": "bytes32"
        }
      ],
      "stateMutability": "view",
      "type": "function"
    },
    {
      "inputs": [],
      "name": "teamNameWin",
      "outputs": [
        {
          "internalType": "bytes32",
          "name": "",
          "type": "bytes32"
        }
      ],
      "stateMutability": "view",
      "type": "function"
    },
    {
      "inputs": [
        {
          "internalType": "bytes32",
          "name": "",
          "type": "bytes32"
        }
      ],
      "name": "teamSetted",
      "outputs": [
        {
          "internalType": "bool",
          "name": "",
          "type": "bool"
        }
      ],
      "stateMutability": "view",
      "type": "function"
    },
    {
      "inputs": [
        {
          "internalType": "bytes32",
          "name": "",
          "type": "bytes32"
        }
      ],
      "name": "teamWeight",
      "outputs": [
        {
          "internalType": "uint256",
          "name": "",
          "type": "uint256"
        }
      ],
      "stateMutability": "view",
      "type": "function"
    },
    {
      "inputs": [],
      "name": "totalSupply",
      "outputs": [
        {
          "internalType": "uint256",
          "name": "",
          "type": "uint256"
        }
      ],
      "stateMutability": "view",
      "type": "function"
    },
    {
      "inputs": [],
      "name": "versusExecuted",
      "outputs": [
        {
          "internalType": "bool",
          "name": "",
          "type": "bool"
        }
      ],
      "stateMutability": "view",
      "type": "function"
    },
    {
      "inputs": [
        {
          "internalType": "address",
          "name": "_address",
          "type": "address"
        }
      ],
      "name": "voteBalanceOf",
      "outputs": [
        {
          "internalType": "uint256",
          "name": "",
          "type": "uint256"
        }
      ],
      "stateMutability": "view",
      "type": "function"
    },
    {
      "inputs": [
        {
          "internalType": "string",
          "name": "_team1",
          "type": "string"
        },
        {
          "internalType": "string",
          "name": "_team2",
          "type": "string"
        }
      ],
      "name": "versus",
      "outputs": [],
      "stateMutability": "nonpayable",
      "type": "function"
    },
    {
      "inputs": [
        {
          "internalType": "string",
          "name": "_teamName",
          "type": "string"
        },
        {
          "internalType": "uint256",
          "name": "_amount",
          "type": "uint256"
        }
      ],
      "name": "vote",
      "outputs": [
        {
          "internalType": "bool",
          "name": "",
          "type": "bool"
        }
      ],
      "stateMutability": "nonpayable",
      "type": "function"
    },
    {
      "inputs": [
        {
          "internalType": "string",
          "name": "_teamNameWin",
          "type": "string"
        },
        {
          "internalType": "string",
          "name": "_teamNameLose",
          "type": "string"
        }
      ],
      "name": "gameEnd",
      "outputs": [],
      "stateMutability": "nonpayable",
      "type": "function"
    },
    {
      "inputs": [],
      "name": "returnBettingResult",
      "outputs": [
        {
          "internalType": "uint256",
          "name": "",
          "type": "uint256"
        }
      ],
      "stateMutability": "nonpayable",
      "type": "function"
    },
    {
      "inputs": [],
      "name": "returnBettingResultOver",
      "outputs": [],
      "stateMutability": "nonpayable",
      "type": "function"
    },
    {
      "inputs": [],
      "name": "showVersusExecuted",
      "outputs": [
        {
          "internalType": "bool",
          "name": "",
          "type": "bool"
        }
      ],
      "stateMutability": "view",
      "type": "function"
    },
    {
      "inputs": [],
      "name": "showMatchUp1",
      "outputs": [
        {
          "internalType": "bytes32",
          "name": "",
          "type": "bytes32"
        }
      ],
      "stateMutability": "view",
      "type": "function"
    },
    {
      "inputs": [],
      "name": "showMatchUp2",
      "outputs": [
        {
          "internalType": "bytes32",
          "name": "",
          "type": "bytes32"
        }
      ],
      "stateMutability": "view",
      "type": "function"
    }
  ],
  "bytecode": "0x608060405269d3c21bcecceda10000006000556012600160006101000a81548160ff021916908360ff1602179055506040518060400160405280600981526020017f6c6f6c20746f6b656e00000000000000000000000000000000000000000000008152506002908162000074919062000424565b506040518060400160405280600281526020017f6c7400000000000000000000000000000000000000000000000000000000000081525060039081620000bb919062000424565b5060006009556000600a556200010c6040518060400160405280600481526020017f6e6f6e65000000000000000000000000000000000000000000000000000000008152506200017f60201b60201c565b600d556000600e60006101000a81548160ff0219169083151502179055503480156200013757600080fd5b5033600460006101000a81548173ffffffffffffffffffffffffffffffffffffffff021916908373ffffffffffffffffffffffffffffffffffffffff1602179055506200050b565b60008082905060008151036200019c576000801b915050620001a5565b60208301519150505b919050565b600081519050919050565b7f4e487b7100000000000000000000000000000000000000000000000000000000600052604160045260246000fd5b7f4e487b7100000000000000000000000000000000000000000000000000000000600052602260045260246000fd5b600060028204905060018216806200022c57607f821691505b602082108103620002425762000241620001e4565b5b50919050565b60008190508160005260206000209050919050565b60006020601f8301049050919050565b600082821b905092915050565b600060088302620002ac7fffffffffffffffffffffffffffffffffffffffffffffffffffffffffffffffff826200026d565b620002b886836200026d565b95508019841693508086168417925050509392505050565b6000819050919050565b6000819050919050565b600062000305620002ff620002f984620002d0565b620002da565b620002d0565b9050919050565b6000819050919050565b6200032183620002e4565b6200033962000330826200030c565b8484546200027a565b825550505050565b600090565b6200035062000341565b6200035d81848462000316565b505050565b5b8181101562000385576200037960008262000346565b60018101905062000363565b5050565b601f821115620003d4576200039e8162000248565b620003a9846200025d565b81016020851015620003b9578190505b620003d1620003c8856200025d565b83018262000362565b50505b505050565b600082821c905092915050565b6000620003f960001984600802620003d9565b1980831691505092915050565b6000620004148383620003e6565b9150826002028217905092915050565b6200042f82620001aa565b67ffffffffffffffff8111156200044b576200044a620001b5565b5b62000457825462000213565b6200046482828562000389565b600060209050601f8311600181146200049c576000841562000487578287015190505b62000493858262000406565b86555062000503565b601f198416620004ac8662000248565b60005b82811015620004d657848901518255600182019150602085019450602081019050620004af565b86831015620004f65784890151620004f2601f891682620003e6565b8355505b6001600288020188555050505b505050505050565b612305806200051b6000396000f3fe608060405234801561001057600080fd5b50600436106101a95760003560e01c80638735741d116100f9578063b5c7faf611610097578063d8b9c50d11610071578063d8b9c50d146104d8578063ded94688146104f6578063e612c0ad14610514578063fec8738914610532576101a9565b8063b5c7faf61461046e578063cfb519281461048c578063d7e80eee146104bc576101a9565b806395d89b41116100d357806395d89b41146103e45780639c3cd53514610402578063a638580314610420578063a8285fdb14610450576101a9565b80638735741d1461038c5780638c8d2ede146103a85780638da5cb5b146103c6576101a9565b80632d82ee8b116101665780636ae2a1ca116101405780636ae2a1ca146102de57806370a08231146102fc578063792f97ae1461032c57806384ab8bb81461035c576101a9565b80632d82ee8b14610272578063313ce567146102a2578063377b47a3146102c0576101a9565b8063026bdfa1146101ae57806306fdde03146101de5780630b3f277f146101fc5780630e85b2941461020657806318160ddd146102245780632a57937a14610242575b600080fd5b6101c860048036038101906101c391906117d3565b61054e565b6040516101d59190611819565b60405180910390f35b6101e6610566565b6040516101f391906118c4565b60405180910390f35b6102046105f4565b005b61020e6107bd565b60405161021b9190611901565b60405180910390f35b61022c6107d4565b6040516102399190611819565b60405180910390f35b61025c600480360381019061025791906117d3565b6107da565b6040516102699190611901565b60405180910390f35b61028c60048036038101906102879190611981565b6107fa565b6040516102999190611819565b60405180910390f35b6102aa610864565b6040516102b791906119ea565b60405180910390f35b6102c8610877565b6040516102d59190611819565b60405180910390f35b6102e6610a8a565b6040516102f39190611901565b60405180910390f35b61031660048036038101906103119190611a63565b610a9d565b6040516103239190611819565b60405180910390f35b61034660048036038101906103419190611a63565b610ae9565b6040516103539190611a9f565b60405180910390f35b61037660048036038101906103719190611a63565b610b35565b6040516103839190611819565b60405180910390f35b6103a660048036038101906103a19190611981565b610b81565b005b6103b0610d04565b6040516103bd9190611a9f565b60405180910390f35b6103ce610d0a565b6040516103db9190611ac9565b60405180910390f35b6103ec610d30565b6040516103f991906118c4565b60405180910390f35b61040a610dbe565b6040516104179190611a9f565b60405180910390f35b61043a60048036038101906104359190611b10565b610dc4565b6040516104479190611901565b60405180910390f35b61045861111b565b6040516104659190611819565b60405180910390f35b610476611396565b6040516104839190611a9f565b60405180910390f35b6104a660048036038101906104a19190611ca0565b6113a0565b6040516104b39190611a9f565b60405180910390f35b6104d660048036038101906104d19190611ce9565b6113c9565b005b6104e06115e1565b6040516104ed9190611a9f565b60405180910390f35b6104fe6115eb565b60405161050b9190611ac9565b60405180910390f35b61051c611615565b6040516105299190611a9f565b60405180910390f35b61054c60048036038101906105479190611ce9565b61161b565b005b60076020528060005260406000206000915090505481565b6002805461057390611d99565b80601f016020809104026020016040519081016040528092919081815260200182805461059f90611d99565b80156105ec5780601f106105c1576101008083540402835291602001916105ec565b820191906000526020600020905b8154815290600101906020018083116105cf57829003601f168201915b505050505081565b600460009054906101000a900473ffffffffffffffffffffffffffffffffffffffff1673ffffffffffffffffffffffffffffffffffffffff163373ffffffffffffffffffffffffffffffffffffffff161461064e57600080fd5b600e60009054906101000a900460ff1661069d576040517f08c379a000000000000000000000000000000000000000000000000000000000815260040161069490611e16565b60405180910390fd5b6106db6040518060400160405280600481526020017f6e6f6e65000000000000000000000000000000000000000000000000000000008152506113a0565b600d54036106e857600080fd5b60076000600d5481526020019081526020016000205460008082825461070e9190611e65565b92505081905550600060076000600d548152602001908152602001600020819055507fb9965e294ca2529c415e9cb787ae63bc589f2db22057272aeb9800e2750a4fff60405160405180910390a161079a6040518060400160405280600481526020017f6e6f6e65000000000000000000000000000000000000000000000000000000008152506113a0565b600d819055506000600e60006101000a81548160ff021916908315150217905550565b6000600e60009054906101000a900460ff16905090565b60005481565b60086020528060005260406000206000915054906101000a900460ff1681565b60006007600061084d85858080601f016020809104026020016040519081016040528093929190818152602001838380828437600081840152601f19601f820116905080830192505050505050506113a0565b815260200190815260200160002054905092915050565b600160009054906101000a900460ff1681565b6000600660003373ffffffffffffffffffffffffffffffffffffffff1673ffffffffffffffffffffffffffffffffffffffff16815260200190815260200160002060009054906101000a900460ff1615610906576040517f08c379a00000000000000000000000000000000000000000000000000000000081526004016108fd90611ee5565b60405180910390fd5b678ac7230489e800006000541015610953576040517f08c379a000000000000000000000000000000000000000000000000000000000815260040161094a90611f51565b60405180910390fd5b6001600660003373ffffffffffffffffffffffffffffffffffffffff1673ffffffffffffffffffffffffffffffffffffffff16815260200190815260200160002060006101000a81548160ff0219169083151502179055506040518060800160405280678ac7230489e800008152602001600015158152602001600080191681526020016000815250600560003373ffffffffffffffffffffffffffffffffffffffff1673ffffffffffffffffffffffffffffffffffffffff1681526020019081526020016000206000820151816000015560208201518160010160006101000a81548160ff0219169083151502179055506040820151816002015560608201518160030155905050678ac7230489e80000600080828254610a759190611f71565b92505081905550610a8533610a9d565b905090565b600e60009054906101000a900460ff1681565b6000600560008373ffffffffffffffffffffffffffffffffffffffff1673ffffffffffffffffffffffffffffffffffffffff168152602001908152602001600020600001549050919050565b6000600560008373ffffffffffffffffffffffffffffffffffffffff1673ffffffffffffffffffffffffffffffffffffffff168152602001908152602001600020600201549050919050565b6000600560008373ffffffffffffffffffffffffffffffffffffffff1673ffffffffffffffffffffffffffffffffffffffff168152602001908152602001600020600301549050919050565b600460009054906101000a900473ffffffffffffffffffffffffffffffffffffffff1673ffffffffffffffffffffffffffffffffffffffff163373ffffffffffffffffffffffffffffffffffffffff1614610bdb57600080fd5b60008282905011610c21576040517f08c379a0000000000000000000000000000000000000000000000000000000008152600401610c1890611ff1565b60405180910390fd5b6000610c7083838080601f016020809104026020016040519081016040528093929190818152602001838380828437600081840152601f19601f820116905080830192505050505050506113a0565b90506008600082815260200190815260200160002060009054906101000a900460ff1615610cd3576040517f08c379a0000000000000000000000000000000000000000000000000000000008152600401610cca9061205d565b60405180910390fd5b60016008600083815260200190815260200160002060006101000a81548160ff021916908315150217905550505050565b600b5481565b600460009054906101000a900473ffffffffffffffffffffffffffffffffffffffff1681565b60038054610d3d90611d99565b80601f0160208091040260200160405190810160405280929190818152602001828054610d6990611d99565b8015610db65780601f10610d8b57610100808354040283529160200191610db6565b820191906000526020600020905b815481529060010190602001808311610d9957829003601f168201915b505050505081565b600d5481565b6000600e60009054906101000a900460ff16610e15576040517f08c379a0000000000000000000000000000000000000000000000000000000008152600401610e0c90611e16565b60405180910390fd5b600560003373ffffffffffffffffffffffffffffffffffffffff1673ffffffffffffffffffffffffffffffffffffffff16815260200190815260200160002060010160009054906101000a900460ff1615610ea5576040517f08c379a0000000000000000000000000000000000000000000000000000000008152600401610e9c906120c9565b60405180910390fd5b81610eaf33610a9d565b1015610ef0576040517f08c379a0000000000000000000000000000000000000000000000000000000008152600401610ee790612135565b60405180910390fd5b6000610f3f85858080601f016020809104026020016040519081016040528093929190818152602001838380828437600081840152601f19601f820116905080830192505050505050506113a0565b9050600b54811480610f525750600c5481145b610f91576040517f08c379a0000000000000000000000000000000000000000000000000000000008152600401610f88906121a1565b60405180910390fd5b82600560003373ffffffffffffffffffffffffffffffffffffffff1673ffffffffffffffffffffffffffffffffffffffff1681526020019081526020016000206000016000828254610fe39190611f71565b925050819055508260076000838152602001908152602001600020600082825461100d9190611e65565b9250508190555082600560003373ffffffffffffffffffffffffffffffffffffffff1673ffffffffffffffffffffffffffffffffffffffff16815260200190815260200160002060030160008282546110669190611e65565b925050819055506001600560003373ffffffffffffffffffffffffffffffffffffffff1673ffffffffffffffffffffffffffffffffffffffff16815260200190815260200160002060010160006101000a81548160ff02191690831515021790555080600560003373ffffffffffffffffffffffffffffffffffffffff1673ffffffffffffffffffffffffffffffffffffffff1681526020019081526020016000206002018190555060019150509392505050565b6000600e60009054906101000a900460ff1661116c576040517f08c379a000000000000000000000000000000000000000000000000000000000815260040161116390611e16565b60405180910390fd5b6111aa6040518060400160405280600481526020017f6e6f6e65000000000000000000000000000000000000000000000000000000008152506113a0565b600d54036111b757600080fd5b600d546111c333610ae9565b036112a3576000600954600a546111d933610b35565b6111e391906121f0565b6111ed9190612221565b905080600560003373ffffffffffffffffffffffffffffffffffffffff1673ffffffffffffffffffffffffffffffffffffffff16815260200190815260200160002060000160008282546112419190611e65565b925050819055508060076000600d548152602001908152602001600020600082825461126d9190611f71565b92505081905550600060076000600d548152602001908152602001600020540361129a576112996105f4565b5b80915050611393565b6000600560003373ffffffffffffffffffffffffffffffffffffffff1673ffffffffffffffffffffffffffffffffffffffff168152602001908152602001600020600201819055506000600560003373ffffffffffffffffffffffffffffffffffffffff1673ffffffffffffffffffffffffffffffffffffffff168152602001908152602001600020600301819055506000600560003373ffffffffffffffffffffffffffffffffffffffff1673ffffffffffffffffffffffffffffffffffffffff16815260200190815260200160002060010160006101000a81548160ff021916908315150217905550600090505b90565b6000600b54905090565b60008082905060008151036113bb576000801b9150506113c4565b60208301519150505b919050565b600e60009054906101000a900460ff16611418576040517f08c379a000000000000000000000000000000000000000000000000000000000815260040161140f90611e16565b60405180910390fd5b600460009054906101000a900473ffffffffffffffffffffffffffffffffffffffff1673ffffffffffffffffffffffffffffffffffffffff163373ffffffffffffffffffffffffffffffffffffffff161461147257600080fd5b60006114c185858080601f016020809104026020016040519081016040528093929190818152602001838380828437600081840152601f19601f820116905080830192505050505050506113a0565b9050600061151284848080601f016020809104026020016040519081016040528093929190818152602001838380828437600081840152601f19601f820116905080830192505050505050506113a0565b9050600b548214806115255750600c5482145b61152e57600080fd5b600b5481148061153f5750600c5481145b61154857600080fd5b81600d819055506007600083815260200190815260200160002054600a81905550600760008281526020019081526020016000205460076000848152602001908152602001600020600082825461159f9190611e65565b92505081905550600760008381526020019081526020016000205460098190555060006007600083815260200190815260200160002081905550505050505050565b6000600c54905090565b6000600460009054906101000a900473ffffffffffffffffffffffffffffffffffffffff16905090565b600c5481565b600e60009054906101000a900460ff161561166b576040517f08c379a0000000000000000000000000000000000000000000000000000000008152600401611662906122af565b60405180910390fd5b6116b884848080601f016020809104026020016040519081016040528093929190818152602001838380828437600081840152601f19601f820116905080830192505050505050506113a0565b600b8190555061170b82828080601f016020809104026020016040519081016040528093929190818152602001838380828437600081840152601f19601f820116905080830192505050505050506113a0565b600c8190555060086000600b54815260200190815260200160002060009054906101000a900460ff16801561175f575060086000600c54815260200190815260200160002060009054906101000a900460ff165b61176857600080fd5b6001600e60006101000a81548160ff02191690831515021790555050505050565b6000604051905090565b600080fd5b600080fd5b6000819050919050565b6117b08161179d565b81146117bb57600080fd5b50565b6000813590506117cd816117a7565b92915050565b6000602082840312156117e9576117e8611793565b5b60006117f7848285016117be565b91505092915050565b6000819050919050565b61181381611800565b82525050565b600060208201905061182e600083018461180a565b92915050565b600081519050919050565b600082825260208201905092915050565b60005b8381101561186e578082015181840152602081019050611853565b60008484015250505050565b6000601f19601f8301169050919050565b600061189682611834565b6118a0818561183f565b93506118b0818560208601611850565b6118b98161187a565b840191505092915050565b600060208201905081810360008301526118de818461188b565b905092915050565b60008115159050919050565b6118fb816118e6565b82525050565b600060208201905061191660008301846118f2565b92915050565b600080fd5b600080fd5b600080fd5b60008083601f8401126119415761194061191c565b5b8235905067ffffffffffffffff81111561195e5761195d611921565b5b60208301915083600182028301111561197a57611979611926565b5b9250929050565b6000806020838503121561199857611997611793565b5b600083013567ffffffffffffffff8111156119b6576119b5611798565b5b6119c28582860161192b565b92509250509250929050565b600060ff82169050919050565b6119e4816119ce565b82525050565b60006020820190506119ff60008301846119db565b92915050565b600073ffffffffffffffffffffffffffffffffffffffff82169050919050565b6000611a3082611a05565b9050919050565b611a4081611a25565b8114611a4b57600080fd5b50565b600081359050611a5d81611a37565b92915050565b600060208284031215611a7957611a78611793565b5b6000611a8784828501611a4e565b91505092915050565b611a998161179d565b82525050565b6000602082019050611ab46000830184611a90565b92915050565b611ac381611a25565b82525050565b6000602082019050611ade6000830184611aba565b92915050565b611aed81611800565b8114611af857600080fd5b50565b600081359050611b0a81611ae4565b92915050565b600080600060408486031215611b2957611b28611793565b5b600084013567ffffffffffffffff811115611b4757611b46611798565b5b611b538682870161192b565b93509350506020611b6686828701611afb565b9150509250925092565b600080fd5b7f4e487b7100000000000000000000000000000000000000000000000000000000600052604160045260246000fd5b611bad8261187a565b810181811067ffffffffffffffff82111715611bcc57611bcb611b75565b5b80604052505050565b6000611bdf611789565b9050611beb8282611ba4565b919050565b600067ffffffffffffffff821115611c0b57611c0a611b75565b5b611c148261187a565b9050602081019050919050565b82818337600083830152505050565b6000611c43611c3e84611bf0565b611bd5565b905082815260208101848484011115611c5f57611c5e611b70565b5b611c6a848285611c21565b509392505050565b600082601f830112611c8757611c8661191c565b5b8135611c97848260208601611c30565b91505092915050565b600060208284031215611cb657611cb5611793565b5b600082013567ffffffffffffffff811115611cd457611cd3611798565b5b611ce084828501611c72565b91505092915050565b60008060008060408587031215611d0357611d02611793565b5b600085013567ffffffffffffffff811115611d2157611d20611798565b5b611d2d8782880161192b565b9450945050602085013567ffffffffffffffff811115611d5057611d4f611798565b5b611d5c8782880161192b565b925092505092959194509250565b7f4e487b7100000000000000000000000000000000000000000000000000000000600052602260045260246000fd5b60006002820490506001821680611db157607f821691505b602082108103611dc457611dc3611d6a565b5b50919050565b7f56657273757320686173206e6f74206265656e20657865637574656420796574600082015250565b6000611e0060208361183f565b9150611e0b82611dca565b602082019050919050565b60006020820190508181036000830152611e2f81611df3565b9050919050565b7f4e487b7100000000000000000000000000000000000000000000000000000000600052601160045260246000fd5b6000611e7082611800565b9150611e7b83611800565b9250828201905080821115611e9357611e92611e36565b5b92915050565b7f596f75206861766520616c726561647920726567697374657265640000000000600082015250565b6000611ecf601b8361183f565b9150611eda82611e99565b602082019050919050565b60006020820190508181036000830152611efe81611ec2565b9050919050565b7f4e6f7420656e6f75676820746f74616c537570706c7921000000000000000000600082015250565b6000611f3b60178361183f565b9150611f4682611f05565b602082019050919050565b60006020820190508181036000830152611f6a81611f2e565b9050919050565b6000611f7c82611800565b9150611f8783611800565b9250828203905081811115611f9f57611f9e611e36565b5b92915050565b7f5465616d206e616d652063616e6e6f7420626520656d70747900000000000000600082015250565b6000611fdb60198361183f565b9150611fe682611fa5565b602082019050919050565b6000602082019050818103600083015261200a81611fce565b9050919050565b7f5465616d206e616d6520616c7265616479206578697374730000000000000000600082015250565b600061204760188361183f565b915061205282612011565b602082019050919050565b600060208201905081810360008301526120768161203a565b9050919050565b7f596f75206861766520616c726561647920766f74656421000000000000000000600082015250565b60006120b360178361183f565b91506120be8261207d565b602082019050919050565b600060208201905081810360008301526120e2816120a6565b9050919050565b7f4e6f7420656e6f75676820746f6b656e73210000000000000000000000000000600082015250565b600061211f60128361183f565b915061212a826120e9565b602082019050919050565b6000602082019050818103600083015261214e81612112565b9050919050565b7f496e76616c6964207465616d206e616d65210000000000000000000000000000600082015250565b600061218b60128361183f565b915061219682612155565b602082019050919050565b600060208201905081810360008301526121ba8161217e565b9050919050565b7f4e487b7100000000000000000000000000000000000000000000000000000000600052601260045260246000fd5b60006121fb82611800565b915061220683611800565b925082612216576122156121c1565b5b828204905092915050565b600061222c82611800565b915061223783611800565b925082820261224581611800565b9150828204841483151761225c5761225b611e36565b5b5092915050565b7f5665727375732068617320616c7265616479206265656e206578656375746564600082015250565b600061229960208361183f565b91506122a482612263565b602082019050919050565b600060208201905081810360008301526122c88161228c565b905091905056fea264697066735822122039553c6053b080449aa72ad66040275d98fe1687cb6db88d8251c1c164d1ba7e64736f6c63430008120033",
  "immutableReferences": {},
  "source": "// SPDX-License-Identifier: MIT\npragma solidity >=0.8.18<0.9.0; //>=0.8.18 <0.9.0\nimport './SetTeam.sol';\n// Vote.sol\n\ncontract Vote is SetTeam {\n    // vote.sol function versus( )   \n    //        betting result  \n    bytes32 public team1;  \n    bytes32 public team2;\n    //    , default : 'none'\n    bytes32 public teamNameWin = stringToBytes32('none');\n    // versus       modifier ,   bool \n    // versus  : false , versus  : true , returnBettingResultOver()   false...\n    bool public versusExecuted = false;\n    // returnBettingResult() returnBettingResultOver    \n    // react   .( returnBettingResultOver  )\n    event BettingResultOver();\n    // versus  \n    modifier onlyBeforeVersus() {\n        require(!versusExecuted, \"Versus has already been executed\");\n        _;\n    }\n    // versus  \n    modifier onlyAfterVersus() {\n        require(versusExecuted, \"Versus has not been executed yet\");\n        _;\n    }\n    // team1, team2 \n    function versus(string calldata _team1, string calldata _team2) public onlyBeforeVersus {\n        team1 = stringToBytes32(_team1);\n        team2 = stringToBytes32(_team2);\n        require(teamSetted[team1] && teamSetted[team2]);\n\n        versusExecuted = true;\n    }\n    // vote  ( )\n    function vote(string calldata _teamName, uint _amount) public onlyAfterVersus returns (bool) {\n        require(!userData[msg.sender].voted, \"You have already voted!\");\n        require(balanceOf(msg.sender) >= _amount, \"Not enough tokens!\");\n        \n        bytes32 teamName = stringToBytes32(_teamName);\n        require(teamName == team1 || teamName == team2, \"Invalid team name!\");\n\n        userData[msg.sender].balance -= _amount;\n        teamWeight[teamName] += _amount;\n\n        userData[msg.sender].voteBalance += _amount;\n\n        userData[msg.sender].voted = true;\n        userData[msg.sender].teamName = teamName;\n\n        return true;\n    }\n    // game end :  \n    function gameEnd(string calldata _teamNameWin, string calldata _teamNameLose) public onlyAfterVersus onlyOwner {\n        bytes32 win = stringToBytes32(_teamNameWin);\n        bytes32 lose = stringToBytes32(_teamNameLose);\n        require(win == team1 || win == team2);\n        require(lose == team1 || lose == team2);\n        teamNameWin = win;\n        winnerTeamPureBalance = teamWeight[win];\n        teamWeight[win] += teamWeight[lose];\n        bettingTotalBalance = teamWeight[win];\n        teamWeight[lose] = 0;\n    }\n    //  ...\n    //   user   retrunBettingResultOver() \n    function returnBettingResult() public onlyAfterVersus returns(uint) {\n        require(teamNameWin != stringToBytes32('none'));\n\n        if (getUserVotedTeamName(msg.sender) == teamNameWin) {\n            uint amountToReturn = (voteBalanceOf(msg.sender) / winnerTeamPureBalance) * bettingTotalBalance;\n            userData[msg.sender].balance += amountToReturn;\n            teamWeight[teamNameWin] -= amountToReturn;\n\n            if (teamWeight[teamNameWin] == 0) {\n                returnBettingResultOver();\n            }\n            return amountToReturn;\n        }\n        userData[msg.sender].teamName = '';\n        userData[msg.sender].voteBalance = 0;\n        userData[msg.sender].voted = false;\n        return 0;\n    }\n    //     versus()  \n    function returnBettingResultOver() public onlyOwner onlyAfterVersus {\n        require(teamNameWin != stringToBytes32('none'));\n        totalSupply += teamWeight[teamNameWin];\n        teamWeight[teamNameWin] = 0;\n        \n        emit BettingResultOver();\n        teamNameWin = stringToBytes32('none');\n        versusExecuted = false;\n\n    }\n\n    function showVersusExecuted() public view returns(bool) {\n        return versusExecuted;\n    }\n\n    function showMatchUp1() public view returns(bytes32) {\n        return team1;\n    }\n    function showMatchUp2() public view returns(bytes32) {\n        return team2;\n    }\n}",
  "sourcePath": "/home/sligh/projectBlockChain/Betting/src/contracts/Vote.sol",
  "compiler": {
    "name": "solc",
    "version": "0.8.18+commit.87f61d96.Emscripten.clang"
  },
  "schemaVersion": "3.4.14",
  "updatedAt": "2023-08-08T09:43:07.518Z",
  "devdoc": {
    "kind": "dev",
    "methods": {},
    "version": 1
  },
  "userdoc": {
    "kind": "user",
    "methods": {},
    "version": 1
  }
}