{
  "contractName": "Vote",
  "abi": [
    {
      "anonymous": false,
      "inputs": [],
      "name": "BettingResultOver",
      "type": "event"
    },
    {
      "inputs": [
        {
          "internalType": "address",
          "name": "_address",
          "type": "address"
        }
      ],
      "name": "balanceOf",
      "outputs": [
        {
          "internalType": "uint256",
          "name": "",
          "type": "uint256"
        }
      ],
      "stateMutability": "view",
      "type": "function",
      "constant": true
    },
    {
      "inputs": [],
      "name": "decimals",
      "outputs": [
        {
          "internalType": "uint8",
          "name": "",
          "type": "uint8"
        }
      ],
      "stateMutability": "view",
      "type": "function",
      "constant": true
    },
    {
      "inputs": [
        {
          "internalType": "string",
          "name": "_teamName",
          "type": "string"
        }
      ],
      "name": "getTeamWeightByTeamName",
      "outputs": [
        {
          "internalType": "uint256",
          "name": "",
          "type": "uint256"
        }
      ],
      "stateMutability": "view",
      "type": "function",
      "constant": true
    },
    {
      "inputs": [
        {
          "internalType": "address",
          "name": "_address",
          "type": "address"
        }
      ],
      "name": "getUserVotedTeamName",
      "outputs": [
        {
          "internalType": "bytes32",
          "name": "",
          "type": "bytes32"
        }
      ],
      "stateMutability": "view",
      "type": "function",
      "constant": true
    },
    {
      "inputs": [],
      "name": "logIn",
      "outputs": [
        {
          "internalType": "uint256",
          "name": "",
          "type": "uint256"
        }
      ],
      "stateMutability": "nonpayable",
      "type": "function"
    },
    {
      "inputs": [],
      "name": "name",
      "outputs": [
        {
          "internalType": "string",
          "name": "",
          "type": "string"
        }
      ],
      "stateMutability": "view",
      "type": "function",
      "constant": true
    },
    {
      "inputs": [],
      "name": "owner",
      "outputs": [
        {
          "internalType": "address",
          "name": "",
          "type": "address"
        }
      ],
      "stateMutability": "view",
      "type": "function",
      "constant": true
    },
    {
      "inputs": [],
      "name": "showOwner",
      "outputs": [
        {
          "internalType": "address",
          "name": "",
          "type": "address"
        }
      ],
      "stateMutability": "view",
      "type": "function",
      "constant": true
    },
    {
      "inputs": [
        {
          "internalType": "string",
          "name": "source",
          "type": "string"
        }
      ],
      "name": "stringToBytes32",
      "outputs": [
        {
          "internalType": "bytes32",
          "name": "result",
          "type": "bytes32"
        }
      ],
      "stateMutability": "pure",
      "type": "function",
      "constant": true
    },
    {
      "inputs": [],
      "name": "symbol",
      "outputs": [
        {
          "internalType": "string",
          "name": "",
          "type": "string"
        }
      ],
      "stateMutability": "view",
      "type": "function",
      "constant": true
    },
    {
      "inputs": [],
      "name": "team1",
      "outputs": [
        {
          "internalType": "bytes32",
          "name": "",
          "type": "bytes32"
        }
      ],
      "stateMutability": "view",
      "type": "function",
      "constant": true
    },
    {
      "inputs": [],
      "name": "team2",
      "outputs": [
        {
          "internalType": "bytes32",
          "name": "",
          "type": "bytes32"
        }
      ],
      "stateMutability": "view",
      "type": "function",
      "constant": true
    },
    {
      "inputs": [],
      "name": "teamNameWin",
      "outputs": [
        {
          "internalType": "bytes32",
          "name": "",
          "type": "bytes32"
        }
      ],
      "stateMutability": "view",
      "type": "function",
      "constant": true
    },
    {
      "inputs": [
        {
          "internalType": "bytes32",
          "name": "",
          "type": "bytes32"
        }
      ],
      "name": "teamWeight",
      "outputs": [
        {
          "internalType": "uint256",
          "name": "",
          "type": "uint256"
        }
      ],
      "stateMutability": "view",
      "type": "function",
      "constant": true
    },
    {
      "inputs": [],
      "name": "totalSupply",
      "outputs": [
        {
          "internalType": "uint256",
          "name": "",
          "type": "uint256"
        }
      ],
      "stateMutability": "view",
      "type": "function",
      "constant": true
    },
    {
      "inputs": [],
      "name": "versusExecuted",
      "outputs": [
        {
          "internalType": "bool",
          "name": "",
          "type": "bool"
        }
      ],
      "stateMutability": "view",
      "type": "function",
      "constant": true
    },
    {
      "inputs": [
        {
          "internalType": "address",
          "name": "_address",
          "type": "address"
        }
      ],
      "name": "voteBalanceOf",
      "outputs": [
        {
          "internalType": "uint256",
          "name": "",
          "type": "uint256"
        }
      ],
      "stateMutability": "view",
      "type": "function",
      "constant": true
    },
    {
      "inputs": [
        {
          "internalType": "string",
          "name": "_team1",
          "type": "string"
        },
        {
          "internalType": "string",
          "name": "_team2",
          "type": "string"
        }
      ],
      "name": "versus",
      "outputs": [],
      "stateMutability": "nonpayable",
      "type": "function"
    },
    {
      "inputs": [
        {
          "internalType": "string",
          "name": "_teamName",
          "type": "string"
        },
        {
          "internalType": "uint256",
          "name": "_amount",
          "type": "uint256"
        }
      ],
      "name": "vote",
      "outputs": [
        {
          "internalType": "bool",
          "name": "",
          "type": "bool"
        }
      ],
      "stateMutability": "nonpayable",
      "type": "function"
    },
    {
      "inputs": [
        {
          "internalType": "string",
          "name": "_teamNameWin",
          "type": "string"
        },
        {
          "internalType": "string",
          "name": "_teamNameLose",
          "type": "string"
        }
      ],
      "name": "gameEnd",
      "outputs": [],
      "stateMutability": "nonpayable",
      "type": "function"
    },
    {
      "inputs": [],
      "name": "returnBettingResult",
      "outputs": [
        {
          "internalType": "uint256",
          "name": "",
          "type": "uint256"
        }
      ],
      "stateMutability": "nonpayable",
      "type": "function"
    },
    {
      "inputs": [],
      "name": "returnBettingResultOver",
      "outputs": [],
      "stateMutability": "nonpayable",
      "type": "function"
    },
    {
      "inputs": [],
      "name": "showVersusExecuted",
      "outputs": [
        {
          "internalType": "bool",
          "name": "",
          "type": "bool"
        }
      ],
      "stateMutability": "view",
      "type": "function",
      "constant": true
    },
    {
      "inputs": [],
      "name": "showMatchUp1",
      "outputs": [
        {
          "internalType": "bytes32",
          "name": "",
          "type": "bytes32"
        }
      ],
      "stateMutability": "view",
      "type": "function",
      "constant": true
    },
    {
      "inputs": [],
      "name": "showMatchUp2",
      "outputs": [
        {
          "internalType": "bytes32",
          "name": "",
          "type": "bytes32"
        }
      ],
      "stateMutability": "view",
      "type": "function",
      "constant": true
    }
  ],
  "bytecode": "0x608060405269d3c21bcecceda10000006000556012600160006101000a81548160ff021916908360ff1602179055506040518060400160405280600981526020017f6c6f6c20746f6b656e00000000000000000000000000000000000000000000008152506002908162000074919062000424565b506040518060400160405280600281526020017f6c7400000000000000000000000000000000000000000000000000000000000081525060039081620000bb919062000424565b50600060085560006009556200010c6040518060400160405280600481526020017f6e6f6e65000000000000000000000000000000000000000000000000000000008152506200017f60201b60201c565b600c556000600d60006101000a81548160ff0219169083151502179055503480156200013757600080fd5b5033600460006101000a81548173ffffffffffffffffffffffffffffffffffffffff021916908373ffffffffffffffffffffffffffffffffffffffff1602179055506200050b565b60008082905060008151036200019c576000801b915050620001a5565b60208301519150505b919050565b600081519050919050565b7f4e487b7100000000000000000000000000000000000000000000000000000000600052604160045260246000fd5b7f4e487b7100000000000000000000000000000000000000000000000000000000600052602260045260246000fd5b600060028204905060018216806200022c57607f821691505b602082108103620002425762000241620001e4565b5b50919050565b60008190508160005260206000209050919050565b60006020601f8301049050919050565b600082821b905092915050565b600060088302620002ac7fffffffffffffffffffffffffffffffffffffffffffffffffffffffffffffffff826200026d565b620002b886836200026d565b95508019841693508086168417925050509392505050565b6000819050919050565b6000819050919050565b600062000305620002ff620002f984620002d0565b620002da565b620002d0565b9050919050565b6000819050919050565b6200032183620002e4565b6200033962000330826200030c565b8484546200027a565b825550505050565b600090565b6200035062000341565b6200035d81848462000316565b505050565b5b8181101562000385576200037960008262000346565b60018101905062000363565b5050565b601f821115620003d4576200039e8162000248565b620003a9846200025d565b81016020851015620003b9578190505b620003d1620003c8856200025d565b83018262000362565b50505b505050565b600082821c905092915050565b6000620003f960001984600802620003d9565b1980831691505092915050565b6000620004148383620003e6565b9150826002028217905092915050565b6200042f82620001aa565b67ffffffffffffffff8111156200044b576200044a620001b5565b5b62000457825462000213565b6200046482828562000389565b600060209050601f8311600181146200049c576000841562000487578287015190505b62000493858262000406565b86555062000503565b601f198416620004ac8662000248565b60005b82811015620004d657848901518255600182019150602085019450602081019050620004af565b86831015620004f65784890151620004f2601f891682620003e6565b8355505b6001600288020188555050505b505050505050565b611fb1806200051b6000396000f3fe608060405234801561001057600080fd5b50600436106101735760003560e01c80638c8d2ede116100de578063b5c7faf611610097578063d8b9c50d11610071578063d8b9c50d14610456578063ded9468814610474578063e612c0ad14610492578063fec87389146104b057610173565b8063b5c7faf6146103ec578063cfb519281461040a578063d7e80eee1461043a57610173565b80638c8d2ede146103265780638da5cb5b1461034457806395d89b41146103625780639c3cd53514610380578063a63858031461039e578063a8285fdb146103ce57610173565b8063313ce56711610130578063313ce5671461023c578063377b47a31461025a5780636ae2a1ca1461027857806370a0823114610296578063792f97ae146102c657806384ab8bb8146102f657610173565b8063026bdfa11461017857806306fdde03146101a85780630b3f277f146101c65780630e85b294146101d057806318160ddd146101ee5780632d82ee8b1461020c575b600080fd5b610192600480360381019061018d9190611557565b6104cc565b60405161019f919061159d565b60405180910390f35b6101b06104e4565b6040516101bd9190611648565b60405180910390f35b6101ce610572565b005b6101d861073b565b6040516101e59190611685565b60405180910390f35b6101f6610752565b604051610203919061159d565b60405180910390f35b61022660048036038101906102219190611705565b610758565b604051610233919061159d565b60405180910390f35b6102446107c2565b604051610251919061176e565b60405180910390f35b6102626107d5565b60405161026f919061159d565b60405180910390f35b6102806109e8565b60405161028d9190611685565b60405180910390f35b6102b060048036038101906102ab91906117e7565b6109fb565b6040516102bd919061159d565b60405180910390f35b6102e060048036038101906102db91906117e7565b610a47565b6040516102ed9190611823565b60405180910390f35b610310600480360381019061030b91906117e7565b610a93565b60405161031d919061159d565b60405180910390f35b61032e610adf565b60405161033b9190611823565b60405180910390f35b61034c610ae5565b604051610359919061184d565b60405180910390f35b61036a610b0b565b6040516103779190611648565b60405180910390f35b610388610b99565b6040516103959190611823565b60405180910390f35b6103b860048036038101906103b39190611894565b610b9f565b6040516103c59190611685565b60405180910390f35b6103d6610ef6565b6040516103e3919061159d565b60405180910390f35b6103f4611171565b6040516104019190611823565b60405180910390f35b610424600480360381019061041f9190611a24565b61117b565b6040516104319190611823565b60405180910390f35b610454600480360381019061044f9190611a6d565b6111a4565b005b61045e6113bc565b60405161046b9190611823565b60405180910390f35b61047c6113c6565b604051610489919061184d565b60405180910390f35b61049a6113f0565b6040516104a79190611823565b60405180910390f35b6104ca60048036038101906104c59190611a6d565b6113f6565b005b60076020528060005260406000206000915090505481565b600280546104f190611b1d565b80601f016020809104026020016040519081016040528092919081815260200182805461051d90611b1d565b801561056a5780601f1061053f5761010080835404028352916020019161056a565b820191906000526020600020905b81548152906001019060200180831161054d57829003601f168201915b505050505081565b600460009054906101000a900473ffffffffffffffffffffffffffffffffffffffff1673ffffffffffffffffffffffffffffffffffffffff163373ffffffffffffffffffffffffffffffffffffffff16146105cc57600080fd5b600d60009054906101000a900460ff1661061b576040517f08c379a000000000000000000000000000000000000000000000000000000000815260040161061290611b9a565b60405180910390fd5b6106596040518060400160405280600481526020017f6e6f6e650000000000000000000000000000000000000000000000000000000081525061117b565b600c540361066657600080fd5b60076000600c5481526020019081526020016000205460008082825461068c9190611be9565b92505081905550600060076000600c548152602001908152602001600020819055507fb9965e294ca2529c415e9cb787ae63bc589f2db22057272aeb9800e2750a4fff60405160405180910390a16107186040518060400160405280600481526020017f6e6f6e650000000000000000000000000000000000000000000000000000000081525061117b565b600c819055506000600d60006101000a81548160ff021916908315150217905550565b6000600d60009054906101000a900460ff16905090565b60005481565b6000600760006107ab85858080601f016020809104026020016040519081016040528093929190818152602001838380828437600081840152601f19601f8201169050808301925050505050505061117b565b815260200190815260200160002054905092915050565b600160009054906101000a900460ff1681565b6000600660003373ffffffffffffffffffffffffffffffffffffffff1673ffffffffffffffffffffffffffffffffffffffff16815260200190815260200160002060009054906101000a900460ff1615610864576040517f08c379a000000000000000000000000000000000000000000000000000000000815260040161085b90611c69565b60405180910390fd5b678ac7230489e8000060005410156108b1576040517f08c379a00000000000000000000000000000000000000000000000000000000081526004016108a890611cd5565b60405180910390fd5b6001600660003373ffffffffffffffffffffffffffffffffffffffff1673ffffffffffffffffffffffffffffffffffffffff16815260200190815260200160002060006101000a81548160ff0219169083151502179055506040518060800160405280678ac7230489e800008152602001600015158152602001600080191681526020016000815250600560003373ffffffffffffffffffffffffffffffffffffffff1673ffffffffffffffffffffffffffffffffffffffff1681526020019081526020016000206000820151816000015560208201518160010160006101000a81548160ff0219169083151502179055506040820151816002015560608201518160030155905050678ac7230489e800006000808282546109d39190611cf5565b925050819055506109e3336109fb565b905090565b600d60009054906101000a900460ff1681565b6000600560008373ffffffffffffffffffffffffffffffffffffffff1673ffffffffffffffffffffffffffffffffffffffff168152602001908152602001600020600001549050919050565b6000600560008373ffffffffffffffffffffffffffffffffffffffff1673ffffffffffffffffffffffffffffffffffffffff168152602001908152602001600020600201549050919050565b6000600560008373ffffffffffffffffffffffffffffffffffffffff1673ffffffffffffffffffffffffffffffffffffffff168152602001908152602001600020600301549050919050565b600a5481565b600460009054906101000a900473ffffffffffffffffffffffffffffffffffffffff1681565b60038054610b1890611b1d565b80601f0160208091040260200160405190810160405280929190818152602001828054610b4490611b1d565b8015610b915780601f10610b6657610100808354040283529160200191610b91565b820191906000526020600020905b815481529060010190602001808311610b7457829003601f168201915b505050505081565b600c5481565b6000600d60009054906101000a900460ff16610bf0576040517f08c379a0000000000000000000000000000000000000000000000000000000008152600401610be790611b9a565b60405180910390fd5b600560003373ffffffffffffffffffffffffffffffffffffffff1673ffffffffffffffffffffffffffffffffffffffff16815260200190815260200160002060010160009054906101000a900460ff1615610c80576040517f08c379a0000000000000000000000000000000000000000000000000000000008152600401610c7790611d75565b60405180910390fd5b81610c8a336109fb565b1015610ccb576040517f08c379a0000000000000000000000000000000000000000000000000000000008152600401610cc290611de1565b60405180910390fd5b6000610d1a85858080601f016020809104026020016040519081016040528093929190818152602001838380828437600081840152601f19601f8201169050808301925050505050505061117b565b9050600a54811480610d2d5750600b5481145b610d6c576040517f08c379a0000000000000000000000000000000000000000000000000000000008152600401610d6390611e4d565b60405180910390fd5b82600560003373ffffffffffffffffffffffffffffffffffffffff1673ffffffffffffffffffffffffffffffffffffffff1681526020019081526020016000206000016000828254610dbe9190611cf5565b9250508190555082600760008381526020019081526020016000206000828254610de89190611be9565b9250508190555082600560003373ffffffffffffffffffffffffffffffffffffffff1673ffffffffffffffffffffffffffffffffffffffff1681526020019081526020016000206003016000828254610e419190611be9565b925050819055506001600560003373ffffffffffffffffffffffffffffffffffffffff1673ffffffffffffffffffffffffffffffffffffffff16815260200190815260200160002060010160006101000a81548160ff02191690831515021790555080600560003373ffffffffffffffffffffffffffffffffffffffff1673ffffffffffffffffffffffffffffffffffffffff1681526020019081526020016000206002018190555060019150509392505050565b6000600d60009054906101000a900460ff16610f47576040517f08c379a0000000000000000000000000000000000000000000000000000000008152600401610f3e90611b9a565b60405180910390fd5b610f856040518060400160405280600481526020017f6e6f6e650000000000000000000000000000000000000000000000000000000081525061117b565b600c5403610f9257600080fd5b600c54610f9e33610a47565b0361107e576000600854600954610fb433610a93565b610fbe9190611e9c565b610fc89190611ecd565b905080600560003373ffffffffffffffffffffffffffffffffffffffff1673ffffffffffffffffffffffffffffffffffffffff168152602001908152602001600020600001600082825461101c9190611be9565b925050819055508060076000600c54815260200190815260200160002060008282546110489190611cf5565b92505081905550600060076000600c548152602001908152602001600020540361107557611074610572565b5b8091505061116e565b6000600560003373ffffffffffffffffffffffffffffffffffffffff1673ffffffffffffffffffffffffffffffffffffffff168152602001908152602001600020600201819055506000600560003373ffffffffffffffffffffffffffffffffffffffff1673ffffffffffffffffffffffffffffffffffffffff168152602001908152602001600020600301819055506000600560003373ffffffffffffffffffffffffffffffffffffffff1673ffffffffffffffffffffffffffffffffffffffff16815260200190815260200160002060010160006101000a81548160ff021916908315150217905550600090505b90565b6000600a54905090565b6000808290506000815103611196576000801b91505061119f565b60208301519150505b919050565b600d60009054906101000a900460ff166111f3576040517f08c379a00000000000000000000000000000000000000000000000000000000081526004016111ea90611b9a565b60405180910390fd5b600460009054906101000a900473ffffffffffffffffffffffffffffffffffffffff1673ffffffffffffffffffffffffffffffffffffffff163373ffffffffffffffffffffffffffffffffffffffff161461124d57600080fd5b600061129c85858080601f016020809104026020016040519081016040528093929190818152602001838380828437600081840152601f19601f8201169050808301925050505050505061117b565b905060006112ed84848080601f016020809104026020016040519081016040528093929190818152602001838380828437600081840152601f19601f8201169050808301925050505050505061117b565b9050600a548214806113005750600b5482145b61130957600080fd5b600a5481148061131a5750600b5481145b61132357600080fd5b81600c819055506007600083815260200190815260200160002054600981905550600760008281526020019081526020016000205460076000848152602001908152602001600020600082825461137a9190611be9565b92505081905550600760008381526020019081526020016000205460088190555060006007600083815260200190815260200160002081905550505050505050565b6000600b54905090565b6000600460009054906101000a900473ffffffffffffffffffffffffffffffffffffffff16905090565b600b5481565b600d60009054906101000a900460ff1615611446576040517f08c379a000000000000000000000000000000000000000000000000000000000815260040161143d90611f5b565b60405180910390fd5b61149384848080601f016020809104026020016040519081016040528093929190818152602001838380828437600081840152601f19601f8201169050808301925050505050505061117b565b600a819055506114e682828080601f016020809104026020016040519081016040528093929190818152602001838380828437600081840152601f19601f8201169050808301925050505050505061117b565b600b819055506001600d60006101000a81548160ff02191690831515021790555050505050565b6000604051905090565b600080fd5b600080fd5b6000819050919050565b61153481611521565b811461153f57600080fd5b50565b6000813590506115518161152b565b92915050565b60006020828403121561156d5761156c611517565b5b600061157b84828501611542565b91505092915050565b6000819050919050565b61159781611584565b82525050565b60006020820190506115b2600083018461158e565b92915050565b600081519050919050565b600082825260208201905092915050565b60005b838110156115f25780820151818401526020810190506115d7565b60008484015250505050565b6000601f19601f8301169050919050565b600061161a826115b8565b61162481856115c3565b93506116348185602086016115d4565b61163d816115fe565b840191505092915050565b60006020820190508181036000830152611662818461160f565b905092915050565b60008115159050919050565b61167f8161166a565b82525050565b600060208201905061169a6000830184611676565b92915050565b600080fd5b600080fd5b600080fd5b60008083601f8401126116c5576116c46116a0565b5b8235905067ffffffffffffffff8111156116e2576116e16116a5565b5b6020830191508360018202830111156116fe576116fd6116aa565b5b9250929050565b6000806020838503121561171c5761171b611517565b5b600083013567ffffffffffffffff81111561173a5761173961151c565b5b611746858286016116af565b92509250509250929050565b600060ff82169050919050565b61176881611752565b82525050565b6000602082019050611783600083018461175f565b92915050565b600073ffffffffffffffffffffffffffffffffffffffff82169050919050565b60006117b482611789565b9050919050565b6117c4816117a9565b81146117cf57600080fd5b50565b6000813590506117e1816117bb565b92915050565b6000602082840312156117fd576117fc611517565b5b600061180b848285016117d2565b91505092915050565b61181d81611521565b82525050565b60006020820190506118386000830184611814565b92915050565b611847816117a9565b82525050565b6000602082019050611862600083018461183e565b92915050565b61187181611584565b811461187c57600080fd5b50565b60008135905061188e81611868565b92915050565b6000806000604084860312156118ad576118ac611517565b5b600084013567ffffffffffffffff8111156118cb576118ca61151c565b5b6118d7868287016116af565b935093505060206118ea8682870161187f565b9150509250925092565b600080fd5b7f4e487b7100000000000000000000000000000000000000000000000000000000600052604160045260246000fd5b611931826115fe565b810181811067ffffffffffffffff821117156119505761194f6118f9565b5b80604052505050565b600061196361150d565b905061196f8282611928565b919050565b600067ffffffffffffffff82111561198f5761198e6118f9565b5b611998826115fe565b9050602081019050919050565b82818337600083830152505050565b60006119c76119c284611974565b611959565b9050828152602081018484840111156119e3576119e26118f4565b5b6119ee8482856119a5565b509392505050565b600082601f830112611a0b57611a0a6116a0565b5b8135611a1b8482602086016119b4565b91505092915050565b600060208284031215611a3a57611a39611517565b5b600082013567ffffffffffffffff811115611a5857611a5761151c565b5b611a64848285016119f6565b91505092915050565b60008060008060408587031215611a8757611a86611517565b5b600085013567ffffffffffffffff811115611aa557611aa461151c565b5b611ab1878288016116af565b9450945050602085013567ffffffffffffffff811115611ad457611ad361151c565b5b611ae0878288016116af565b925092505092959194509250565b7f4e487b7100000000000000000000000000000000000000000000000000000000600052602260045260246000fd5b60006002820490506001821680611b3557607f821691505b602082108103611b4857611b47611aee565b5b50919050565b7f56657273757320686173206e6f74206265656e20657865637574656420796574600082015250565b6000611b846020836115c3565b9150611b8f82611b4e565b602082019050919050565b60006020820190508181036000830152611bb381611b77565b9050919050565b7f4e487b7100000000000000000000000000000000000000000000000000000000600052601160045260246000fd5b6000611bf482611584565b9150611bff83611584565b9250828201905080821115611c1757611c16611bba565b5b92915050565b7f596f75206861766520616c726561647920726567697374657265640000000000600082015250565b6000611c53601b836115c3565b9150611c5e82611c1d565b602082019050919050565b60006020820190508181036000830152611c8281611c46565b9050919050565b7f4e6f7420656e6f75676820746f74616c537570706c7921000000000000000000600082015250565b6000611cbf6017836115c3565b9150611cca82611c89565b602082019050919050565b60006020820190508181036000830152611cee81611cb2565b9050919050565b6000611d0082611584565b9150611d0b83611584565b9250828203905081811115611d2357611d22611bba565b5b92915050565b7f596f75206861766520616c726561647920766f74656421000000000000000000600082015250565b6000611d5f6017836115c3565b9150611d6a82611d29565b602082019050919050565b60006020820190508181036000830152611d8e81611d52565b9050919050565b7f4e6f7420656e6f75676820746f6b656e73210000000000000000000000000000600082015250565b6000611dcb6012836115c3565b9150611dd682611d95565b602082019050919050565b60006020820190508181036000830152611dfa81611dbe565b9050919050565b7f496e76616c6964207465616d206e616d65210000000000000000000000000000600082015250565b6000611e376012836115c3565b9150611e4282611e01565b602082019050919050565b60006020820190508181036000830152611e6681611e2a565b9050919050565b7f4e487b7100000000000000000000000000000000000000000000000000000000600052601260045260246000fd5b6000611ea782611584565b9150611eb283611584565b925082611ec257611ec1611e6d565b5b828204905092915050565b6000611ed882611584565b9150611ee383611584565b9250828202611ef181611584565b91508282048414831517611f0857611f07611bba565b5b5092915050565b7f5665727375732068617320616c7265616479206265656e206578656375746564600082015250565b6000611f456020836115c3565b9150611f5082611f0f565b602082019050919050565b60006020820190508181036000830152611f7481611f38565b905091905056fea2646970667358221220804ca42f994bd530be80f5b1c687b59d813c4060e5d7dcedf677f07bc7bf13c564736f6c63430008120033",
  "immutableReferences": {},
  "source": "// SPDX-License-Identifier: MIT\npragma solidity >=0.8.18<0.9.0; //>=0.8.18 <0.9.0\nimport './SetTeam.sol';\n// Vote.sol\n\ncontract Vote is SetTeam {\n    // vote.sol function versus( )   \n    //        betting result  \n    bytes32 public team1;  \n    bytes32 public team2;\n    //    , default : 'none'\n    bytes32 public teamNameWin = stringToBytes32('none');\n    // versus       modifier ,   bool \n    // versus  : false , versus  : true , returnBettingResultOver()   false...\n    bool public versusExecuted = false;\n    // returnBettingResult() returnBettingResultOver    \n    // react   .( returnBettingResultOver  )\n    event BettingResultOver();\n    // versus  \n    modifier onlyBeforeVersus() {\n        require(!versusExecuted, \"Versus has already been executed\");\n        _;\n    }\n    // versus  \n    modifier onlyAfterVersus() {\n        require(versusExecuted, \"Versus has not been executed yet\");\n        _;\n    }\n    // team1, team2 \n    function versus(string calldata _team1, string calldata _team2) public onlyBeforeVersus {\n        team1 = stringToBytes32(_team1);\n        team2 = stringToBytes32(_team2);\n\n        versusExecuted = true;\n    }\n    // vote  ( )\n    function vote(string calldata _teamName, uint _amount) public onlyAfterVersus returns (bool) {\n        require(!userData[msg.sender].voted, \"You have already voted!\");\n        require(balanceOf(msg.sender) >= _amount, \"Not enough tokens!\");\n        \n        bytes32 teamName = stringToBytes32(_teamName);\n        require(teamName == team1 || teamName == team2, \"Invalid team name!\");\n\n        userData[msg.sender].balance -= _amount;\n        teamWeight[teamName] += _amount;\n\n        userData[msg.sender].voteBalance += _amount;\n\n        userData[msg.sender].voted = true;\n        userData[msg.sender].teamName = teamName;\n\n        return true;\n    }\n    // game end :  \n    function gameEnd(string calldata _teamNameWin, string calldata _teamNameLose) public onlyAfterVersus onlyOwner {\n        bytes32 win = stringToBytes32(_teamNameWin);\n        bytes32 lose = stringToBytes32(_teamNameLose);\n        require(win == team1 || win == team2);\n        require(lose == team1 || lose == team2);\n        teamNameWin = win;\n        winnerTeamPureBalance = teamWeight[win];\n        teamWeight[win] += teamWeight[lose];\n        bettingTotalBalance = teamWeight[win];\n        teamWeight[lose] = 0;\n    }\n    //  ...\n    //   user   retrunBettingResultOver() \n    function returnBettingResult() public onlyAfterVersus returns(uint) {\n        require(teamNameWin != stringToBytes32('none'));\n\n        if (getUserVotedTeamName(msg.sender) == teamNameWin) {\n            uint amountToReturn = (voteBalanceOf(msg.sender) / winnerTeamPureBalance) * bettingTotalBalance;\n            userData[msg.sender].balance += amountToReturn;\n            teamWeight[teamNameWin] -= amountToReturn;\n\n            if (teamWeight[teamNameWin] == 0) {\n                returnBettingResultOver();\n            }\n            return amountToReturn;\n        }\n        userData[msg.sender].teamName = '';\n        userData[msg.sender].voteBalance = 0;\n        userData[msg.sender].voted = false;\n        return 0;\n    }\n    //     versus()  \n    function returnBettingResultOver() public onlyOwner onlyAfterVersus {\n        require(teamNameWin != stringToBytes32('none'));\n        totalSupply += teamWeight[teamNameWin];\n        teamWeight[teamNameWin] = 0;\n        \n        emit BettingResultOver();\n        teamNameWin = stringToBytes32('none');\n        versusExecuted = false;\n\n    }\n\n    function showVersusExecuted() public view returns(bool) {\n        return versusExecuted;\n    }\n\n    function showMatchUp1() public view returns(bytes32) {\n        return team1;\n    }\n    function showMatchUp2() public view returns(bytes32) {\n        return team2;\n    }\n}",
  "sourcePath": "/home/minkun/vote-main/src/contracts/Vote.sol",
  "compiler": {
    "name": "solc",
    "version": "0.8.18+commit.87f61d96.Emscripten.clang"
  },
  "schemaVersion": "3.4.14",
  "updatedAt": "2023-08-10T03:30:02.905Z",
  "networkType": "ethereum",
  "devdoc": {
    "kind": "dev",
    "methods": {},
    "version": 1
  },
  "userdoc": {
    "kind": "user",
    "methods": {},
    "version": 1
  }
}