{
  "contractName": "Vote",
  "abi": [
    {
      "constant": true,
      "inputs": [
        {
          "name": "",
          "type": "bytes32"
        }
      ],
      "name": "teamWeight",
      "outputs": [
        {
          "name": "",
          "type": "uint256"
        }
      ],
      "payable": false,
      "stateMutability": "view",
      "type": "function"
    },
    {
      "constant": true,
      "inputs": [],
      "name": "name",
      "outputs": [
        {
          "name": "",
          "type": "string"
        }
      ],
      "payable": false,
      "stateMutability": "view",
      "type": "function"
    },
    {
      "constant": true,
      "inputs": [],
      "name": "totalSupply",
      "outputs": [
        {
          "name": "",
          "type": "uint256"
        }
      ],
      "payable": false,
      "stateMutability": "view",
      "type": "function"
    },
    {
      "constant": true,
      "inputs": [
        {
          "name": "",
          "type": "bytes32"
        }
      ],
      "name": "teamSetted",
      "outputs": [
        {
          "name": "",
          "type": "bool"
        }
      ],
      "payable": false,
      "stateMutability": "view",
      "type": "function"
    },
    {
      "constant": true,
      "inputs": [
        {
          "name": "_teamName",
          "type": "string"
        }
      ],
      "name": "getTeamWeightByTeamName",
      "outputs": [
        {
          "name": "",
          "type": "uint256"
        }
      ],
      "payable": false,
      "stateMutability": "view",
      "type": "function"
    },
    {
      "constant": true,
      "inputs": [],
      "name": "decimals",
      "outputs": [
        {
          "name": "",
          "type": "uint8"
        }
      ],
      "payable": false,
      "stateMutability": "view",
      "type": "function"
    },
    {
      "constant": false,
      "inputs": [],
      "name": "logIn",
      "outputs": [],
      "payable": false,
      "stateMutability": "nonpayable",
      "type": "function"
    },
    {
      "constant": true,
      "inputs": [],
      "name": "versusExecuted",
      "outputs": [
        {
          "name": "",
          "type": "bool"
        }
      ],
      "payable": false,
      "stateMutability": "view",
      "type": "function"
    },
    {
      "constant": true,
      "inputs": [
        {
          "name": "_address",
          "type": "address"
        }
      ],
      "name": "balanceOf",
      "outputs": [
        {
          "name": "",
          "type": "uint256"
        }
      ],
      "payable": false,
      "stateMutability": "view",
      "type": "function"
    },
    {
      "constant": true,
      "inputs": [
        {
          "name": "_address",
          "type": "address"
        }
      ],
      "name": "getUserVotedTeamName",
      "outputs": [
        {
          "name": "",
          "type": "bytes32"
        }
      ],
      "payable": false,
      "stateMutability": "view",
      "type": "function"
    },
    {
      "constant": true,
      "inputs": [
        {
          "name": "_address",
          "type": "address"
        }
      ],
      "name": "voteBalanceOf",
      "outputs": [
        {
          "name": "",
          "type": "uint256"
        }
      ],
      "payable": false,
      "stateMutability": "view",
      "type": "function"
    },
    {
      "constant": false,
      "inputs": [
        {
          "name": "_teamName",
          "type": "string"
        }
      ],
      "name": "setTeam",
      "outputs": [],
      "payable": false,
      "stateMutability": "nonpayable",
      "type": "function"
    },
    {
      "constant": true,
      "inputs": [],
      "name": "owner",
      "outputs": [
        {
          "name": "",
          "type": "address"
        }
      ],
      "payable": false,
      "stateMutability": "view",
      "type": "function"
    },
    {
      "constant": true,
      "inputs": [],
      "name": "symbol",
      "outputs": [
        {
          "name": "",
          "type": "string"
        }
      ],
      "payable": false,
      "stateMutability": "view",
      "type": "function"
    },
    {
      "constant": true,
      "inputs": [
        {
          "name": "source",
          "type": "string"
        }
      ],
      "name": "stringToBytes32",
      "outputs": [
        {
          "name": "result",
          "type": "bytes32"
        }
      ],
      "payable": false,
      "stateMutability": "pure",
      "type": "function"
    },
    {
      "constant": true,
      "inputs": [],
      "name": "showOwner",
      "outputs": [
        {
          "name": "",
          "type": "address"
        }
      ],
      "payable": false,
      "stateMutability": "view",
      "type": "function"
    },
    {
      "anonymous": false,
      "inputs": [],
      "name": "BettingResultOver",
      "type": "event"
    },
    {
      "constant": false,
      "inputs": [
        {
          "name": "_team1",
          "type": "string"
        },
        {
          "name": "_team2",
          "type": "string"
        }
      ],
      "name": "versus",
      "outputs": [],
      "payable": false,
      "stateMutability": "nonpayable",
      "type": "function"
    },
    {
      "constant": false,
      "inputs": [
        {
          "name": "_teamName",
          "type": "string"
        },
        {
          "name": "_amount",
          "type": "uint256"
        }
      ],
      "name": "vote",
      "outputs": [
        {
          "name": "",
          "type": "bool"
        }
      ],
      "payable": false,
      "stateMutability": "nonpayable",
      "type": "function"
    },
    {
      "constant": false,
      "inputs": [
        {
          "name": "_teamNameWin",
          "type": "string"
        },
        {
          "name": "_teamNameLose",
          "type": "string"
        }
      ],
      "name": "gameEnd",
      "outputs": [],
      "payable": false,
      "stateMutability": "nonpayable",
      "type": "function"
    },
    {
      "constant": false,
      "inputs": [],
      "name": "returnBettingResult",
      "outputs": [],
      "payable": false,
      "stateMutability": "nonpayable",
      "type": "function"
    },
    {
      "constant": false,
      "inputs": [],
      "name": "returnBettingResultOver",
      "outputs": [],
      "payable": false,
      "stateMutability": "nonpayable",
      "type": "function"
    }
  ],
  "bytecode": "0x608060405269d3c21bcecceda10000006000556012600160006101000a81548160ff021916908360ff1602179055506040805190810160405280600981526020017f6c6f6c20746f6b656e0000000000000000000000000000000000000000000000815250600290805190602001906200007b929190620001b6565b506040805190810160405280600281526020017f6c7400000000000000000000000000000000000000000000000000000000000081525060039080519060200190620000c9929190620001b6565b5060006009556000600a55620001236040805190810160405280600481526020017f6e6f6e650000000000000000000000000000000000000000000000000000000081525062000188640100000000026401000000009004565b600d556000600e60006101000a81548160ff02191690831515021790555033600460006101000a81548173ffffffffffffffffffffffffffffffffffffffff021916908373ffffffffffffffffffffffffffffffffffffffff16021790555062000265565b60006060829050600081511415620001a8576000600102915050620001b1565b60208301519150505b919050565b828054600181600116156101000203166002900490600052602060002090601f016020900481019282601f10620001f957805160ff19168380011785556200022a565b828001600101855582156200022a579182015b82811115620002295782518255916020019190600101906200020c565b5b5090506200023991906200023d565b5090565b6200026291905b808211156200025e57600081600090555060010162000244565b5090565b90565b611de680620002756000396000f3fe608060405260043610610117576000357c010000000000000000000000000000000000000000000000000000000090048063026bdfa11461011c57806306fdde031461016b5780630b3f277f146101fb57806318160ddd146102125780632a57937a1461023d5780632d82ee8b14610290578063313ce5671461032a578063377b47a31461035b5780636ae2a1ca1461037257806370a08231146103a1578063792f97ae1461040657806384ab8bb81461046b5780638735741d146104d05780638da5cb5b1461055657806395d89b41146105ad578063a63858031461063d578063a8285fdb14610727578063cfb519281461073e578063d7e80eee1461081a578063ded9468814610979578063fec87389146109d0575b600080fd5b34801561012857600080fd5b506101556004803603602081101561013f57600080fd5b8101908080359060200190929190505050610b2f565b6040518082815260200191505060405180910390f35b34801561017757600080fd5b50610180610b47565b6040518080602001828103825283818151815260200191508051906020019080838360005b838110156101c05780820151818401526020810190506101a5565b50505050905090810190601f1680156101ed5780820380516001836020036101000a031916815260200191505b509250505060405180910390f35b34801561020757600080fd5b50610210610be5565b005b34801561021e57600080fd5b50610227610ddf565b6040518082815260200191505060405180910390f35b34801561024957600080fd5b506102766004803603602081101561026057600080fd5b8101908080359060200190929190505050610de5565b604051808215151515815260200191505060405180910390f35b34801561029c57600080fd5b50610314600480360360208110156102b357600080fd5b81019080803590602001906401000000008111156102d057600080fd5b8201836020820111156102e257600080fd5b8035906020019184600183028401116401000000008311171561030457600080fd5b9091929391929390505050610e05565b6040518082815260200191505060405180910390f35b34801561033657600080fd5b5061033f610e6f565b604051808260ff1660ff16815260200191505060405180910390f35b34801561036757600080fd5b50610370610e82565b005b34801561037e57600080fd5b506103876110e9565b604051808215151515815260200191505060405180910390f35b3480156103ad57600080fd5b506103f0600480360360208110156103c457600080fd5b81019080803573ffffffffffffffffffffffffffffffffffffffff1690602001909291905050506110fc565b6040518082815260200191505060405180910390f35b34801561041257600080fd5b506104556004803603602081101561042957600080fd5b81019080803573ffffffffffffffffffffffffffffffffffffffff169060200190929190505050611148565b6040518082815260200191505060405180910390f35b34801561047757600080fd5b506104ba6004803603602081101561048e57600080fd5b81019080803573ffffffffffffffffffffffffffffffffffffffff169060200190929190505050611194565b6040518082815260200191505060405180910390f35b3480156104dc57600080fd5b50610554600480360360208110156104f357600080fd5b810190808035906020019064010000000081111561051057600080fd5b82018360208201111561052257600080fd5b8035906020019184600183028401116401000000008311171561054457600080fd5b90919293919293905050506111e0565b005b34801561056257600080fd5b5061056b6113cf565b604051808273ffffffffffffffffffffffffffffffffffffffff1673ffffffffffffffffffffffffffffffffffffffff16815260200191505060405180910390f35b3480156105b957600080fd5b506105c26113f5565b6040518080602001828103825283818151815260200191508051906020019080838360005b838110156106025780820151818401526020810190506105e7565b50505050905090810190601f16801561062f5780820380516001836020036101000a031916815260200191505b509250505060405180910390f35b34801561064957600080fd5b5061070d6004803603604081101561066057600080fd5b810190808035906020019064010000000081111561067d57600080fd5b82018360208201111561068f57600080fd5b803590602001918460018302840111640100000000831117156106b157600080fd5b91908080601f016020809104026020016040519081016040528093929190818152602001838380828437600081840152601f19601f82011690508083019250505050505050919291929080359060200190929190505050611493565b604051808215151515815260200191505060405180910390f35b34801561073357600080fd5b5061073c61185e565b005b34801561074a57600080fd5b506108046004803603602081101561076157600080fd5b810190808035906020019064010000000081111561077e57600080fd5b82018360208201111561079057600080fd5b803590602001918460018302840111640100000000831117156107b257600080fd5b91908080601f016020809104026020016040519081016040528093929190818152602001838380828437600081840152601f19601f820116905080830192505050505050509192919290505050611ae9565b6040518082815260200191505060405180910390f35b34801561082657600080fd5b506109776004803603604081101561083d57600080fd5b810190808035906020019064010000000081111561085a57600080fd5b82018360208201111561086c57600080fd5b8035906020019184600183028401116401000000008311171561088e57600080fd5b91908080601f016020809104026020016040519081016040528093929190818152602001838380828437600081840152601f19601f820116905080830192505050505050509192919290803590602001906401000000008111156108f157600080fd5b82018360208201111561090357600080fd5b8035906020019184600183028401116401000000008311171561092557600080fd5b91908080601f016020809104026020016040519081016040528093929190818152602001838380828437600081840152601f19601f820116905080830192505050505050509192919290505050611b15565b005b34801561098557600080fd5b5061098e611cce565b604051808273ffffffffffffffffffffffffffffffffffffffff1673ffffffffffffffffffffffffffffffffffffffff16815260200191505060405180910390f35b3480156109dc57600080fd5b50610b2d600480360360408110156109f357600080fd5b8101908080359060200190640100000000811115610a1057600080fd5b820183602082011115610a2257600080fd5b80359060200191846001830284011164010000000083111715610a4457600080fd5b91908080601f016020809104026020016040519081016040528093929190818152602001838380828437600081840152601f19601f82011690508083019250505050505050919291929080359060200190640100000000811115610aa757600080fd5b820183602082011115610ab957600080fd5b80359060200191846001830284011164010000000083111715610adb57600080fd5b91908080601f016020809104026020016040519081016040528093929190818152602001838380828437600081840152601f19601f820116905080830192505050505050509192919290505050611cf8565b005b60076020528060005260406000206000915090505481565b60028054600181600116156101000203166002900480601f016020809104026020016040519081016040528092919081815260200182805460018160011615610100020316600290048015610bdd5780601f10610bb257610100808354040283529160200191610bdd565b820191906000526020600020905b815481529060010190602001808311610bc057829003601f168201915b505050505081565b600460009054906101000a900473ffffffffffffffffffffffffffffffffffffffff1673ffffffffffffffffffffffffffffffffffffffff163373ffffffffffffffffffffffffffffffffffffffff16141515610c4157600080fd5b600e60009054906101000a900460ff161515610cc5576040517f08c379a00000000000000000000000000000000000000000000000000000000081526004018080602001828103825260208152602001807f56657273757320686173206e6f74206265656e2065786563757465642079657481525060200191505060405180910390fd5b610d036040805190810160405280600481526020017f6e6f6e6500000000000000000000000000000000000000000000000000000000815250611ae9565b600d5414151515610d1357600080fd5b60076000600d548152602001908152602001600020546000808282540192505081905550600060076000600d548152602001908152602001600020819055507fb9965e294ca2529c415e9cb787ae63bc589f2db22057272aeb9800e2750a4fff60405160405180910390a1610dbc6040805190810160405280600481526020017f6e6f6e6500000000000000000000000000000000000000000000000000000000815250611ae9565b600d819055506000600e60006101000a81548160ff021916908315150217905550565b60005481565b60086020528060005260406000206000915054906101000a900460ff1681565b600060076000610e5885858080601f016020809104026020016040519081016040528093929190818152602001838380828437600081840152601f19601f82011690508083019250505050505050611ae9565b815260200190815260200160002054905092915050565b600160009054906101000a900460ff1681565b600660003373ffffffffffffffffffffffffffffffffffffffff1673ffffffffffffffffffffffffffffffffffffffff16815260200190815260200160002060009054906101000a900460ff16151515610f44576040517f08c379a000000000000000000000000000000000000000000000000000000000815260040180806020018281038252601b8152602001807f596f75206861766520616c72656164792072656769737465726564000000000081525060200191505060405180910390fd5b678ac7230489e8000060005410151515610fc6576040517f08c379a00000000000000000000000000000000000000000000000000000000081526004018080602001828103825260178152602001807f4e6f7420656e6f75676820746f74616c537570706c792100000000000000000081525060200191505060405180910390fd5b6001600660003373ffffffffffffffffffffffffffffffffffffffff1673ffffffffffffffffffffffffffffffffffffffff16815260200190815260200160002060006101000a81548160ff021916908315150217905550608060405190810160405280678ac7230489e800008152602001600015158152602001600080191681526020016000815250600560003373ffffffffffffffffffffffffffffffffffffffff1673ffffffffffffffffffffffffffffffffffffffff1681526020019081526020016000206000820151816000015560208201518160010160006101000a81548160ff0219169083151502179055506040820151816002015560608201518160030155905050678ac7230489e800006000808282540392505081905550565b600e60009054906101000a900460ff1681565b6000600560008373ffffffffffffffffffffffffffffffffffffffff1673ffffffffffffffffffffffffffffffffffffffff168152602001908152602001600020600001549050919050565b6000600560008373ffffffffffffffffffffffffffffffffffffffff1673ffffffffffffffffffffffffffffffffffffffff168152602001908152602001600020600201549050919050565b6000600560008373ffffffffffffffffffffffffffffffffffffffff1673ffffffffffffffffffffffffffffffffffffffff168152602001908152602001600020600301549050919050565b600460009054906101000a900473ffffffffffffffffffffffffffffffffffffffff1673ffffffffffffffffffffffffffffffffffffffff163373ffffffffffffffffffffffffffffffffffffffff1614151561123c57600080fd5b6000828290501115156112b7576040517f08c379a00000000000000000000000000000000000000000000000000000000081526004018080602001828103825260198152602001807f5465616d206e616d652063616e6e6f7420626520656d7074790000000000000081525060200191505060405180910390fd5b600061130683838080601f016020809104026020016040519081016040528093929190818152602001838380828437600081840152601f19601f82011690508083019250505050505050611ae9565b90506008600082815260200190815260200160002060009054906101000a900460ff1615151561139e576040517f08c379a00000000000000000000000000000000000000000000000000000000081526004018080602001828103825260188152602001807f5465616d206e616d6520616c726561647920657869737473000000000000000081525060200191505060405180910390fd5b60016008600083815260200190815260200160002060006101000a81548160ff021916908315150217905550505050565b600460009054906101000a900473ffffffffffffffffffffffffffffffffffffffff1681565b60038054600181600116156101000203166002900480601f01602080910402602001604051908101604052809291908181526020018280546001816001161561010002031660029004801561148b5780601f106114605761010080835404028352916020019161148b565b820191906000526020600020905b81548152906001019060200180831161146e57829003601f168201915b505050505081565b6000600e60009054906101000a900460ff161515611519576040517f08c379a00000000000000000000000000000000000000000000000000000000081526004018080602001828103825260208152602001807f56657273757320686173206e6f74206265656e2065786563757465642079657481525060200191505060405180910390fd5b600560003373ffffffffffffffffffffffffffffffffffffffff1673ffffffffffffffffffffffffffffffffffffffff16815260200190815260200160002060010160009054906101000a900460ff161515156115de576040517f08c379a00000000000000000000000000000000000000000000000000000000081526004018080602001828103825260178152602001807f596f75206861766520616c726561647920766f7465642100000000000000000081525060200191505060405180910390fd5b816115e8336110fc565b1015151561165e576040517f08c379a00000000000000000000000000000000000000000000000000000000081526004018080602001828103825260128152602001807f4e6f7420656e6f75676820746f6b656e7321000000000000000000000000000081525060200191505060405180910390fd5b600061166984611ae9565b9050600b5481148061167c5750600c5481145b15156116f0576040517f08c379a00000000000000000000000000000000000000000000000000000000081526004018080602001828103825260128152602001807f496e76616c6964207465616d206e616d6521000000000000000000000000000081525060200191505060405180910390fd5b82600560003373ffffffffffffffffffffffffffffffffffffffff1673ffffffffffffffffffffffffffffffffffffffff1681526020019081526020016000206000016000828254039250508190555082600760008381526020019081526020016000206000828254019250508190555082600560003373ffffffffffffffffffffffffffffffffffffffff1673ffffffffffffffffffffffffffffffffffffffff168152602001908152602001600020600301600082825401925050819055506001600560003373ffffffffffffffffffffffffffffffffffffffff1673ffffffffffffffffffffffffffffffffffffffff16815260200190815260200160002060010160006101000a81548160ff02191690831515021790555080600560003373ffffffffffffffffffffffffffffffffffffffff1673ffffffffffffffffffffffffffffffffffffffff16815260200190815260200160002060020181905550600191505092915050565b600e60009054906101000a900460ff1615156118e2576040517f08c379a00000000000000000000000000000000000000000000000000000000081526004018080602001828103825260208152602001807f56657273757320686173206e6f74206265656e2065786563757465642079657481525060200191505060405180910390fd5b6119206040805190810160405280600481526020017f6e6f6e6500000000000000000000000000000000000000000000000000000000815250611ae9565b600d541415151561193057600080fd5b600d5461193c33611148565b14156119fc576000600954600a5461195333611194565b81151561195c57fe5b0402905080600560003373ffffffffffffffffffffffffffffffffffffffff1673ffffffffffffffffffffffffffffffffffffffff168152602001908152602001600020600001600082825401925050819055508060076000600d54815260200190815260200160002060008282540392505081905550600060076000600d5481526020019081526020016000205414156119fa576119f9610be5565b5b505b6000600560003373ffffffffffffffffffffffffffffffffffffffff1673ffffffffffffffffffffffffffffffffffffffff168152602001908152602001600020600201819055506000600560003373ffffffffffffffffffffffffffffffffffffffff1673ffffffffffffffffffffffffffffffffffffffff168152602001908152602001600020600301819055506000600560003373ffffffffffffffffffffffffffffffffffffffff1673ffffffffffffffffffffffffffffffffffffffff16815260200190815260200160002060010160006101000a81548160ff021916908315150217905550565b60006060829050600081511415611b07576000600102915050611b10565b60208301519150505b919050565b600e60009054906101000a900460ff161515611b99576040517f08c379a00000000000000000000000000000000000000000000000000000000081526004018080602001828103825260208152602001807f56657273757320686173206e6f74206265656e2065786563757465642079657481525060200191505060405180910390fd5b600460009054906101000a900473ffffffffffffffffffffffffffffffffffffffff1673ffffffffffffffffffffffffffffffffffffffff163373ffffffffffffffffffffffffffffffffffffffff16141515611bf557600080fd5b6000611c0083611ae9565b90506000611c0d83611ae9565b9050600b54821480611c205750600c5482145b1515611c2b57600080fd5b600b54811480611c3c5750600c5481145b1515611c4757600080fd5b6007600083815260200190815260200160002054600a819055506007600082815260200190815260200160002054600760008481526020019081526020016000206000828254019250508190555060076000838152602001908152602001600020546009819055506000600760008381526020019081526020016000208190555050505050565b6000600460009054906101000a900473ffffffffffffffffffffffffffffffffffffffff16905090565b600e60009054906101000a900460ff16151515611d7d576040517f08c379a00000000000000000000000000000000000000000000000000000000081526004018080602001828103825260208152602001807f5665727375732068617320616c7265616479206265656e20657865637574656481525060200191505060405180910390fd5b611d8682611ae9565b600b81905550611d9581611ae9565b600c819055506001600e60006101000a81548160ff021916908315150217905550505056fea165627a7a72305820f0dd8b37ac9e1efca3b2f208db7cb5f4620d42ba8746f987c67979599ab6871a0029",
  "source": "// SPDX-License-Identifier: MIT\npragma solidity >=0.4.22 <0.9.0; //>=0.8.18 <0.9.0\nimport './SetTeam.sol';\n// Vote.sol\n\ncontract Vote is SetTeam {\n    // vote.sol function versus( )   \n    //        betting result  \n    bytes32 team1;  \n    bytes32 team2;\n    //    , default : 'none'\n    bytes32 teamNameWin = stringToBytes32('none');\n    // versus       modifier ,   bool \n    // versus  : false , versus  : true , returnBettingResultOver()   false...\n    bool public versusExecuted = false;\n    // returnBettingResult() returnBettingResultOver    \n    // react   .( returnBettingResultOver  )\n    event BettingResultOver();\n    // versus  \n    modifier onlyBeforeVersus() {\n        require(!versusExecuted, \"Versus has already been executed\");\n        _;\n    }\n    // versus  \n    modifier onlyAfterVersus() {\n        require(versusExecuted, \"Versus has not been executed yet\");\n        _;\n    }\n    // team1, team2 \n    function versus(string memory _team1, string memory _team2) public onlyBeforeVersus {\n        team1 = stringToBytes32(_team1);\n        team2 = stringToBytes32(_team2);\n        versusExecuted = true;\n    }\n    // vote  ( )\n    function vote(string memory _teamName, uint _amount) public onlyAfterVersus returns (bool) {\n        require(!userData[msg.sender].voted, \"You have already voted!\");\n        require(balanceOf(msg.sender) >= _amount, \"Not enough tokens!\");\n        \n        bytes32 teamName = stringToBytes32(_teamName);\n        require(teamName == team1 || teamName == team2, \"Invalid team name!\");\n\n        userData[msg.sender].balance -= _amount;\n        teamWeight[teamName] += _amount;\n\n        userData[msg.sender].voteBalance += _amount;\n\n        userData[msg.sender].voted = true;\n        userData[msg.sender].teamName = teamName;\n\n        return true;\n    }\n    // game end :  \n    function gameEnd(string memory _teamNameWin, string memory _teamNameLose) public onlyAfterVersus onlyOwner {\n        bytes32 win = stringToBytes32(_teamNameWin);\n        bytes32 lose = stringToBytes32(_teamNameLose);\n        require(win == team1 || win == team2);\n        require(lose == team1 || lose == team2);\n\n        winnerTeamPureBalance = teamWeight[win];\n        teamWeight[win] += teamWeight[lose];\n        bettingTotalBalance = teamWeight[win];\n        teamWeight[lose] = 0;\n    }\n    //  ...\n    //   user   retrunBettingResultOver() \n    function returnBettingResult() public onlyAfterVersus {\n        require(teamNameWin != stringToBytes32('none'));\n\n        if (getUserVotedTeamName(msg.sender) == teamNameWin) {\n            uint amountToReturn = (voteBalanceOf(msg.sender) / winnerTeamPureBalance) * bettingTotalBalance;\n            userData[msg.sender].balance += amountToReturn;\n            teamWeight[teamNameWin] -= amountToReturn;\n\n            if (teamWeight[teamNameWin] == 0) {\n                returnBettingResultOver();\n            }\n        }\n        userData[msg.sender].teamName = '';\n        userData[msg.sender].voteBalance = 0;\n        userData[msg.sender].voted = false;\n    }\n    //     versus()  \n    function returnBettingResultOver() public onlyOwner onlyAfterVersus {\n        require(teamNameWin != stringToBytes32('none'));\n        totalSupply += teamWeight[teamNameWin];\n        teamWeight[teamNameWin] = 0;\n        \n        emit BettingResultOver();\n        teamNameWin = stringToBytes32('none');\n        versusExecuted = false;\n\n    }\n}",
  "sourcePath": "/home/minkun/vote-main/src/contracts/Vote.sol",
  "compiler": {
    "name": "solc",
    "version": "0.5.1+commit.c8a2cb62.Emscripten.clang"
  },
  "schemaVersion": "3.4.14",
  "updatedAt": "2023-08-03T11:24:34.075Z",
  "networkType": "ethereum",
  "devdoc": {
    "methods": {}
  },
  "userdoc": {
    "methods": {}
  }
}