{
  "contractName": "Vote",
  "abi": [
    {
      "anonymous": false,
      "inputs": [],
      "name": "BettingResultOver",
      "type": "event"
    },
    {
      "inputs": [
        {
          "internalType": "address",
          "name": "_address",
          "type": "address"
        }
      ],
      "name": "balanceOf",
      "outputs": [
        {
          "internalType": "uint256",
          "name": "",
          "type": "uint256"
        }
      ],
      "stateMutability": "view",
      "type": "function"
    },
    {
      "inputs": [],
      "name": "decimals",
      "outputs": [
        {
          "internalType": "uint8",
          "name": "",
          "type": "uint8"
        }
      ],
      "stateMutability": "view",
      "type": "function"
    },
    {
      "inputs": [
        {
          "internalType": "string",
          "name": "_teamName",
          "type": "string"
        }
      ],
      "name": "getTeamWeightByTeamName",
      "outputs": [
        {
          "internalType": "uint256",
          "name": "",
          "type": "uint256"
        }
      ],
      "stateMutability": "view",
      "type": "function"
    },
    {
      "inputs": [
        {
          "internalType": "address",
          "name": "_address",
          "type": "address"
        }
      ],
      "name": "getUserVotedTeamName",
      "outputs": [
        {
          "internalType": "bytes32",
          "name": "",
          "type": "bytes32"
        }
      ],
      "stateMutability": "view",
      "type": "function"
    },
    {
      "inputs": [],
      "name": "logIn",
      "outputs": [],
      "stateMutability": "nonpayable",
      "type": "function"
    },
    {
      "inputs": [],
      "name": "name",
      "outputs": [
        {
          "internalType": "string",
          "name": "",
          "type": "string"
        }
      ],
      "stateMutability": "view",
      "type": "function"
    },
    {
      "inputs": [],
      "name": "owner",
      "outputs": [
        {
          "internalType": "address",
          "name": "",
          "type": "address"
        }
      ],
      "stateMutability": "view",
      "type": "function"
    },
    {
      "inputs": [
        {
          "internalType": "string",
          "name": "_teamName",
          "type": "string"
        }
      ],
      "name": "setTeam",
      "outputs": [],
      "stateMutability": "nonpayable",
      "type": "function"
    },
    {
      "inputs": [],
      "name": "showOwner",
      "outputs": [
        {
          "internalType": "address",
          "name": "",
          "type": "address"
        }
      ],
      "stateMutability": "view",
      "type": "function"
    },
    {
      "inputs": [
        {
          "internalType": "string",
          "name": "source",
          "type": "string"
        }
      ],
      "name": "stringToBytes32",
      "outputs": [
        {
          "internalType": "bytes32",
          "name": "result",
          "type": "bytes32"
        }
      ],
      "stateMutability": "pure",
      "type": "function"
    },
    {
      "inputs": [],
      "name": "symbol",
      "outputs": [
        {
          "internalType": "string",
          "name": "",
          "type": "string"
        }
      ],
      "stateMutability": "view",
      "type": "function"
    },
    {
      "inputs": [],
      "name": "teamNameWin",
      "outputs": [
        {
          "internalType": "bytes32",
          "name": "",
          "type": "bytes32"
        }
      ],
      "stateMutability": "view",
      "type": "function"
    },
    {
      "inputs": [
        {
          "internalType": "bytes32",
          "name": "",
          "type": "bytes32"
        }
      ],
      "name": "teamSetted",
      "outputs": [
        {
          "internalType": "bool",
          "name": "",
          "type": "bool"
        }
      ],
      "stateMutability": "view",
      "type": "function"
    },
    {
      "inputs": [
        {
          "internalType": "bytes32",
          "name": "",
          "type": "bytes32"
        }
      ],
      "name": "teamWeight",
      "outputs": [
        {
          "internalType": "uint256",
          "name": "",
          "type": "uint256"
        }
      ],
      "stateMutability": "view",
      "type": "function"
    },
    {
      "inputs": [],
      "name": "totalSupply",
      "outputs": [
        {
          "internalType": "uint256",
          "name": "",
          "type": "uint256"
        }
      ],
      "stateMutability": "view",
      "type": "function"
    },
    {
      "inputs": [],
      "name": "versusExecuted",
      "outputs": [
        {
          "internalType": "bool",
          "name": "",
          "type": "bool"
        }
      ],
      "stateMutability": "view",
      "type": "function"
    },
    {
      "inputs": [
        {
          "internalType": "address",
          "name": "_address",
          "type": "address"
        }
      ],
      "name": "voteBalanceOf",
      "outputs": [
        {
          "internalType": "uint256",
          "name": "",
          "type": "uint256"
        }
      ],
      "stateMutability": "view",
      "type": "function"
    },
    {
      "inputs": [
        {
          "internalType": "string",
          "name": "_team1",
          "type": "string"
        },
        {
          "internalType": "string",
          "name": "_team2",
          "type": "string"
        }
      ],
      "name": "versus",
      "outputs": [],
      "stateMutability": "nonpayable",
      "type": "function"
    },
    {
      "inputs": [
        {
          "internalType": "string",
          "name": "_teamName",
          "type": "string"
        },
        {
          "internalType": "uint256",
          "name": "_amount",
          "type": "uint256"
        }
      ],
      "name": "vote",
      "outputs": [
        {
          "internalType": "bool",
          "name": "",
          "type": "bool"
        }
      ],
      "stateMutability": "nonpayable",
      "type": "function"
    },
    {
      "inputs": [
        {
          "internalType": "string",
          "name": "_teamNameWin",
          "type": "string"
        },
        {
          "internalType": "string",
          "name": "_teamNameLose",
          "type": "string"
        }
      ],
      "name": "gameEnd",
      "outputs": [],
      "stateMutability": "nonpayable",
      "type": "function"
    },
    {
      "inputs": [],
      "name": "returnBettingResult",
      "outputs": [
        {
          "internalType": "uint256",
          "name": "",
          "type": "uint256"
        }
      ],
      "stateMutability": "nonpayable",
      "type": "function"
    },
    {
      "inputs": [],
      "name": "returnBettingResultOver",
      "outputs": [],
      "stateMutability": "nonpayable",
      "type": "function"
    },
    {
      "inputs": [],
      "name": "showVersusExecuted",
      "outputs": [
        {
          "internalType": "bool",
          "name": "",
          "type": "bool"
        }
      ],
      "stateMutability": "view",
      "type": "function"
    }
  ],
  "bytecode": "0x608060405269d3c21bcecceda10000006000556012600160006101000a81548160ff021916908360ff1602179055506040518060400160405280600981526020017f6c6f6c20746f6b656e00000000000000000000000000000000000000000000008152506002908162000074919062000424565b506040518060400160405280600281526020017f6c7400000000000000000000000000000000000000000000000000000000000081525060039081620000bb919062000424565b5060006009556000600a556200010c6040518060400160405280600481526020017f6e6f6e65000000000000000000000000000000000000000000000000000000008152506200017f60201b60201c565b600d556000600e60006101000a81548160ff0219169083151502179055503480156200013757600080fd5b5033600460006101000a81548173ffffffffffffffffffffffffffffffffffffffff021916908373ffffffffffffffffffffffffffffffffffffffff1602179055506200050b565b60008082905060008151036200019c576000801b915050620001a5565b60208301519150505b919050565b600081519050919050565b7f4e487b7100000000000000000000000000000000000000000000000000000000600052604160045260246000fd5b7f4e487b7100000000000000000000000000000000000000000000000000000000600052602260045260246000fd5b600060028204905060018216806200022c57607f821691505b602082108103620002425762000241620001e4565b5b50919050565b60008190508160005260206000209050919050565b60006020601f8301049050919050565b600082821b905092915050565b600060088302620002ac7fffffffffffffffffffffffffffffffffffffffffffffffffffffffffffffffff826200026d565b620002b886836200026d565b95508019841693508086168417925050509392505050565b6000819050919050565b6000819050919050565b600062000305620002ff620002f984620002d0565b620002da565b620002d0565b9050919050565b6000819050919050565b6200032183620002e4565b6200033962000330826200030c565b8484546200027a565b825550505050565b600090565b6200035062000341565b6200035d81848462000316565b505050565b5b8181101562000385576200037960008262000346565b60018101905062000363565b5050565b601f821115620003d4576200039e8162000248565b620003a9846200025d565b81016020851015620003b9578190505b620003d1620003c8856200025d565b83018262000362565b50505b505050565b600082821c905092915050565b6000620003f960001984600802620003d9565b1980831691505092915050565b6000620004148383620003e6565b9150826002028217905092915050565b6200042f82620001aa565b67ffffffffffffffff8111156200044b576200044a620001b5565b5b62000457825462000213565b6200046482828562000389565b600060209050601f8311600181146200049c576000841562000487578287015190505b62000493858262000406565b86555062000503565b601f198416620004ac8662000248565b60005b82811015620004d657848901518255600182019150602085019450602081019050620004af565b86831015620004f65784890151620004f2601f891682620003e6565b8355505b6001600288020188555050505b505050505050565b6121ef806200051b6000396000f3fe608060405234801561001057600080fd5b506004361061014d5760003560e01c8063792f97ae116100c3578063a63858031161007c578063a638580314610392578063a8285fdb146103c2578063cfb51928146103e0578063d7e80eee14610410578063ded946881461042c578063fec873891461044a5761014d565b8063792f97ae146102bc57806384ab8bb8146102ec5780638735741d1461031c5780638da5cb5b1461033857806395d89b41146103565780639c3cd535146103745761014d565b80632a57937a116101155780632a57937a146101e65780632d82ee8b14610216578063313ce56714610246578063377b47a3146102645780636ae2a1ca1461026e57806370a082311461028c5761014d565b8063026bdfa11461015257806306fdde03146101825780630b3f277f146101a05780630e85b294146101aa57806318160ddd146101c8575b600080fd5b61016c600480360381019061016791906116bd565b610466565b6040516101799190611703565b60405180910390f35b61018a61047e565b60405161019791906117ae565b60405180910390f35b6101a861050c565b005b6101b26106d5565b6040516101bf91906117eb565b60405180910390f35b6101d06106ec565b6040516101dd9190611703565b60405180910390f35b61020060048036038101906101fb91906116bd565b6106f2565b60405161020d91906117eb565b60405180910390f35b610230600480360381019061022b919061186b565b610712565b60405161023d9190611703565b60405180910390f35b61024e61077c565b60405161025b91906118d4565b60405180910390f35b61026c61078f565b005b610276610994565b60405161028391906117eb565b60405180910390f35b6102a660048036038101906102a1919061194d565b6109a7565b6040516102b39190611703565b60405180910390f35b6102d660048036038101906102d1919061194d565b6109f3565b6040516102e39190611989565b60405180910390f35b6103066004803603810190610301919061194d565b610a3f565b6040516103139190611703565b60405180910390f35b6103366004803603810190610331919061186b565b610a8b565b005b610340610c0e565b60405161034d91906119b3565b60405180910390f35b61035e610c34565b60405161036b91906117ae565b60405180910390f35b61037c610cc2565b6040516103899190611989565b60405180910390f35b6103ac60048036038101906103a791906119fa565b610cc8565b6040516103b991906117eb565b60405180910390f35b6103ca61101f565b6040516103d79190611703565b60405180910390f35b6103fa60048036038101906103f59190611b8a565b61129a565b6040516104079190611989565b60405180910390f35b61042a60048036038101906104259190611bd3565b6112c3565b005b6104346114db565b60405161044191906119b3565b60405180910390f35b610464600480360381019061045f9190611bd3565b611505565b005b60076020528060005260406000206000915090505481565b6002805461048b90611c83565b80601f01602080910402602001604051908101604052809291908181526020018280546104b790611c83565b80156105045780601f106104d957610100808354040283529160200191610504565b820191906000526020600020905b8154815290600101906020018083116104e757829003601f168201915b505050505081565b600460009054906101000a900473ffffffffffffffffffffffffffffffffffffffff1673ffffffffffffffffffffffffffffffffffffffff163373ffffffffffffffffffffffffffffffffffffffff161461056657600080fd5b600e60009054906101000a900460ff166105b5576040517f08c379a00000000000000000000000000000000000000000000000000000000081526004016105ac90611d00565b60405180910390fd5b6105f36040518060400160405280600481526020017f6e6f6e650000000000000000000000000000000000000000000000000000000081525061129a565b600d540361060057600080fd5b60076000600d548152602001908152602001600020546000808282546106269190611d4f565b92505081905550600060076000600d548152602001908152602001600020819055507fb9965e294ca2529c415e9cb787ae63bc589f2db22057272aeb9800e2750a4fff60405160405180910390a16106b26040518060400160405280600481526020017f6e6f6e650000000000000000000000000000000000000000000000000000000081525061129a565b600d819055506000600e60006101000a81548160ff021916908315150217905550565b6000600e60009054906101000a900460ff16905090565b60005481565b60086020528060005260406000206000915054906101000a900460ff1681565b60006007600061076585858080601f016020809104026020016040519081016040528093929190818152602001838380828437600081840152601f19601f8201169050808301925050505050505061129a565b815260200190815260200160002054905092915050565b600160009054906101000a900460ff1681565b600660003373ffffffffffffffffffffffffffffffffffffffff1673ffffffffffffffffffffffffffffffffffffffff16815260200190815260200160002060009054906101000a900460ff161561081c576040517f08c379a000000000000000000000000000000000000000000000000000000000815260040161081390611dcf565b60405180910390fd5b678ac7230489e800006000541015610869576040517f08c379a000000000000000000000000000000000000000000000000000000000815260040161086090611e3b565b60405180910390fd5b6001600660003373ffffffffffffffffffffffffffffffffffffffff1673ffffffffffffffffffffffffffffffffffffffff16815260200190815260200160002060006101000a81548160ff0219169083151502179055506040518060800160405280678ac7230489e800008152602001600015158152602001600080191681526020016000815250600560003373ffffffffffffffffffffffffffffffffffffffff1673ffffffffffffffffffffffffffffffffffffffff1681526020019081526020016000206000820151816000015560208201518160010160006101000a81548160ff0219169083151502179055506040820151816002015560608201518160030155905050678ac7230489e8000060008082825461098b9190611e5b565b92505081905550565b600e60009054906101000a900460ff1681565b6000600560008373ffffffffffffffffffffffffffffffffffffffff1673ffffffffffffffffffffffffffffffffffffffff168152602001908152602001600020600001549050919050565b6000600560008373ffffffffffffffffffffffffffffffffffffffff1673ffffffffffffffffffffffffffffffffffffffff168152602001908152602001600020600201549050919050565b6000600560008373ffffffffffffffffffffffffffffffffffffffff1673ffffffffffffffffffffffffffffffffffffffff168152602001908152602001600020600301549050919050565b600460009054906101000a900473ffffffffffffffffffffffffffffffffffffffff1673ffffffffffffffffffffffffffffffffffffffff163373ffffffffffffffffffffffffffffffffffffffff1614610ae557600080fd5b60008282905011610b2b576040517f08c379a0000000000000000000000000000000000000000000000000000000008152600401610b2290611edb565b60405180910390fd5b6000610b7a83838080601f016020809104026020016040519081016040528093929190818152602001838380828437600081840152601f19601f8201169050808301925050505050505061129a565b90506008600082815260200190815260200160002060009054906101000a900460ff1615610bdd576040517f08c379a0000000000000000000000000000000000000000000000000000000008152600401610bd490611f47565b60405180910390fd5b60016008600083815260200190815260200160002060006101000a81548160ff021916908315150217905550505050565b600460009054906101000a900473ffffffffffffffffffffffffffffffffffffffff1681565b60038054610c4190611c83565b80601f0160208091040260200160405190810160405280929190818152602001828054610c6d90611c83565b8015610cba5780601f10610c8f57610100808354040283529160200191610cba565b820191906000526020600020905b815481529060010190602001808311610c9d57829003601f168201915b505050505081565b600d5481565b6000600e60009054906101000a900460ff16610d19576040517f08c379a0000000000000000000000000000000000000000000000000000000008152600401610d1090611d00565b60405180910390fd5b600560003373ffffffffffffffffffffffffffffffffffffffff1673ffffffffffffffffffffffffffffffffffffffff16815260200190815260200160002060010160009054906101000a900460ff1615610da9576040517f08c379a0000000000000000000000000000000000000000000000000000000008152600401610da090611fb3565b60405180910390fd5b81610db3336109a7565b1015610df4576040517f08c379a0000000000000000000000000000000000000000000000000000000008152600401610deb9061201f565b60405180910390fd5b6000610e4385858080601f016020809104026020016040519081016040528093929190818152602001838380828437600081840152601f19601f8201169050808301925050505050505061129a565b9050600b54811480610e565750600c5481145b610e95576040517f08c379a0000000000000000000000000000000000000000000000000000000008152600401610e8c9061208b565b60405180910390fd5b82600560003373ffffffffffffffffffffffffffffffffffffffff1673ffffffffffffffffffffffffffffffffffffffff1681526020019081526020016000206000016000828254610ee79190611e5b565b9250508190555082600760008381526020019081526020016000206000828254610f119190611d4f565b9250508190555082600560003373ffffffffffffffffffffffffffffffffffffffff1673ffffffffffffffffffffffffffffffffffffffff1681526020019081526020016000206003016000828254610f6a9190611d4f565b925050819055506001600560003373ffffffffffffffffffffffffffffffffffffffff1673ffffffffffffffffffffffffffffffffffffffff16815260200190815260200160002060010160006101000a81548160ff02191690831515021790555080600560003373ffffffffffffffffffffffffffffffffffffffff1673ffffffffffffffffffffffffffffffffffffffff1681526020019081526020016000206002018190555060019150509392505050565b6000600e60009054906101000a900460ff16611070576040517f08c379a000000000000000000000000000000000000000000000000000000000815260040161106790611d00565b60405180910390fd5b6110ae6040518060400160405280600481526020017f6e6f6e650000000000000000000000000000000000000000000000000000000081525061129a565b600d54036110bb57600080fd5b600d546110c7336109f3565b036111a7576000600954600a546110dd33610a3f565b6110e791906120da565b6110f1919061210b565b905080600560003373ffffffffffffffffffffffffffffffffffffffff1673ffffffffffffffffffffffffffffffffffffffff16815260200190815260200160002060000160008282546111459190611d4f565b925050819055508060076000600d54815260200190815260200160002060008282546111719190611e5b565b92505081905550600060076000600d548152602001908152602001600020540361119e5761119d61050c565b5b80915050611297565b6000600560003373ffffffffffffffffffffffffffffffffffffffff1673ffffffffffffffffffffffffffffffffffffffff168152602001908152602001600020600201819055506000600560003373ffffffffffffffffffffffffffffffffffffffff1673ffffffffffffffffffffffffffffffffffffffff168152602001908152602001600020600301819055506000600560003373ffffffffffffffffffffffffffffffffffffffff1673ffffffffffffffffffffffffffffffffffffffff16815260200190815260200160002060010160006101000a81548160ff021916908315150217905550600090505b90565b60008082905060008151036112b5576000801b9150506112be565b60208301519150505b919050565b600e60009054906101000a900460ff16611312576040517f08c379a000000000000000000000000000000000000000000000000000000000815260040161130990611d00565b60405180910390fd5b600460009054906101000a900473ffffffffffffffffffffffffffffffffffffffff1673ffffffffffffffffffffffffffffffffffffffff163373ffffffffffffffffffffffffffffffffffffffff161461136c57600080fd5b60006113bb85858080601f016020809104026020016040519081016040528093929190818152602001838380828437600081840152601f19601f8201169050808301925050505050505061129a565b9050600061140c84848080601f016020809104026020016040519081016040528093929190818152602001838380828437600081840152601f19601f8201169050808301925050505050505061129a565b9050600b5482148061141f5750600c5482145b61142857600080fd5b600b548114806114395750600c5481145b61144257600080fd5b81600d819055506007600083815260200190815260200160002054600a8190555060076000828152602001908152602001600020546007600084815260200190815260200160002060008282546114999190611d4f565b92505081905550600760008381526020019081526020016000205460098190555060006007600083815260200190815260200160002081905550505050505050565b6000600460009054906101000a900473ffffffffffffffffffffffffffffffffffffffff16905090565b600e60009054906101000a900460ff1615611555576040517f08c379a000000000000000000000000000000000000000000000000000000000815260040161154c90612199565b60405180910390fd5b6115a284848080601f016020809104026020016040519081016040528093929190818152602001838380828437600081840152601f19601f8201169050808301925050505050505061129a565b600b819055506115f582828080601f016020809104026020016040519081016040528093929190818152602001838380828437600081840152601f19601f8201169050808301925050505050505061129a565b600c8190555060086000600b54815260200190815260200160002060009054906101000a900460ff168015611649575060086000600c54815260200190815260200160002060009054906101000a900460ff165b61165257600080fd5b6001600e60006101000a81548160ff02191690831515021790555050505050565b6000604051905090565b600080fd5b600080fd5b6000819050919050565b61169a81611687565b81146116a557600080fd5b50565b6000813590506116b781611691565b92915050565b6000602082840312156116d3576116d261167d565b5b60006116e1848285016116a8565b91505092915050565b6000819050919050565b6116fd816116ea565b82525050565b600060208201905061171860008301846116f4565b92915050565b600081519050919050565b600082825260208201905092915050565b60005b8381101561175857808201518184015260208101905061173d565b60008484015250505050565b6000601f19601f8301169050919050565b60006117808261171e565b61178a8185611729565b935061179a81856020860161173a565b6117a381611764565b840191505092915050565b600060208201905081810360008301526117c88184611775565b905092915050565b60008115159050919050565b6117e5816117d0565b82525050565b600060208201905061180060008301846117dc565b92915050565b600080fd5b600080fd5b600080fd5b60008083601f84011261182b5761182a611806565b5b8235905067ffffffffffffffff8111156118485761184761180b565b5b60208301915083600182028301111561186457611863611810565b5b9250929050565b600080602083850312156118825761188161167d565b5b600083013567ffffffffffffffff8111156118a05761189f611682565b5b6118ac85828601611815565b92509250509250929050565b600060ff82169050919050565b6118ce816118b8565b82525050565b60006020820190506118e960008301846118c5565b92915050565b600073ffffffffffffffffffffffffffffffffffffffff82169050919050565b600061191a826118ef565b9050919050565b61192a8161190f565b811461193557600080fd5b50565b60008135905061194781611921565b92915050565b6000602082840312156119635761196261167d565b5b600061197184828501611938565b91505092915050565b61198381611687565b82525050565b600060208201905061199e600083018461197a565b92915050565b6119ad8161190f565b82525050565b60006020820190506119c860008301846119a4565b92915050565b6119d7816116ea565b81146119e257600080fd5b50565b6000813590506119f4816119ce565b92915050565b600080600060408486031215611a1357611a1261167d565b5b600084013567ffffffffffffffff811115611a3157611a30611682565b5b611a3d86828701611815565b93509350506020611a50868287016119e5565b9150509250925092565b600080fd5b7f4e487b7100000000000000000000000000000000000000000000000000000000600052604160045260246000fd5b611a9782611764565b810181811067ffffffffffffffff82111715611ab657611ab5611a5f565b5b80604052505050565b6000611ac9611673565b9050611ad58282611a8e565b919050565b600067ffffffffffffffff821115611af557611af4611a5f565b5b611afe82611764565b9050602081019050919050565b82818337600083830152505050565b6000611b2d611b2884611ada565b611abf565b905082815260208101848484011115611b4957611b48611a5a565b5b611b54848285611b0b565b509392505050565b600082601f830112611b7157611b70611806565b5b8135611b81848260208601611b1a565b91505092915050565b600060208284031215611ba057611b9f61167d565b5b600082013567ffffffffffffffff811115611bbe57611bbd611682565b5b611bca84828501611b5c565b91505092915050565b60008060008060408587031215611bed57611bec61167d565b5b600085013567ffffffffffffffff811115611c0b57611c0a611682565b5b611c1787828801611815565b9450945050602085013567ffffffffffffffff811115611c3a57611c39611682565b5b611c4687828801611815565b925092505092959194509250565b7f4e487b7100000000000000000000000000000000000000000000000000000000600052602260045260246000fd5b60006002820490506001821680611c9b57607f821691505b602082108103611cae57611cad611c54565b5b50919050565b7f56657273757320686173206e6f74206265656e20657865637574656420796574600082015250565b6000611cea602083611729565b9150611cf582611cb4565b602082019050919050565b60006020820190508181036000830152611d1981611cdd565b9050919050565b7f4e487b7100000000000000000000000000000000000000000000000000000000600052601160045260246000fd5b6000611d5a826116ea565b9150611d65836116ea565b9250828201905080821115611d7d57611d7c611d20565b5b92915050565b7f596f75206861766520616c726561647920726567697374657265640000000000600082015250565b6000611db9601b83611729565b9150611dc482611d83565b602082019050919050565b60006020820190508181036000830152611de881611dac565b9050919050565b7f4e6f7420656e6f75676820746f74616c537570706c7921000000000000000000600082015250565b6000611e25601783611729565b9150611e3082611def565b602082019050919050565b60006020820190508181036000830152611e5481611e18565b9050919050565b6000611e66826116ea565b9150611e71836116ea565b9250828203905081811115611e8957611e88611d20565b5b92915050565b7f5465616d206e616d652063616e6e6f7420626520656d70747900000000000000600082015250565b6000611ec5601983611729565b9150611ed082611e8f565b602082019050919050565b60006020820190508181036000830152611ef481611eb8565b9050919050565b7f5465616d206e616d6520616c7265616479206578697374730000000000000000600082015250565b6000611f31601883611729565b9150611f3c82611efb565b602082019050919050565b60006020820190508181036000830152611f6081611f24565b9050919050565b7f596f75206861766520616c726561647920766f74656421000000000000000000600082015250565b6000611f9d601783611729565b9150611fa882611f67565b602082019050919050565b60006020820190508181036000830152611fcc81611f90565b9050919050565b7f4e6f7420656e6f75676820746f6b656e73210000000000000000000000000000600082015250565b6000612009601283611729565b915061201482611fd3565b602082019050919050565b6000602082019050818103600083015261203881611ffc565b9050919050565b7f496e76616c6964207465616d206e616d65210000000000000000000000000000600082015250565b6000612075601283611729565b91506120808261203f565b602082019050919050565b600060208201905081810360008301526120a481612068565b9050919050565b7f4e487b7100000000000000000000000000000000000000000000000000000000600052601260045260246000fd5b60006120e5826116ea565b91506120f0836116ea565b925082612100576120ff6120ab565b5b828204905092915050565b6000612116826116ea565b9150612121836116ea565b925082820261212f816116ea565b9150828204841483151761214657612145611d20565b5b5092915050565b7f5665727375732068617320616c7265616479206265656e206578656375746564600082015250565b6000612183602083611729565b915061218e8261214d565b602082019050919050565b600060208201905081810360008301526121b281612176565b905091905056fea2646970667358221220865b83b128961983cfdb1d3dda5c62990ffaf7be64959d5d49bcba3fae47204064736f6c63430008120033",
  "immutableReferences": {},
  "source": "// SPDX-License-Identifier: MIT\npragma solidity >=0.8.18<0.9.0; //>=0.8.18 <0.9.0\nimport './SetTeam.sol';\n// Vote.sol\n\ncontract Vote is SetTeam {\n    // vote.sol function versus( )   \n    //        betting result  \n    bytes32 team1;  \n    bytes32 team2;\n    //    , default : 'none'\n    bytes32 public teamNameWin = stringToBytes32('none');\n    // versus       modifier ,   bool \n    // versus  : false , versus  : true , returnBettingResultOver()   false...\n    bool public versusExecuted = false;\n    // returnBettingResult() returnBettingResultOver    \n    // react   .( returnBettingResultOver  )\n    event BettingResultOver();\n    // versus  \n    modifier onlyBeforeVersus() {\n        require(!versusExecuted, \"Versus has already been executed\");\n        _;\n    }\n    // versus  \n    modifier onlyAfterVersus() {\n        require(versusExecuted, \"Versus has not been executed yet\");\n        _;\n    }\n    // team1, team2 \n    function versus(string calldata _team1, string calldata _team2) public onlyBeforeVersus {\n        team1 = stringToBytes32(_team1);\n        team2 = stringToBytes32(_team2);\n        require(teamSetted[team1] && teamSetted[team2]);\n\n        versusExecuted = true;\n    }\n    // vote  ( )\n    function vote(string calldata _teamName, uint _amount) public onlyAfterVersus returns (bool) {\n        require(!userData[msg.sender].voted, \"You have already voted!\");\n        require(balanceOf(msg.sender) >= _amount, \"Not enough tokens!\");\n        \n        bytes32 teamName = stringToBytes32(_teamName);\n        require(teamName == team1 || teamName == team2, \"Invalid team name!\");\n\n        userData[msg.sender].balance -= _amount;\n        teamWeight[teamName] += _amount;\n\n        userData[msg.sender].voteBalance += _amount;\n\n        userData[msg.sender].voted = true;\n        userData[msg.sender].teamName = teamName;\n\n        return true;\n    }\n    // game end :  \n    function gameEnd(string calldata _teamNameWin, string calldata _teamNameLose) public onlyAfterVersus onlyOwner {\n        bytes32 win = stringToBytes32(_teamNameWin);\n        bytes32 lose = stringToBytes32(_teamNameLose);\n        require(win == team1 || win == team2);\n        require(lose == team1 || lose == team2);\n        teamNameWin = win;\n        winnerTeamPureBalance = teamWeight[win];\n        teamWeight[win] += teamWeight[lose];\n        bettingTotalBalance = teamWeight[win];\n        teamWeight[lose] = 0;\n    }\n    //  ...\n    //   user   retrunBettingResultOver() \n    function returnBettingResult() public onlyAfterVersus returns(uint) {\n        require(teamNameWin != stringToBytes32('none'));\n\n        if (getUserVotedTeamName(msg.sender) == teamNameWin) {\n            uint amountToReturn = (voteBalanceOf(msg.sender) / winnerTeamPureBalance) * bettingTotalBalance;\n            userData[msg.sender].balance += amountToReturn;\n            teamWeight[teamNameWin] -= amountToReturn;\n\n            if (teamWeight[teamNameWin] == 0) {\n                returnBettingResultOver();\n            }\n            return amountToReturn;\n        }\n        userData[msg.sender].teamName = '';\n        userData[msg.sender].voteBalance = 0;\n        userData[msg.sender].voted = false;\n        return 0;\n    }\n    //     versus()  \n    function returnBettingResultOver() public onlyOwner onlyAfterVersus {\n        require(teamNameWin != stringToBytes32('none'));\n        totalSupply += teamWeight[teamNameWin];\n        teamWeight[teamNameWin] = 0;\n        \n        emit BettingResultOver();\n        teamNameWin = stringToBytes32('none');\n        versusExecuted = false;\n\n    }\n\n    function showVersusExecuted() public view returns(bool) {\n        return versusExecuted;\n    }\n}",
  "sourcePath": "/home/minkun/vote-main/src/contracts/Vote.sol",
  "compiler": {
    "name": "solc",
    "version": "0.8.18+commit.87f61d96.Emscripten.clang"
  },
  "schemaVersion": "3.4.14",
  "updatedAt": "2023-08-07T13:39:48.662Z",
  "devdoc": {
    "kind": "dev",
    "methods": {},
    "version": 1
  },
  "userdoc": {
    "kind": "user",
    "methods": {},
    "version": 1
  }
}