{
  "contractName": "Vote",
  "abi": [
    {
      "anonymous": false,
      "inputs": [],
      "name": "BettingResultOver",
      "type": "event"
    },
    {
      "inputs": [
        {
          "internalType": "address",
          "name": "_address",
          "type": "address"
        }
      ],
      "name": "balanceOf",
      "outputs": [
        {
          "internalType": "uint256",
          "name": "",
          "type": "uint256"
        }
      ],
      "stateMutability": "view",
      "type": "function"
    },
    {
      "inputs": [],
      "name": "decimals",
      "outputs": [
        {
          "internalType": "uint8",
          "name": "",
          "type": "uint8"
        }
      ],
      "stateMutability": "view",
      "type": "function"
    },
    {
      "inputs": [
        {
          "internalType": "string",
          "name": "_teamName",
          "type": "string"
        }
      ],
      "name": "getTeamWeightByTeamName",
      "outputs": [
        {
          "internalType": "uint256",
          "name": "",
          "type": "uint256"
        }
      ],
      "stateMutability": "view",
      "type": "function"
    },
    {
      "inputs": [
        {
          "internalType": "address",
          "name": "_address",
          "type": "address"
        }
      ],
      "name": "getUserVotedTeamName",
      "outputs": [
        {
          "internalType": "bytes32",
          "name": "",
          "type": "bytes32"
        }
      ],
      "stateMutability": "view",
      "type": "function"
    },
    {
      "inputs": [],
      "name": "logIn",
      "outputs": [
        {
          "internalType": "uint256",
          "name": "",
          "type": "uint256"
        }
      ],
      "stateMutability": "nonpayable",
      "type": "function"
    },
    {
      "inputs": [],
      "name": "name",
      "outputs": [
        {
          "internalType": "string",
          "name": "",
          "type": "string"
        }
      ],
      "stateMutability": "view",
      "type": "function"
    },
    {
      "inputs": [],
      "name": "owner",
      "outputs": [
        {
          "internalType": "address",
          "name": "",
          "type": "address"
        }
      ],
      "stateMutability": "view",
      "type": "function"
    },
    {
      "inputs": [],
      "name": "showOwner",
      "outputs": [
        {
          "internalType": "address",
          "name": "",
          "type": "address"
        }
      ],
      "stateMutability": "view",
      "type": "function"
    },
    {
      "inputs": [
        {
          "internalType": "bytes32",
          "name": "",
          "type": "bytes32"
        }
      ],
      "name": "stringTeamName",
      "outputs": [
        {
          "internalType": "string",
          "name": "",
          "type": "string"
        }
      ],
      "stateMutability": "view",
      "type": "function"
    },
    {
      "inputs": [
        {
          "internalType": "string",
          "name": "source",
          "type": "string"
        }
      ],
      "name": "stringToBytes32",
      "outputs": [
        {
          "internalType": "bytes32",
          "name": "result",
          "type": "bytes32"
        }
      ],
      "stateMutability": "pure",
      "type": "function"
    },
    {
      "inputs": [],
      "name": "symbol",
      "outputs": [
        {
          "internalType": "string",
          "name": "",
          "type": "string"
        }
      ],
      "stateMutability": "view",
      "type": "function"
    },
    {
      "inputs": [],
      "name": "team1",
      "outputs": [
        {
          "internalType": "bytes32",
          "name": "",
          "type": "bytes32"
        }
      ],
      "stateMutability": "view",
      "type": "function"
    },
    {
      "inputs": [],
      "name": "team2",
      "outputs": [
        {
          "internalType": "bytes32",
          "name": "",
          "type": "bytes32"
        }
      ],
      "stateMutability": "view",
      "type": "function"
    },
    {
      "inputs": [],
      "name": "teamNameWin",
      "outputs": [
        {
          "internalType": "bytes32",
          "name": "",
          "type": "bytes32"
        }
      ],
      "stateMutability": "view",
      "type": "function"
    },
    {
      "inputs": [
        {
          "internalType": "bytes32",
          "name": "",
          "type": "bytes32"
        }
      ],
      "name": "teamWeight",
      "outputs": [
        {
          "internalType": "uint256",
          "name": "",
          "type": "uint256"
        }
      ],
      "stateMutability": "view",
      "type": "function"
    },
    {
      "inputs": [],
      "name": "totalSupply",
      "outputs": [
        {
          "internalType": "uint256",
          "name": "",
          "type": "uint256"
        }
      ],
      "stateMutability": "view",
      "type": "function"
    },
    {
      "inputs": [],
      "name": "versusExecuted",
      "outputs": [
        {
          "internalType": "bool",
          "name": "",
          "type": "bool"
        }
      ],
      "stateMutability": "view",
      "type": "function"
    },
    {
      "inputs": [
        {
          "internalType": "address",
          "name": "_address",
          "type": "address"
        }
      ],
      "name": "voteBalanceOf",
      "outputs": [
        {
          "internalType": "uint256",
          "name": "",
          "type": "uint256"
        }
      ],
      "stateMutability": "view",
      "type": "function"
    },
    {
      "inputs": [
        {
          "internalType": "string",
          "name": "_team1",
          "type": "string"
        },
        {
          "internalType": "string",
          "name": "_team2",
          "type": "string"
        }
      ],
      "name": "versus",
      "outputs": [],
      "stateMutability": "nonpayable",
      "type": "function"
    },
    {
      "inputs": [
        {
          "internalType": "string",
          "name": "_teamName",
          "type": "string"
        },
        {
          "internalType": "uint256",
          "name": "_amount",
          "type": "uint256"
        }
      ],
      "name": "vote",
      "outputs": [
        {
          "internalType": "bool",
          "name": "",
          "type": "bool"
        }
      ],
      "stateMutability": "nonpayable",
      "type": "function"
    },
    {
      "inputs": [
        {
          "internalType": "string",
          "name": "_teamNameWin",
          "type": "string"
        },
        {
          "internalType": "string",
          "name": "_teamNameLose",
          "type": "string"
        }
      ],
      "name": "gameEnd",
      "outputs": [],
      "stateMutability": "nonpayable",
      "type": "function"
    },
    {
      "inputs": [],
      "name": "returnBettingResult",
      "outputs": [
        {
          "internalType": "uint256",
          "name": "",
          "type": "uint256"
        }
      ],
      "stateMutability": "nonpayable",
      "type": "function"
    },
    {
      "inputs": [],
      "name": "returnBettingResultOver",
      "outputs": [],
      "stateMutability": "nonpayable",
      "type": "function"
    },
    {
      "inputs": [],
      "name": "showVersus",
      "outputs": [
        {
          "internalType": "string",
          "name": "",
          "type": "string"
        },
        {
          "internalType": "string",
          "name": "",
          "type": "string"
        }
      ],
      "stateMutability": "view",
      "type": "function"
    },
    {
      "inputs": [],
      "name": "showWinnerTeam",
      "outputs": [
        {
          "internalType": "string",
          "name": "",
          "type": "string"
        }
      ],
      "stateMutability": "view",
      "type": "function"
    }
  ],
  "bytecode": "0x608060405269d3c21bcecceda10000006000556012600160006101000a81548160ff021916908360ff1602179055506040518060400160405280600981526020017f6c6f6c20746f6b656e00000000000000000000000000000000000000000000008152506002908162000074919062000424565b506040518060400160405280600281526020017f6c7400000000000000000000000000000000000000000000000000000000000081525060039081620000bb919062000424565b5060006009556000600a556200010c6040518060400160405280600481526020017f6e6f6e65000000000000000000000000000000000000000000000000000000008152506200017f60201b60201c565b600d556000600e60006101000a81548160ff0219169083151502179055503480156200013757600080fd5b5033600460006101000a81548173ffffffffffffffffffffffffffffffffffffffff021916908373ffffffffffffffffffffffffffffffffffffffff1602179055506200050b565b60008082905060008151036200019c576000801b915050620001a5565b60208301519150505b919050565b600081519050919050565b7f4e487b7100000000000000000000000000000000000000000000000000000000600052604160045260246000fd5b7f4e487b7100000000000000000000000000000000000000000000000000000000600052602260045260246000fd5b600060028204905060018216806200022c57607f821691505b602082108103620002425762000241620001e4565b5b50919050565b60008190508160005260206000209050919050565b60006020601f8301049050919050565b600082821b905092915050565b600060088302620002ac7fffffffffffffffffffffffffffffffffffffffffffffffffffffffffffffffff826200026d565b620002b886836200026d565b95508019841693508086168417925050509392505050565b6000819050919050565b6000819050919050565b600062000305620002ff620002f984620002d0565b620002da565b620002d0565b9050919050565b6000819050919050565b6200032183620002e4565b6200033962000330826200030c565b8484546200027a565b825550505050565b600090565b6200035062000341565b6200035d81848462000316565b505050565b5b8181101562000385576200037960008262000346565b60018101905062000363565b5050565b601f821115620003d4576200039e8162000248565b620003a9846200025d565b81016020851015620003b9578190505b620003d1620003c8856200025d565b83018262000362565b50505b505050565b600082821c905092915050565b6000620003f960001984600802620003d9565b1980831691505092915050565b6000620004148383620003e6565b9150826002028217905092915050565b6200042f82620001aa565b67ffffffffffffffff8111156200044b576200044a620001b5565b5b62000457825462000213565b6200046482828562000389565b600060209050601f8311600181146200049c576000841562000487578287015190505b62000493858262000406565b86555062000503565b601f198416620004ac8662000248565b60005b82811015620004d657848901518255600182019150602085019450602081019050620004af565b86831015620004f65784890151620004f2601f891682620003e6565b8355505b6001600288020188555050505b505050505050565b612529806200051b6000396000f3fe608060405234801561001057600080fd5b50600436106101735760003560e01c80638c8d2ede116100de578063a8285fdb11610097578063d7e80eee11610071578063d7e80eee1461046b578063ded9468814610487578063e612c0ad146104a5578063fec87389146104c357610173565b8063a8285fdb146103fe578063cfb519281461041c578063d5ee652f1461044c57610173565b80638c8d2ede146103265780638da5cb5b1461034457806395d89b4114610362578063967f3fa4146103805780639c3cd535146103b0578063a6385803146103ce57610173565b8063313ce56711610130578063313ce5671461023c578063377b47a31461025a5780636ae2a1ca1461027857806370a0823114610296578063792f97ae146102c657806384ab8bb8146102f657610173565b8063026bdfa11461017857806306fdde03146101a85780630b3f277f146101c65780630fc98ad0146101d057806318160ddd146101ee5780632d82ee8b1461020c575b600080fd5b610192600480360381019061018d9190611811565b6104df565b60405161019f9190611857565b60405180910390f35b6101b06104f7565b6040516101bd9190611902565b60405180910390f35b6101ce610585565b005b6101d861074e565b6040516101e59190611902565b60405180910390f35b6101f66107f3565b6040516102039190611857565b60405180910390f35b61022660048036038101906102219190611989565b6107f9565b6040516102339190611857565b60405180910390f35b610244610863565b60405161025191906119f2565b60405180910390f35b610262610876565b60405161026f9190611857565b60405180910390f35b610280610a89565b60405161028d9190611a28565b60405180910390f35b6102b060048036038101906102ab9190611aa1565b610a9c565b6040516102bd9190611857565b60405180910390f35b6102e060048036038101906102db9190611aa1565b610ae8565b6040516102ed9190611add565b60405180910390f35b610310600480360381019061030b9190611aa1565b610b34565b60405161031d9190611857565b60405180910390f35b61032e610b80565b60405161033b9190611add565b60405180910390f35b61034c610b86565b6040516103599190611b07565b60405180910390f35b61036a610bac565b6040516103779190611902565b60405180910390f35b61039a60048036038101906103959190611811565b610c3a565b6040516103a79190611902565b60405180910390f35b6103b8610cda565b6040516103c59190611add565b60405180910390f35b6103e860048036038101906103e39190611b4e565b610ce0565b6040516103f59190611a28565b60405180910390f35b610406611037565b6040516104139190611857565b60405180910390f35b61043660048036038101906104319190611cde565b611283565b6040516104439190611add565b60405180910390f35b6104546112ac565b604051610462929190611d27565b60405180910390f35b61048560048036038101906104809190611d5e565b6113f9565b005b61048f611636565b60405161049c9190611b07565b60405180910390f35b6104ad611660565b6040516104ba9190611add565b60405180910390f35b6104dd60048036038101906104d89190611d5e565b611666565b005b60076020528060005260406000206000915090505481565b6002805461050490611e0e565b80601f016020809104026020016040519081016040528092919081815260200182805461053090611e0e565b801561057d5780601f106105525761010080835404028352916020019161057d565b820191906000526020600020905b81548152906001019060200180831161056057829003601f168201915b505050505081565b600460009054906101000a900473ffffffffffffffffffffffffffffffffffffffff1673ffffffffffffffffffffffffffffffffffffffff163373ffffffffffffffffffffffffffffffffffffffff16146105df57600080fd5b600e60009054906101000a900460ff1661062e576040517f08c379a000000000000000000000000000000000000000000000000000000000815260040161062590611e8b565b60405180910390fd5b61066c6040518060400160405280600481526020017f6e6f6e6500000000000000000000000000000000000000000000000000000000815250611283565b600d540361067957600080fd5b60076000600d5481526020019081526020016000205460008082825461069f9190611eda565b92505081905550600060076000600d548152602001908152602001600020819055507fb9965e294ca2529c415e9cb787ae63bc589f2db22057272aeb9800e2750a4fff60405160405180910390a161072b6040518060400160405280600481526020017f6e6f6e6500000000000000000000000000000000000000000000000000000000815250611283565b600d819055506000600e60006101000a81548160ff021916908315150217905550565b606060086000600d548152602001908152602001600020805461077090611e0e565b80601f016020809104026020016040519081016040528092919081815260200182805461079c90611e0e565b80156107e95780601f106107be576101008083540402835291602001916107e9565b820191906000526020600020905b8154815290600101906020018083116107cc57829003601f168201915b5050505050905090565b60005481565b60006007600061084c85858080601f016020809104026020016040519081016040528093929190818152602001838380828437600081840152601f19601f82011690508083019250505050505050611283565b815260200190815260200160002054905092915050565b600160009054906101000a900460ff1681565b6000600660003373ffffffffffffffffffffffffffffffffffffffff1673ffffffffffffffffffffffffffffffffffffffff16815260200190815260200160002060009054906101000a900460ff1615610905576040517f08c379a00000000000000000000000000000000000000000000000000000000081526004016108fc90611f5a565b60405180910390fd5b678ac7230489e800006000541015610952576040517f08c379a000000000000000000000000000000000000000000000000000000000815260040161094990611fc6565b60405180910390fd5b6001600660003373ffffffffffffffffffffffffffffffffffffffff1673ffffffffffffffffffffffffffffffffffffffff16815260200190815260200160002060006101000a81548160ff0219169083151502179055506040518060800160405280678ac7230489e800008152602001600015158152602001600080191681526020016000815250600560003373ffffffffffffffffffffffffffffffffffffffff1673ffffffffffffffffffffffffffffffffffffffff1681526020019081526020016000206000820151816000015560208201518160010160006101000a81548160ff0219169083151502179055506040820151816002015560608201518160030155905050678ac7230489e80000600080828254610a749190611fe6565b92505081905550610a8433610a9c565b905090565b600e60009054906101000a900460ff1681565b6000600560008373ffffffffffffffffffffffffffffffffffffffff1673ffffffffffffffffffffffffffffffffffffffff168152602001908152602001600020600001549050919050565b6000600560008373ffffffffffffffffffffffffffffffffffffffff1673ffffffffffffffffffffffffffffffffffffffff168152602001908152602001600020600201549050919050565b6000600560008373ffffffffffffffffffffffffffffffffffffffff1673ffffffffffffffffffffffffffffffffffffffff168152602001908152602001600020600301549050919050565b600b5481565b600460009054906101000a900473ffffffffffffffffffffffffffffffffffffffff1681565b60038054610bb990611e0e565b80601f0160208091040260200160405190810160405280929190818152602001828054610be590611e0e565b8015610c325780601f10610c0757610100808354040283529160200191610c32565b820191906000526020600020905b815481529060010190602001808311610c1557829003601f168201915b505050505081565b60086020528060005260406000206000915090508054610c5990611e0e565b80601f0160208091040260200160405190810160405280929190818152602001828054610c8590611e0e565b8015610cd25780601f10610ca757610100808354040283529160200191610cd2565b820191906000526020600020905b815481529060010190602001808311610cb557829003601f168201915b505050505081565b600d5481565b6000600e60009054906101000a900460ff16610d31576040517f08c379a0000000000000000000000000000000000000000000000000000000008152600401610d2890611e8b565b60405180910390fd5b600560003373ffffffffffffffffffffffffffffffffffffffff1673ffffffffffffffffffffffffffffffffffffffff16815260200190815260200160002060010160009054906101000a900460ff1615610dc1576040517f08c379a0000000000000000000000000000000000000000000000000000000008152600401610db890612066565b60405180910390fd5b81610dcb33610a9c565b1015610e0c576040517f08c379a0000000000000000000000000000000000000000000000000000000008152600401610e03906120d2565b60405180910390fd5b6000610e5b85858080601f016020809104026020016040519081016040528093929190818152602001838380828437600081840152601f19601f82011690508083019250505050505050611283565b9050600b54811480610e6e5750600c5481145b610ead576040517f08c379a0000000000000000000000000000000000000000000000000000000008152600401610ea49061213e565b60405180910390fd5b82600560003373ffffffffffffffffffffffffffffffffffffffff1673ffffffffffffffffffffffffffffffffffffffff1681526020019081526020016000206000016000828254610eff9190611fe6565b9250508190555082600760008381526020019081526020016000206000828254610f299190611eda565b9250508190555082600560003373ffffffffffffffffffffffffffffffffffffffff1673ffffffffffffffffffffffffffffffffffffffff1681526020019081526020016000206003016000828254610f829190611eda565b925050819055506001600560003373ffffffffffffffffffffffffffffffffffffffff1673ffffffffffffffffffffffffffffffffffffffff16815260200190815260200160002060010160006101000a81548160ff02191690831515021790555080600560003373ffffffffffffffffffffffffffffffffffffffff1673ffffffffffffffffffffffffffffffffffffffff1681526020019081526020016000206002018190555060019150509392505050565b6000600e60009054906101000a900460ff16611088576040517f08c379a000000000000000000000000000000000000000000000000000000000815260040161107f90611e8b565b60405180910390fd5b6110c66040518060400160405280600481526020017f6e6f6e6500000000000000000000000000000000000000000000000000000000815250611283565b600d54036110d357600080fd5b6000600d546110e133610ae8565b0361119157600954600a546110f533610b34565b6110ff919061218d565b61110991906121be565b905080600560003373ffffffffffffffffffffffffffffffffffffffff1673ffffffffffffffffffffffffffffffffffffffff168152602001908152602001600020600001600082825461115d9190611eda565b925050819055508060076000600d54815260200190815260200160002060008282546111899190611fe6565b925050819055505b6000600560003373ffffffffffffffffffffffffffffffffffffffff1673ffffffffffffffffffffffffffffffffffffffff168152602001908152602001600020600201819055506000600560003373ffffffffffffffffffffffffffffffffffffffff1673ffffffffffffffffffffffffffffffffffffffff168152602001908152602001600020600301819055506000600560003373ffffffffffffffffffffffffffffffffffffffff1673ffffffffffffffffffffffffffffffffffffffff16815260200190815260200160002060010160006101000a81548160ff0219169083151502179055508091505090565b600080829050600081510361129e576000801b9150506112a7565b60208301519150505b919050565b60608060086000600b54815260200190815260200160002060086000600c5481526020019081526020016000208180546112e590611e0e565b80601f016020809104026020016040519081016040528092919081815260200182805461131190611e0e565b801561135e5780601f106113335761010080835404028352916020019161135e565b820191906000526020600020905b81548152906001019060200180831161134157829003601f168201915b5050505050915080805461137190611e0e565b80601f016020809104026020016040519081016040528092919081815260200182805461139d90611e0e565b80156113ea5780601f106113bf576101008083540402835291602001916113ea565b820191906000526020600020905b8154815290600101906020018083116113cd57829003601f168201915b50505050509050915091509091565b600e60009054906101000a900460ff16611448576040517f08c379a000000000000000000000000000000000000000000000000000000000815260040161143f90611e8b565b60405180910390fd5b600460009054906101000a900473ffffffffffffffffffffffffffffffffffffffff1673ffffffffffffffffffffffffffffffffffffffff163373ffffffffffffffffffffffffffffffffffffffff16146114a257600080fd5b60006114f185858080601f016020809104026020016040519081016040528093929190818152602001838380828437600081840152601f19601f82011690508083019250505050505050611283565b9050600061154284848080601f016020809104026020016040519081016040528093929190818152602001838380828437600081840152601f19601f82011690508083019250505050505050611283565b9050600b548214806115555750600c5482145b61155e57600080fd5b600b5481148061156f5750600c5481145b61157857600080fd5b81600d819055506007600083815260200190815260200160002054600a8190555060076000828152602001908152602001600020546007600084815260200190815260200160002060008282546115cf9190611eda565b92505081905550600760008381526020019081526020016000205460098190555060006007600083815260200190815260200160002081905550858560086000600d548152602001908152602001600020918261162d9291906123b7565b50505050505050565b6000600460009054906101000a900473ffffffffffffffffffffffffffffffffffffffff16905090565b600c5481565b600e60009054906101000a900460ff16156116b6576040517f08c379a00000000000000000000000000000000000000000000000000000000081526004016116ad906124d3565b60405180910390fd5b61170384848080601f016020809104026020016040519081016040528093929190818152602001838380828437600081840152601f19601f82011690508083019250505050505050611283565b600b8190555061175682828080601f016020809104026020016040519081016040528093929190818152602001838380828437600081840152601f19601f82011690508083019250505050505050611283565b600c81905550838360086000600b54815260200190815260200160002091826117809291906123b7565b50818160086000600c54815260200190815260200160002091826117a59291906123b7565b506001600e60006101000a81548160ff02191690831515021790555050505050565b6000604051905090565b600080fd5b600080fd5b6000819050919050565b6117ee816117db565b81146117f957600080fd5b50565b60008135905061180b816117e5565b92915050565b600060208284031215611827576118266117d1565b5b6000611835848285016117fc565b91505092915050565b6000819050919050565b6118518161183e565b82525050565b600060208201905061186c6000830184611848565b92915050565b600081519050919050565b600082825260208201905092915050565b60005b838110156118ac578082015181840152602081019050611891565b60008484015250505050565b6000601f19601f8301169050919050565b60006118d482611872565b6118de818561187d565b93506118ee81856020860161188e565b6118f7816118b8565b840191505092915050565b6000602082019050818103600083015261191c81846118c9565b905092915050565b600080fd5b600080fd5b600080fd5b60008083601f84011261194957611948611924565b5b8235905067ffffffffffffffff81111561196657611965611929565b5b6020830191508360018202830111156119825761198161192e565b5b9250929050565b600080602083850312156119a05761199f6117d1565b5b600083013567ffffffffffffffff8111156119be576119bd6117d6565b5b6119ca85828601611933565b92509250509250929050565b600060ff82169050919050565b6119ec816119d6565b82525050565b6000602082019050611a0760008301846119e3565b92915050565b60008115159050919050565b611a2281611a0d565b82525050565b6000602082019050611a3d6000830184611a19565b92915050565b600073ffffffffffffffffffffffffffffffffffffffff82169050919050565b6000611a6e82611a43565b9050919050565b611a7e81611a63565b8114611a8957600080fd5b50565b600081359050611a9b81611a75565b92915050565b600060208284031215611ab757611ab66117d1565b5b6000611ac584828501611a8c565b91505092915050565b611ad7816117db565b82525050565b6000602082019050611af26000830184611ace565b92915050565b611b0181611a63565b82525050565b6000602082019050611b1c6000830184611af8565b92915050565b611b2b8161183e565b8114611b3657600080fd5b50565b600081359050611b4881611b22565b92915050565b600080600060408486031215611b6757611b666117d1565b5b600084013567ffffffffffffffff811115611b8557611b846117d6565b5b611b9186828701611933565b93509350506020611ba486828701611b39565b9150509250925092565b600080fd5b7f4e487b7100000000000000000000000000000000000000000000000000000000600052604160045260246000fd5b611beb826118b8565b810181811067ffffffffffffffff82111715611c0a57611c09611bb3565b5b80604052505050565b6000611c1d6117c7565b9050611c298282611be2565b919050565b600067ffffffffffffffff821115611c4957611c48611bb3565b5b611c52826118b8565b9050602081019050919050565b82818337600083830152505050565b6000611c81611c7c84611c2e565b611c13565b905082815260208101848484011115611c9d57611c9c611bae565b5b611ca8848285611c5f565b509392505050565b600082601f830112611cc557611cc4611924565b5b8135611cd5848260208601611c6e565b91505092915050565b600060208284031215611cf457611cf36117d1565b5b600082013567ffffffffffffffff811115611d1257611d116117d6565b5b611d1e84828501611cb0565b91505092915050565b60006040820190508181036000830152611d4181856118c9565b90508181036020830152611d5581846118c9565b90509392505050565b60008060008060408587031215611d7857611d776117d1565b5b600085013567ffffffffffffffff811115611d9657611d956117d6565b5b611da287828801611933565b9450945050602085013567ffffffffffffffff811115611dc557611dc46117d6565b5b611dd187828801611933565b925092505092959194509250565b7f4e487b7100000000000000000000000000000000000000000000000000000000600052602260045260246000fd5b60006002820490506001821680611e2657607f821691505b602082108103611e3957611e38611ddf565b5b50919050565b7f56657273757320686173206e6f74206265656e20657865637574656420796574600082015250565b6000611e7560208361187d565b9150611e8082611e3f565b602082019050919050565b60006020820190508181036000830152611ea481611e68565b9050919050565b7f4e487b7100000000000000000000000000000000000000000000000000000000600052601160045260246000fd5b6000611ee58261183e565b9150611ef08361183e565b9250828201905080821115611f0857611f07611eab565b5b92915050565b7f596f75206861766520616c726561647920726567697374657265640000000000600082015250565b6000611f44601b8361187d565b9150611f4f82611f0e565b602082019050919050565b60006020820190508181036000830152611f7381611f37565b9050919050565b7f4e6f7420656e6f75676820746f74616c537570706c7921000000000000000000600082015250565b6000611fb060178361187d565b9150611fbb82611f7a565b602082019050919050565b60006020820190508181036000830152611fdf81611fa3565b9050919050565b6000611ff18261183e565b9150611ffc8361183e565b925082820390508181111561201457612013611eab565b5b92915050565b7f596f75206861766520616c726561647920766f74656421000000000000000000600082015250565b600061205060178361187d565b915061205b8261201a565b602082019050919050565b6000602082019050818103600083015261207f81612043565b9050919050565b7f4e6f7420656e6f75676820746f6b656e73210000000000000000000000000000600082015250565b60006120bc60128361187d565b91506120c782612086565b602082019050919050565b600060208201905081810360008301526120eb816120af565b9050919050565b7f496e76616c6964207465616d206e616d65210000000000000000000000000000600082015250565b600061212860128361187d565b9150612133826120f2565b602082019050919050565b600060208201905081810360008301526121578161211b565b9050919050565b7f4e487b7100000000000000000000000000000000000000000000000000000000600052601260045260246000fd5b60006121988261183e565b91506121a38361183e565b9250826121b3576121b261215e565b5b828204905092915050565b60006121c98261183e565b91506121d48361183e565b92508282026121e28161183e565b915082820484148315176121f9576121f8611eab565b5b5092915050565b600082905092915050565b60008190508160005260206000209050919050565b60006020601f8301049050919050565b600082821b905092915050565b60006008830261226d7fffffffffffffffffffffffffffffffffffffffffffffffffffffffffffffffff82612230565b6122778683612230565b95508019841693508086168417925050509392505050565b6000819050919050565b60006122b46122af6122aa8461183e565b61228f565b61183e565b9050919050565b6000819050919050565b6122ce83612299565b6122e26122da826122bb565b84845461223d565b825550505050565b600090565b6122f76122ea565b6123028184846122c5565b505050565b5b818110156123265761231b6000826122ef565b600181019050612308565b5050565b601f82111561236b5761233c8161220b565b61234584612220565b81016020851015612354578190505b61236861236085612220565b830182612307565b50505b505050565b600082821c905092915050565b600061238e60001984600802612370565b1980831691505092915050565b60006123a7838361237d565b9150826002028217905092915050565b6123c18383612200565b67ffffffffffffffff8111156123da576123d9611bb3565b5b6123e48254611e0e565b6123ef82828561232a565b6000601f83116001811461241e576000841561240c578287013590505b612416858261239b565b86555061247e565b601f19841661242c8661220b565b60005b828110156124545784890135825560018201915060208501945060208101905061242f565b86831015612471578489013561246d601f89168261237d565b8355505b6001600288020188555050505b50505050505050565b7f5665727375732068617320616c7265616479206265656e206578656375746564600082015250565b60006124bd60208361187d565b91506124c882612487565b602082019050919050565b600060208201905081810360008301526124ec816124b0565b905091905056fea2646970667358221220b03ceb5cba153e8c6d903c7a937e79cd5f5fc31f6e43942672a9fca91229323664736f6c63430008120033",
  "immutableReferences": {},
  "source": "// SPDX-License-Identifier: MIT\r\npragma solidity >=0.8.18<0.9.0; //>=0.8.18 <0.9.0\r\nimport './SetTeam.sol';\r\n// Vote.sol\r\n\r\ncontract Vote is SetTeam {\r\n    // vote.sol function versus( )   \r\n    //        betting result  \r\n    bytes32 public team1;  \r\n    bytes32 public team2;\r\n    //    , default : 'none'\r\n    bytes32 public teamNameWin = stringToBytes32('none');\r\n    // versus       modifier ,   bool \r\n    // versus  : false , versus  : true , returnBettingResultOver()   false...\r\n    bool public versusExecuted = false;\r\n    // returnBettingResult() returnBettingResultOver    \r\n    // react   .( returnBettingResultOver  )\r\n    event BettingResultOver();\r\n    // versus  \r\n    modifier onlyBeforeVersus() {\r\n        require(!versusExecuted, \"Versus has already been executed\");\r\n        _;\r\n    }\r\n    // versus  \r\n    modifier onlyAfterVersus() {\r\n        require(versusExecuted, \"Versus has not been executed yet\");\r\n        _;\r\n    }\r\n    // team1, team2 \r\n    function versus(string calldata _team1, string calldata _team2) public onlyBeforeVersus {\r\n        team1 = stringToBytes32(_team1);\r\n        team2 = stringToBytes32(_team2);\r\n        stringTeamName[team1] = _team1;\r\n        stringTeamName[team2] = _team2;\r\n\r\n        versusExecuted = true;\r\n    }\r\n    // vote  ( )\r\n    function vote(string calldata _teamName, uint _amount) public onlyAfterVersus returns (bool) {\r\n        require(!userData[msg.sender].voted, \"You have already voted!\");\r\n        require(balanceOf(msg.sender) >= _amount, \"Not enough tokens!\");\r\n        \r\n        bytes32 teamName = stringToBytes32(_teamName);\r\n        require(teamName == team1 || teamName == team2, \"Invalid team name!\");\r\n\r\n        userData[msg.sender].balance -= _amount;\r\n        teamWeight[teamName] += _amount;\r\n\r\n        userData[msg.sender].voteBalance += _amount;\r\n\r\n        userData[msg.sender].voted = true;\r\n        userData[msg.sender].teamName = teamName;\r\n\r\n        return true;\r\n    }\r\n    // game end :  \r\n    function gameEnd(string calldata _teamNameWin, string calldata _teamNameLose) public onlyAfterVersus onlyOwner {\r\n        bytes32 win = stringToBytes32(_teamNameWin);\r\n        bytes32 lose = stringToBytes32(_teamNameLose);\r\n        require(win == team1 || win == team2);\r\n        require(lose == team1 || lose == team2);\r\n        teamNameWin = win;\r\n        winnerTeamPureBalance = teamWeight[win];\r\n        teamWeight[win] += teamWeight[lose];\r\n        bettingTotalBalance = teamWeight[win];\r\n        teamWeight[lose] = 0;\r\n        stringTeamName[teamNameWin] = _teamNameWin;\r\n    }\r\n    //   user   retrunBettingResultOver() \r\n    function returnBettingResult() public onlyAfterVersus returns(uint) {\r\n        require(teamNameWin != stringToBytes32('none'));\r\n        uint amountToReturn = 0;\r\n        if (getUserVotedTeamName(msg.sender) == teamNameWin) {\r\n            amountToReturn = (voteBalanceOf(msg.sender) / winnerTeamPureBalance) * bettingTotalBalance;\r\n            userData[msg.sender].balance += amountToReturn;\r\n            teamWeight[teamNameWin] -= amountToReturn;\r\n        }\r\n        userData[msg.sender].teamName = '';\r\n        userData[msg.sender].voteBalance = 0;\r\n        userData[msg.sender].voted = false;\r\n        return amountToReturn;\r\n    }\r\n    //     versus()  \r\n    function returnBettingResultOver() public onlyOwner onlyAfterVersus {\r\n        require(teamNameWin != stringToBytes32('none'));\r\n        totalSupply += teamWeight[teamNameWin];\r\n        teamWeight[teamNameWin] = 0;\r\n        \r\n        emit BettingResultOver();\r\n        teamNameWin = stringToBytes32('none');\r\n        versusExecuted = false;\r\n    }\r\n\r\n\r\n    // main.jsx. versus     \r\n    function showVersus() public view returns(string memory, string memory) {\r\n        return(stringTeamName[team1], stringTeamName[team2]);\r\n    }\r\n    function showWinnerTeam() public view returns(string memory) {\r\n        return(stringTeamName[teamNameWin]);\r\n    }\r\n}",
  "sourcePath": "/home/minkun/vote-main/src/contracts/Vote.sol",
  "compiler": {
    "name": "solc",
    "version": "0.8.18+commit.87f61d96.Emscripten.clang"
  },
  "schemaVersion": "3.4.14",
  "updatedAt": "2023-08-14T04:56:00.565Z",
  "devdoc": {
    "kind": "dev",
    "methods": {},
    "version": 1
  },
  "userdoc": {
    "kind": "user",
    "methods": {},
    "version": 1
  }
}