{
  "contractName": "Vote",
  "abi": [
    {
      "anonymous": false,
      "inputs": [],
      "name": "BettingResultOver",
      "type": "event"
    },
    {
      "inputs": [
        {
          "internalType": "address",
          "name": "_address",
          "type": "address"
        }
      ],
      "name": "balanceOf",
      "outputs": [
        {
          "internalType": "uint256",
          "name": "",
          "type": "uint256"
        }
      ],
      "stateMutability": "view",
      "type": "function",
      "constant": true
    },
    {
      "inputs": [],
      "name": "decimals",
      "outputs": [
        {
          "internalType": "uint8",
          "name": "",
          "type": "uint8"
        }
      ],
      "stateMutability": "view",
      "type": "function",
      "constant": true
    },
    {
      "inputs": [
        {
          "internalType": "string",
          "name": "_teamName",
          "type": "string"
        }
      ],
      "name": "getTeamWeightByTeamName",
      "outputs": [
        {
          "internalType": "uint256",
          "name": "",
          "type": "uint256"
        }
      ],
      "stateMutability": "view",
      "type": "function",
      "constant": true
    },
    {
      "inputs": [
        {
          "internalType": "address",
          "name": "_address",
          "type": "address"
        }
      ],
      "name": "getUserVotedTeamName",
      "outputs": [
        {
          "internalType": "bytes32",
          "name": "",
          "type": "bytes32"
        }
      ],
      "stateMutability": "view",
      "type": "function",
      "constant": true
    },
    {
      "inputs": [],
      "name": "logIn",
      "outputs": [],
      "stateMutability": "nonpayable",
      "type": "function"
    },
    {
      "inputs": [],
      "name": "name",
      "outputs": [
        {
          "internalType": "string",
          "name": "",
          "type": "string"
        }
      ],
      "stateMutability": "view",
      "type": "function",
      "constant": true
    },
    {
      "inputs": [],
      "name": "owner",
      "outputs": [
        {
          "internalType": "address",
          "name": "",
          "type": "address"
        }
      ],
      "stateMutability": "view",
      "type": "function",
      "constant": true
    },
    {
      "inputs": [
        {
          "internalType": "string",
          "name": "_teamName",
          "type": "string"
        }
      ],
      "name": "setTeam",
      "outputs": [],
      "stateMutability": "nonpayable",
      "type": "function"
    },
    {
      "inputs": [],
      "name": "showOwner",
      "outputs": [
        {
          "internalType": "address",
          "name": "",
          "type": "address"
        }
      ],
      "stateMutability": "view",
      "type": "function",
      "constant": true
    },
    {
      "inputs": [
        {
          "internalType": "string",
          "name": "source",
          "type": "string"
        }
      ],
      "name": "stringToBytes32",
      "outputs": [
        {
          "internalType": "bytes32",
          "name": "result",
          "type": "bytes32"
        }
      ],
      "stateMutability": "pure",
      "type": "function",
      "constant": true
    },
    {
      "inputs": [],
      "name": "symbol",
      "outputs": [
        {
          "internalType": "string",
          "name": "",
          "type": "string"
        }
      ],
      "stateMutability": "view",
      "type": "function",
      "constant": true
    },
    {
      "inputs": [],
      "name": "team1",
      "outputs": [
        {
          "internalType": "bytes32",
          "name": "",
          "type": "bytes32"
        }
      ],
      "stateMutability": "view",
      "type": "function",
      "constant": true
    },
    {
      "inputs": [],
      "name": "team2",
      "outputs": [
        {
          "internalType": "bytes32",
          "name": "",
          "type": "bytes32"
        }
      ],
      "stateMutability": "view",
      "type": "function",
      "constant": true
    },
    {
      "inputs": [],
      "name": "teamNameWin",
      "outputs": [
        {
          "internalType": "bytes32",
          "name": "",
          "type": "bytes32"
        }
      ],
      "stateMutability": "view",
      "type": "function",
      "constant": true
    },
    {
      "inputs": [
        {
          "internalType": "bytes32",
          "name": "",
          "type": "bytes32"
        }
      ],
      "name": "teamSetted",
      "outputs": [
        {
          "internalType": "bool",
          "name": "",
          "type": "bool"
        }
      ],
      "stateMutability": "view",
      "type": "function",
      "constant": true
    },
    {
      "inputs": [
        {
          "internalType": "bytes32",
          "name": "",
          "type": "bytes32"
        }
      ],
      "name": "teamWeight",
      "outputs": [
        {
          "internalType": "uint256",
          "name": "",
          "type": "uint256"
        }
      ],
      "stateMutability": "view",
      "type": "function",
      "constant": true
    },
    {
      "inputs": [],
      "name": "totalSupply",
      "outputs": [
        {
          "internalType": "uint256",
          "name": "",
          "type": "uint256"
        }
      ],
      "stateMutability": "view",
      "type": "function",
      "constant": true
    },
    {
      "inputs": [],
      "name": "versusExecuted",
      "outputs": [
        {
          "internalType": "bool",
          "name": "",
          "type": "bool"
        }
      ],
      "stateMutability": "view",
      "type": "function",
      "constant": true
    },
    {
      "inputs": [
        {
          "internalType": "address",
          "name": "_address",
          "type": "address"
        }
      ],
      "name": "voteBalanceOf",
      "outputs": [
        {
          "internalType": "uint256",
          "name": "",
          "type": "uint256"
        }
      ],
      "stateMutability": "view",
      "type": "function",
      "constant": true
    },
    {
      "inputs": [
        {
          "internalType": "string",
          "name": "_team1",
          "type": "string"
        },
        {
          "internalType": "string",
          "name": "_team2",
          "type": "string"
        }
      ],
      "name": "versus",
      "outputs": [],
      "stateMutability": "nonpayable",
      "type": "function"
    },
    {
      "inputs": [
        {
          "internalType": "string",
          "name": "_teamName",
          "type": "string"
        },
        {
          "internalType": "uint256",
          "name": "_amount",
          "type": "uint256"
        }
      ],
      "name": "vote",
      "outputs": [
        {
          "internalType": "bool",
          "name": "",
          "type": "bool"
        }
      ],
      "stateMutability": "nonpayable",
      "type": "function"
    },
    {
      "inputs": [
        {
          "internalType": "string",
          "name": "_teamNameWin",
          "type": "string"
        },
        {
          "internalType": "string",
          "name": "_teamNameLose",
          "type": "string"
        }
      ],
      "name": "gameEnd",
      "outputs": [],
      "stateMutability": "nonpayable",
      "type": "function"
    },
    {
      "inputs": [],
      "name": "returnBettingResult",
      "outputs": [
        {
          "internalType": "uint256",
          "name": "",
          "type": "uint256"
        }
      ],
      "stateMutability": "nonpayable",
      "type": "function"
    },
    {
      "inputs": [],
      "name": "returnBettingResultOver",
      "outputs": [],
      "stateMutability": "nonpayable",
      "type": "function"
    },
    {
      "inputs": [],
      "name": "showVersusExecuted",
      "outputs": [
        {
          "internalType": "bool",
          "name": "",
          "type": "bool"
        }
      ],
      "stateMutability": "view",
      "type": "function",
      "constant": true
    },
    {
      "inputs": [],
      "name": "showMatchUp1",
      "outputs": [
        {
          "internalType": "bytes32",
          "name": "",
          "type": "bytes32"
        }
      ],
      "stateMutability": "view",
      "type": "function",
      "constant": true
    },
    {
      "inputs": [],
      "name": "showMatchUp2",
      "outputs": [
        {
          "internalType": "bytes32",
          "name": "",
          "type": "bytes32"
        }
      ],
      "stateMutability": "view",
      "type": "function",
      "constant": true
    }
  ],
  "bytecode": "0x608060405269d3c21bcecceda10000006000556012600160006101000a81548160ff021916908360ff1602179055506040518060400160405280600981526020017f6c6f6c20746f6b656e00000000000000000000000000000000000000000000008152506002908162000074919062000424565b506040518060400160405280600281526020017f6c7400000000000000000000000000000000000000000000000000000000000081525060039081620000bb919062000424565b5060006009556000600a556200010c6040518060400160405280600481526020017f6e6f6e65000000000000000000000000000000000000000000000000000000008152506200017f60201b60201c565b600d556000600e60006101000a81548160ff0219169083151502179055503480156200013757600080fd5b5033600460006101000a81548173ffffffffffffffffffffffffffffffffffffffff021916908373ffffffffffffffffffffffffffffffffffffffff1602179055506200050b565b60008082905060008151036200019c576000801b915050620001a5565b60208301519150505b919050565b600081519050919050565b7f4e487b7100000000000000000000000000000000000000000000000000000000600052604160045260246000fd5b7f4e487b7100000000000000000000000000000000000000000000000000000000600052602260045260246000fd5b600060028204905060018216806200022c57607f821691505b602082108103620002425762000241620001e4565b5b50919050565b60008190508160005260206000209050919050565b60006020601f8301049050919050565b600082821b905092915050565b600060088302620002ac7fffffffffffffffffffffffffffffffffffffffffffffffffffffffffffffffff826200026d565b620002b886836200026d565b95508019841693508086168417925050509392505050565b6000819050919050565b6000819050919050565b600062000305620002ff620002f984620002d0565b620002da565b620002d0565b9050919050565b6000819050919050565b6200032183620002e4565b6200033962000330826200030c565b8484546200027a565b825550505050565b600090565b6200035062000341565b6200035d81848462000316565b505050565b5b8181101562000385576200037960008262000346565b60018101905062000363565b5050565b601f821115620003d4576200039e8162000248565b620003a9846200025d565b81016020851015620003b9578190505b620003d1620003c8856200025d565b83018262000362565b50505b505050565b600082821c905092915050565b6000620003f960001984600802620003d9565b1980831691505092915050565b6000620004148383620003e6565b9150826002028217905092915050565b6200042f82620001aa565b67ffffffffffffffff8111156200044b576200044a620001b5565b5b62000457825462000213565b6200046482828562000389565b600060209050601f8311600181146200049c576000841562000487578287015190505b62000493858262000406565b86555062000503565b601f198416620004ac8662000248565b60005b82811015620004d657848901518255600182019150602085019450602081019050620004af565b86831015620004f65784890151620004f2601f891682620003e6565b8355505b6001600288020188555050505b505050505050565b6122e3806200051b6000396000f3fe608060405234801561001057600080fd5b50600436106101a95760003560e01c80638735741d116100f9578063b5c7faf611610097578063d8b9c50d11610071578063d8b9c50d146104c4578063ded94688146104e2578063e612c0ad14610500578063fec873891461051e576101a9565b8063b5c7faf61461045a578063cfb5192814610478578063d7e80eee146104a8576101a9565b806395d89b41116100d357806395d89b41146103d05780639c3cd535146103ee578063a63858031461040c578063a8285fdb1461043c576101a9565b80638735741d146103785780638c8d2ede146103945780638da5cb5b146103b2576101a9565b80632d82ee8b116101665780636ae2a1ca116101405780636ae2a1ca146102ca57806370a08231146102e8578063792f97ae1461031857806384ab8bb814610348576101a9565b80632d82ee8b14610272578063313ce567146102a2578063377b47a3146102c0576101a9565b8063026bdfa1146101ae57806306fdde03146101de5780630b3f277f146101fc5780630e85b2941461020657806318160ddd146102245780632a57937a14610242575b600080fd5b6101c860048036038101906101c391906117b1565b61053a565b6040516101d591906117f7565b60405180910390f35b6101e6610552565b6040516101f391906118a2565b60405180910390f35b6102046105e0565b005b61020e6107a9565b60405161021b91906118df565b60405180910390f35b61022c6107c0565b60405161023991906117f7565b60405180910390f35b61025c600480360381019061025791906117b1565b6107c6565b60405161026991906118df565b60405180910390f35b61028c6004803603810190610287919061195f565b6107e6565b60405161029991906117f7565b60405180910390f35b6102aa610850565b6040516102b791906119c8565b60405180910390f35b6102c8610863565b005b6102d2610a68565b6040516102df91906118df565b60405180910390f35b61030260048036038101906102fd9190611a41565b610a7b565b60405161030f91906117f7565b60405180910390f35b610332600480360381019061032d9190611a41565b610ac7565b60405161033f9190611a7d565b60405180910390f35b610362600480360381019061035d9190611a41565b610b13565b60405161036f91906117f7565b60405180910390f35b610392600480360381019061038d919061195f565b610b5f565b005b61039c610ce2565b6040516103a99190611a7d565b60405180910390f35b6103ba610ce8565b6040516103c79190611aa7565b60405180910390f35b6103d8610d0e565b6040516103e591906118a2565b60405180910390f35b6103f6610d9c565b6040516104039190611a7d565b60405180910390f35b61042660048036038101906104219190611aee565b610da2565b60405161043391906118df565b60405180910390f35b6104446110f9565b60405161045191906117f7565b60405180910390f35b610462611374565b60405161046f9190611a7d565b60405180910390f35b610492600480360381019061048d9190611c7e565b61137e565b60405161049f9190611a7d565b60405180910390f35b6104c260048036038101906104bd9190611cc7565b6113a7565b005b6104cc6115bf565b6040516104d99190611a7d565b60405180910390f35b6104ea6115c9565b6040516104f79190611aa7565b60405180910390f35b6105086115f3565b6040516105159190611a7d565b60405180910390f35b61053860048036038101906105339190611cc7565b6115f9565b005b60076020528060005260406000206000915090505481565b6002805461055f90611d77565b80601f016020809104026020016040519081016040528092919081815260200182805461058b90611d77565b80156105d85780601f106105ad576101008083540402835291602001916105d8565b820191906000526020600020905b8154815290600101906020018083116105bb57829003601f168201915b505050505081565b600460009054906101000a900473ffffffffffffffffffffffffffffffffffffffff1673ffffffffffffffffffffffffffffffffffffffff163373ffffffffffffffffffffffffffffffffffffffff161461063a57600080fd5b600e60009054906101000a900460ff16610689576040517f08c379a000000000000000000000000000000000000000000000000000000000815260040161068090611df4565b60405180910390fd5b6106c76040518060400160405280600481526020017f6e6f6e650000000000000000000000000000000000000000000000000000000081525061137e565b600d54036106d457600080fd5b60076000600d548152602001908152602001600020546000808282546106fa9190611e43565b92505081905550600060076000600d548152602001908152602001600020819055507fb9965e294ca2529c415e9cb787ae63bc589f2db22057272aeb9800e2750a4fff60405160405180910390a16107866040518060400160405280600481526020017f6e6f6e650000000000000000000000000000000000000000000000000000000081525061137e565b600d819055506000600e60006101000a81548160ff021916908315150217905550565b6000600e60009054906101000a900460ff16905090565b60005481565b60086020528060005260406000206000915054906101000a900460ff1681565b60006007600061083985858080601f016020809104026020016040519081016040528093929190818152602001838380828437600081840152601f19601f8201169050808301925050505050505061137e565b815260200190815260200160002054905092915050565b600160009054906101000a900460ff1681565b600660003373ffffffffffffffffffffffffffffffffffffffff1673ffffffffffffffffffffffffffffffffffffffff16815260200190815260200160002060009054906101000a900460ff16156108f0576040517f08c379a00000000000000000000000000000000000000000000000000000000081526004016108e790611ec3565b60405180910390fd5b678ac7230489e80000600054101561093d576040517f08c379a000000000000000000000000000000000000000000000000000000000815260040161093490611f2f565b60405180910390fd5b6001600660003373ffffffffffffffffffffffffffffffffffffffff1673ffffffffffffffffffffffffffffffffffffffff16815260200190815260200160002060006101000a81548160ff0219169083151502179055506040518060800160405280678ac7230489e800008152602001600015158152602001600080191681526020016000815250600560003373ffffffffffffffffffffffffffffffffffffffff1673ffffffffffffffffffffffffffffffffffffffff1681526020019081526020016000206000820151816000015560208201518160010160006101000a81548160ff0219169083151502179055506040820151816002015560608201518160030155905050678ac7230489e80000600080828254610a5f9190611f4f565b92505081905550565b600e60009054906101000a900460ff1681565b6000600560008373ffffffffffffffffffffffffffffffffffffffff1673ffffffffffffffffffffffffffffffffffffffff168152602001908152602001600020600001549050919050565b6000600560008373ffffffffffffffffffffffffffffffffffffffff1673ffffffffffffffffffffffffffffffffffffffff168152602001908152602001600020600201549050919050565b6000600560008373ffffffffffffffffffffffffffffffffffffffff1673ffffffffffffffffffffffffffffffffffffffff168152602001908152602001600020600301549050919050565b600460009054906101000a900473ffffffffffffffffffffffffffffffffffffffff1673ffffffffffffffffffffffffffffffffffffffff163373ffffffffffffffffffffffffffffffffffffffff1614610bb957600080fd5b60008282905011610bff576040517f08c379a0000000000000000000000000000000000000000000000000000000008152600401610bf690611fcf565b60405180910390fd5b6000610c4e83838080601f016020809104026020016040519081016040528093929190818152602001838380828437600081840152601f19601f8201169050808301925050505050505061137e565b90506008600082815260200190815260200160002060009054906101000a900460ff1615610cb1576040517f08c379a0000000000000000000000000000000000000000000000000000000008152600401610ca89061203b565b60405180910390fd5b60016008600083815260200190815260200160002060006101000a81548160ff021916908315150217905550505050565b600b5481565b600460009054906101000a900473ffffffffffffffffffffffffffffffffffffffff1681565b60038054610d1b90611d77565b80601f0160208091040260200160405190810160405280929190818152602001828054610d4790611d77565b8015610d945780601f10610d6957610100808354040283529160200191610d94565b820191906000526020600020905b815481529060010190602001808311610d7757829003601f168201915b505050505081565b600d5481565b6000600e60009054906101000a900460ff16610df3576040517f08c379a0000000000000000000000000000000000000000000000000000000008152600401610dea90611df4565b60405180910390fd5b600560003373ffffffffffffffffffffffffffffffffffffffff1673ffffffffffffffffffffffffffffffffffffffff16815260200190815260200160002060010160009054906101000a900460ff1615610e83576040517f08c379a0000000000000000000000000000000000000000000000000000000008152600401610e7a906120a7565b60405180910390fd5b81610e8d33610a7b565b1015610ece576040517f08c379a0000000000000000000000000000000000000000000000000000000008152600401610ec590612113565b60405180910390fd5b6000610f1d85858080601f016020809104026020016040519081016040528093929190818152602001838380828437600081840152601f19601f8201169050808301925050505050505061137e565b9050600b54811480610f305750600c5481145b610f6f576040517f08c379a0000000000000000000000000000000000000000000000000000000008152600401610f669061217f565b60405180910390fd5b82600560003373ffffffffffffffffffffffffffffffffffffffff1673ffffffffffffffffffffffffffffffffffffffff1681526020019081526020016000206000016000828254610fc19190611f4f565b9250508190555082600760008381526020019081526020016000206000828254610feb9190611e43565b9250508190555082600560003373ffffffffffffffffffffffffffffffffffffffff1673ffffffffffffffffffffffffffffffffffffffff16815260200190815260200160002060030160008282546110449190611e43565b925050819055506001600560003373ffffffffffffffffffffffffffffffffffffffff1673ffffffffffffffffffffffffffffffffffffffff16815260200190815260200160002060010160006101000a81548160ff02191690831515021790555080600560003373ffffffffffffffffffffffffffffffffffffffff1673ffffffffffffffffffffffffffffffffffffffff1681526020019081526020016000206002018190555060019150509392505050565b6000600e60009054906101000a900460ff1661114a576040517f08c379a000000000000000000000000000000000000000000000000000000000815260040161114190611df4565b60405180910390fd5b6111886040518060400160405280600481526020017f6e6f6e650000000000000000000000000000000000000000000000000000000081525061137e565b600d540361119557600080fd5b600d546111a133610ac7565b03611281576000600954600a546111b733610b13565b6111c191906121ce565b6111cb91906121ff565b905080600560003373ffffffffffffffffffffffffffffffffffffffff1673ffffffffffffffffffffffffffffffffffffffff168152602001908152602001600020600001600082825461121f9190611e43565b925050819055508060076000600d548152602001908152602001600020600082825461124b9190611f4f565b92505081905550600060076000600d5481526020019081526020016000205403611278576112776105e0565b5b80915050611371565b6000600560003373ffffffffffffffffffffffffffffffffffffffff1673ffffffffffffffffffffffffffffffffffffffff168152602001908152602001600020600201819055506000600560003373ffffffffffffffffffffffffffffffffffffffff1673ffffffffffffffffffffffffffffffffffffffff168152602001908152602001600020600301819055506000600560003373ffffffffffffffffffffffffffffffffffffffff1673ffffffffffffffffffffffffffffffffffffffff16815260200190815260200160002060010160006101000a81548160ff021916908315150217905550600090505b90565b6000600b54905090565b6000808290506000815103611399576000801b9150506113a2565b60208301519150505b919050565b600e60009054906101000a900460ff166113f6576040517f08c379a00000000000000000000000000000000000000000000000000000000081526004016113ed90611df4565b60405180910390fd5b600460009054906101000a900473ffffffffffffffffffffffffffffffffffffffff1673ffffffffffffffffffffffffffffffffffffffff163373ffffffffffffffffffffffffffffffffffffffff161461145057600080fd5b600061149f85858080601f016020809104026020016040519081016040528093929190818152602001838380828437600081840152601f19601f8201169050808301925050505050505061137e565b905060006114f084848080601f016020809104026020016040519081016040528093929190818152602001838380828437600081840152601f19601f8201169050808301925050505050505061137e565b9050600b548214806115035750600c5482145b61150c57600080fd5b600b5481148061151d5750600c5481145b61152657600080fd5b81600d819055506007600083815260200190815260200160002054600a81905550600760008281526020019081526020016000205460076000848152602001908152602001600020600082825461157d9190611e43565b92505081905550600760008381526020019081526020016000205460098190555060006007600083815260200190815260200160002081905550505050505050565b6000600c54905090565b6000600460009054906101000a900473ffffffffffffffffffffffffffffffffffffffff16905090565b600c5481565b600e60009054906101000a900460ff1615611649576040517f08c379a00000000000000000000000000000000000000000000000000000000081526004016116409061228d565b60405180910390fd5b61169684848080601f016020809104026020016040519081016040528093929190818152602001838380828437600081840152601f19601f8201169050808301925050505050505061137e565b600b819055506116e982828080601f016020809104026020016040519081016040528093929190818152602001838380828437600081840152601f19601f8201169050808301925050505050505061137e565b600c8190555060086000600b54815260200190815260200160002060009054906101000a900460ff16801561173d575060086000600c54815260200190815260200160002060009054906101000a900460ff165b61174657600080fd5b6001600e60006101000a81548160ff02191690831515021790555050505050565b6000604051905090565b600080fd5b600080fd5b6000819050919050565b61178e8161177b565b811461179957600080fd5b50565b6000813590506117ab81611785565b92915050565b6000602082840312156117c7576117c6611771565b5b60006117d58482850161179c565b91505092915050565b6000819050919050565b6117f1816117de565b82525050565b600060208201905061180c60008301846117e8565b92915050565b600081519050919050565b600082825260208201905092915050565b60005b8381101561184c578082015181840152602081019050611831565b60008484015250505050565b6000601f19601f8301169050919050565b600061187482611812565b61187e818561181d565b935061188e81856020860161182e565b61189781611858565b840191505092915050565b600060208201905081810360008301526118bc8184611869565b905092915050565b60008115159050919050565b6118d9816118c4565b82525050565b60006020820190506118f460008301846118d0565b92915050565b600080fd5b600080fd5b600080fd5b60008083601f84011261191f5761191e6118fa565b5b8235905067ffffffffffffffff81111561193c5761193b6118ff565b5b60208301915083600182028301111561195857611957611904565b5b9250929050565b6000806020838503121561197657611975611771565b5b600083013567ffffffffffffffff81111561199457611993611776565b5b6119a085828601611909565b92509250509250929050565b600060ff82169050919050565b6119c2816119ac565b82525050565b60006020820190506119dd60008301846119b9565b92915050565b600073ffffffffffffffffffffffffffffffffffffffff82169050919050565b6000611a0e826119e3565b9050919050565b611a1e81611a03565b8114611a2957600080fd5b50565b600081359050611a3b81611a15565b92915050565b600060208284031215611a5757611a56611771565b5b6000611a6584828501611a2c565b91505092915050565b611a778161177b565b82525050565b6000602082019050611a926000830184611a6e565b92915050565b611aa181611a03565b82525050565b6000602082019050611abc6000830184611a98565b92915050565b611acb816117de565b8114611ad657600080fd5b50565b600081359050611ae881611ac2565b92915050565b600080600060408486031215611b0757611b06611771565b5b600084013567ffffffffffffffff811115611b2557611b24611776565b5b611b3186828701611909565b93509350506020611b4486828701611ad9565b9150509250925092565b600080fd5b7f4e487b7100000000000000000000000000000000000000000000000000000000600052604160045260246000fd5b611b8b82611858565b810181811067ffffffffffffffff82111715611baa57611ba9611b53565b5b80604052505050565b6000611bbd611767565b9050611bc98282611b82565b919050565b600067ffffffffffffffff821115611be957611be8611b53565b5b611bf282611858565b9050602081019050919050565b82818337600083830152505050565b6000611c21611c1c84611bce565b611bb3565b905082815260208101848484011115611c3d57611c3c611b4e565b5b611c48848285611bff565b509392505050565b600082601f830112611c6557611c646118fa565b5b8135611c75848260208601611c0e565b91505092915050565b600060208284031215611c9457611c93611771565b5b600082013567ffffffffffffffff811115611cb257611cb1611776565b5b611cbe84828501611c50565b91505092915050565b60008060008060408587031215611ce157611ce0611771565b5b600085013567ffffffffffffffff811115611cff57611cfe611776565b5b611d0b87828801611909565b9450945050602085013567ffffffffffffffff811115611d2e57611d2d611776565b5b611d3a87828801611909565b925092505092959194509250565b7f4e487b7100000000000000000000000000000000000000000000000000000000600052602260045260246000fd5b60006002820490506001821680611d8f57607f821691505b602082108103611da257611da1611d48565b5b50919050565b7f56657273757320686173206e6f74206265656e20657865637574656420796574600082015250565b6000611dde60208361181d565b9150611de982611da8565b602082019050919050565b60006020820190508181036000830152611e0d81611dd1565b9050919050565b7f4e487b7100000000000000000000000000000000000000000000000000000000600052601160045260246000fd5b6000611e4e826117de565b9150611e59836117de565b9250828201905080821115611e7157611e70611e14565b5b92915050565b7f596f75206861766520616c726561647920726567697374657265640000000000600082015250565b6000611ead601b8361181d565b9150611eb882611e77565b602082019050919050565b60006020820190508181036000830152611edc81611ea0565b9050919050565b7f4e6f7420656e6f75676820746f74616c537570706c7921000000000000000000600082015250565b6000611f1960178361181d565b9150611f2482611ee3565b602082019050919050565b60006020820190508181036000830152611f4881611f0c565b9050919050565b6000611f5a826117de565b9150611f65836117de565b9250828203905081811115611f7d57611f7c611e14565b5b92915050565b7f5465616d206e616d652063616e6e6f7420626520656d70747900000000000000600082015250565b6000611fb960198361181d565b9150611fc482611f83565b602082019050919050565b60006020820190508181036000830152611fe881611fac565b9050919050565b7f5465616d206e616d6520616c7265616479206578697374730000000000000000600082015250565b600061202560188361181d565b915061203082611fef565b602082019050919050565b6000602082019050818103600083015261205481612018565b9050919050565b7f596f75206861766520616c726561647920766f74656421000000000000000000600082015250565b600061209160178361181d565b915061209c8261205b565b602082019050919050565b600060208201905081810360008301526120c081612084565b9050919050565b7f4e6f7420656e6f75676820746f6b656e73210000000000000000000000000000600082015250565b60006120fd60128361181d565b9150612108826120c7565b602082019050919050565b6000602082019050818103600083015261212c816120f0565b9050919050565b7f496e76616c6964207465616d206e616d65210000000000000000000000000000600082015250565b600061216960128361181d565b915061217482612133565b602082019050919050565b600060208201905081810360008301526121988161215c565b9050919050565b7f4e487b7100000000000000000000000000000000000000000000000000000000600052601260045260246000fd5b60006121d9826117de565b91506121e4836117de565b9250826121f4576121f361219f565b5b828204905092915050565b600061220a826117de565b9150612215836117de565b9250828202612223816117de565b9150828204841483151761223a57612239611e14565b5b5092915050565b7f5665727375732068617320616c7265616479206265656e206578656375746564600082015250565b600061227760208361181d565b915061228282612241565b602082019050919050565b600060208201905081810360008301526122a68161226a565b905091905056fea2646970667358221220c64c68759e0f1208ad77aafa25a3651e3c3d1047c0bd91ea3c22e7613f34fff964736f6c63430008120033",
  "immutableReferences": {},
  "source": "// SPDX-License-Identifier: MIT\npragma solidity >=0.8.18<0.9.0; //>=0.8.18 <0.9.0\nimport './SetTeam.sol';\n// Vote.sol\n\ncontract Vote is SetTeam {\n    // vote.sol function versus( )   \n    //        betting result  \n    bytes32 public team1;  \n    bytes32 public team2;\n    //    , default : 'none'\n    bytes32 public teamNameWin = stringToBytes32('none');\n    // versus       modifier ,   bool \n    // versus  : false , versus  : true , returnBettingResultOver()   false...\n    bool public versusExecuted = false;\n    // returnBettingResult() returnBettingResultOver    \n    // react   .( returnBettingResultOver  )\n    event BettingResultOver();\n    // versus  \n    modifier onlyBeforeVersus() {\n        require(!versusExecuted, \"Versus has already been executed\");\n        _;\n    }\n    // versus  \n    modifier onlyAfterVersus() {\n        require(versusExecuted, \"Versus has not been executed yet\");\n        _;\n    }\n    // team1, team2 \n    function versus(string calldata _team1, string calldata _team2) public onlyBeforeVersus {\n        team1 = stringToBytes32(_team1);\n        team2 = stringToBytes32(_team2);\n        require(teamSetted[team1] && teamSetted[team2]);\n\n        versusExecuted = true;\n    }\n    // vote  ( )\n    function vote(string calldata _teamName, uint _amount) public onlyAfterVersus returns (bool) {\n        require(!userData[msg.sender].voted, \"You have already voted!\");\n        require(balanceOf(msg.sender) >= _amount, \"Not enough tokens!\");\n        \n        bytes32 teamName = stringToBytes32(_teamName);\n        require(teamName == team1 || teamName == team2, \"Invalid team name!\");\n\n        userData[msg.sender].balance -= _amount;\n        teamWeight[teamName] += _amount;\n\n        userData[msg.sender].voteBalance += _amount;\n\n        userData[msg.sender].voted = true;\n        userData[msg.sender].teamName = teamName;\n\n        return true;\n    }\n    // game end :  \n    function gameEnd(string calldata _teamNameWin, string calldata _teamNameLose) public onlyAfterVersus onlyOwner {\n        bytes32 win = stringToBytes32(_teamNameWin);\n        bytes32 lose = stringToBytes32(_teamNameLose);\n        require(win == team1 || win == team2);\n        require(lose == team1 || lose == team2);\n        teamNameWin = win;\n        winnerTeamPureBalance = teamWeight[win];\n        teamWeight[win] += teamWeight[lose];\n        bettingTotalBalance = teamWeight[win];\n        teamWeight[lose] = 0;\n    }\n    //  ...\n    //   user   retrunBettingResultOver() \n    function returnBettingResult() public onlyAfterVersus returns(uint) {\n        require(teamNameWin != stringToBytes32('none'));\n\n        if (getUserVotedTeamName(msg.sender) == teamNameWin) {\n            uint amountToReturn = (voteBalanceOf(msg.sender) / winnerTeamPureBalance) * bettingTotalBalance;\n            userData[msg.sender].balance += amountToReturn;\n            teamWeight[teamNameWin] -= amountToReturn;\n\n            if (teamWeight[teamNameWin] == 0) {\n                returnBettingResultOver();\n            }\n            return amountToReturn;\n        }\n        userData[msg.sender].teamName = '';\n        userData[msg.sender].voteBalance = 0;\n        userData[msg.sender].voted = false;\n        return 0;\n    }\n    //     versus()  \n    function returnBettingResultOver() public onlyOwner onlyAfterVersus {\n        require(teamNameWin != stringToBytes32('none'));\n        totalSupply += teamWeight[teamNameWin];\n        teamWeight[teamNameWin] = 0;\n        \n        emit BettingResultOver();\n        teamNameWin = stringToBytes32('none');\n        versusExecuted = false;\n\n    }\n\n    function showVersusExecuted() public view returns(bool) {\n        return versusExecuted;\n    }\n\n    function showMatchUp1() public view returns(bytes32) {\n        return team1;\n    }\n    function showMatchUp2() public view returns(bytes32) {\n        return team2;\n    }\n}",
  "sourcePath": "/home/minkun/vote-main/src/contracts/Vote.sol",
  "compiler": {
    "name": "solc",
    "version": "0.8.18+commit.87f61d96.Emscripten.clang"
  },
  "schemaVersion": "3.4.14",
  "updatedAt": "2023-08-08T06:11:38.988Z",
  "networkType": "ethereum",
  "devdoc": {
    "kind": "dev",
    "methods": {},
    "version": 1
  },
  "userdoc": {
    "kind": "user",
    "methods": {},
    "version": 1
  }
}