{
  "contractName": "Vote",
  "abi": [
    {
      "constant": true,
      "inputs": [],
      "name": "name",
      "outputs": [
        {
          "name": "",
          "type": "string"
        }
      ],
      "payable": false,
      "stateMutability": "view",
      "type": "function"
    },
    {
      "constant": true,
      "inputs": [],
      "name": "totalSupply",
      "outputs": [
        {
          "name": "",
          "type": "uint256"
        }
      ],
      "payable": false,
      "stateMutability": "view",
      "type": "function"
    },
    {
      "constant": true,
      "inputs": [
        {
          "name": "_teamName",
          "type": "string"
        }
      ],
      "name": "getTeamWeightByTeamName",
      "outputs": [
        {
          "name": "",
          "type": "uint256"
        }
      ],
      "payable": false,
      "stateMutability": "view",
      "type": "function"
    },
    {
      "constant": true,
      "inputs": [],
      "name": "decimals",
      "outputs": [
        {
          "name": "",
          "type": "uint8"
        }
      ],
      "payable": false,
      "stateMutability": "view",
      "type": "function"
    },
    {
      "constant": false,
      "inputs": [],
      "name": "logIn",
      "outputs": [],
      "payable": false,
      "stateMutability": "nonpayable",
      "type": "function"
    },
    {
      "constant": true,
      "inputs": [
        {
          "name": "",
          "type": "uint256"
        }
      ],
      "name": "teams",
      "outputs": [
        {
          "name": "teamName",
          "type": "string"
        },
        {
          "name": "top",
          "type": "string"
        },
        {
          "name": "jug",
          "type": "string"
        },
        {
          "name": "mid",
          "type": "string"
        },
        {
          "name": "adc",
          "type": "string"
        },
        {
          "name": "sup",
          "type": "string"
        }
      ],
      "payable": false,
      "stateMutability": "view",
      "type": "function"
    },
    {
      "constant": true,
      "inputs": [
        {
          "name": "",
          "type": "bytes32"
        }
      ],
      "name": "teamIndex",
      "outputs": [
        {
          "name": "",
          "type": "uint256"
        }
      ],
      "payable": false,
      "stateMutability": "view",
      "type": "function"
    },
    {
      "constant": true,
      "inputs": [
        {
          "name": "_address",
          "type": "address"
        }
      ],
      "name": "getUserVotedTeamIndex",
      "outputs": [
        {
          "name": "",
          "type": "uint256"
        }
      ],
      "payable": false,
      "stateMutability": "view",
      "type": "function"
    },
    {
      "constant": true,
      "inputs": [
        {
          "name": "_address",
          "type": "address"
        }
      ],
      "name": "balanceOf",
      "outputs": [
        {
          "name": "",
          "type": "uint256"
        }
      ],
      "payable": false,
      "stateMutability": "view",
      "type": "function"
    },
    {
      "constant": true,
      "inputs": [
        {
          "name": "_teamName",
          "type": "string"
        }
      ],
      "name": "getTeamDataByTeamName",
      "outputs": [
        {
          "name": "",
          "type": "string"
        },
        {
          "name": "",
          "type": "string"
        },
        {
          "name": "",
          "type": "string"
        },
        {
          "name": "",
          "type": "string"
        },
        {
          "name": "",
          "type": "string"
        },
        {
          "name": "",
          "type": "string"
        }
      ],
      "payable": false,
      "stateMutability": "view",
      "type": "function"
    },
    {
      "constant": true,
      "inputs": [
        {
          "name": "_address",
          "type": "address"
        }
      ],
      "name": "voteBalanceOf",
      "outputs": [
        {
          "name": "",
          "type": "uint256"
        }
      ],
      "payable": false,
      "stateMutability": "view",
      "type": "function"
    },
    {
      "constant": true,
      "inputs": [],
      "name": "owner",
      "outputs": [
        {
          "name": "",
          "type": "address"
        }
      ],
      "payable": false,
      "stateMutability": "view",
      "type": "function"
    },
    {
      "constant": true,
      "inputs": [],
      "name": "symbol",
      "outputs": [
        {
          "name": "",
          "type": "string"
        }
      ],
      "payable": false,
      "stateMutability": "view",
      "type": "function"
    },
    {
      "constant": true,
      "inputs": [
        {
          "name": "source",
          "type": "string"
        }
      ],
      "name": "stringToBytes32",
      "outputs": [
        {
          "name": "result",
          "type": "bytes32"
        }
      ],
      "payable": false,
      "stateMutability": "pure",
      "type": "function"
    },
    {
      "constant": true,
      "inputs": [],
      "name": "showOwner",
      "outputs": [
        {
          "name": "",
          "type": "address"
        }
      ],
      "payable": false,
      "stateMutability": "view",
      "type": "function"
    },
    {
      "constant": true,
      "inputs": [
        {
          "name": "",
          "type": "uint256"
        }
      ],
      "name": "teamWeight",
      "outputs": [
        {
          "name": "",
          "type": "uint256"
        }
      ],
      "payable": false,
      "stateMutability": "view",
      "type": "function"
    },
    {
      "constant": false,
      "inputs": [
        {
          "name": "_teamName",
          "type": "string"
        },
        {
          "name": "_top",
          "type": "string"
        },
        {
          "name": "_jug",
          "type": "string"
        },
        {
          "name": "_mid",
          "type": "string"
        },
        {
          "name": "_adc",
          "type": "string"
        },
        {
          "name": "_sup",
          "type": "string"
        }
      ],
      "name": "setTeam",
      "outputs": [],
      "payable": false,
      "stateMutability": "nonpayable",
      "type": "function"
    },
    {
      "constant": true,
      "inputs": [],
      "name": "INVALID_INDEX",
      "outputs": [
        {
          "name": "",
          "type": "uint256"
        }
      ],
      "payable": false,
      "stateMutability": "view",
      "type": "function"
    },
    {
      "constant": false,
      "inputs": [
        {
          "name": "_amount",
          "type": "uint256"
        },
        {
          "name": "_teamName",
          "type": "string"
        }
      ],
      "name": "vote",
      "outputs": [
        {
          "name": "",
          "type": "bool"
        }
      ],
      "payable": false,
      "stateMutability": "nonpayable",
      "type": "function"
    },
    {
      "constant": false,
      "inputs": [
        {
          "name": "_teamNameWin",
          "type": "string"
        },
        {
          "name": "_teamNameLose",
          "type": "string"
        }
      ],
      "name": "gameEnd",
      "outputs": [
        {
          "name": "",
          "type": "uint256"
        }
      ],
      "payable": false,
      "stateMutability": "nonpayable",
      "type": "function"
    },
    {
      "constant": false,
      "inputs": [],
      "name": "returnBettingResult",
      "outputs": [],
      "payable": false,
      "stateMutability": "nonpayable",
      "type": "function"
    },
    {
      "constant": false,
      "inputs": [],
      "name": "returnBettingResultOver",
      "outputs": [],
      "payable": false,
      "stateMutability": "nonpayable",
      "type": "function"
    }
  ],
  "bytecode": "0x608060405269d3c21bcecceda10000006000556012600160006101000a81548160ff021916908360ff1602179055506040805190810160405280600981526020017f6c6f6c20746f6b656e0000000000000000000000000000000000000000000000815250600290805190602001906200007b92919062000140565b506040805190810160405280600281526020017f6c7400000000000000000000000000000000000000000000000000000000000081525060039080519060200190620000c992919062000140565b506064600755600754600b556000600c556000600d5533600460006101000a81548173ffffffffffffffffffffffffffffffffffffffff021916908373ffffffffffffffffffffffffffffffffffffffff160217905550600754600a600080815260200190815260200160002081905550620001ef565b828054600181600116156101000203166002900490600052602060002090601f016020900481019282601f106200018357805160ff1916838001178555620001b4565b82800160010185558215620001b4579182015b82811115620001b357825182559160200191906001019062000196565b5b509050620001c39190620001c7565b5090565b620001ec91905b80821115620001e8576000816000905550600101620001ce565b5090565b90565b612e7280620001ff6000396000f3fe608060405260043610610122576000357c01000000000000000000000000000000000000000000000000000000009004806306fdde03146101275780630b3f277f146101b757806318160ddd146101ce57806324108475146101f95780632d82ee8b146102e3578063313ce5671461037d578063377b47a3146103ae5780633ed2b77a146103c55780634a0e2bc014610695578063548e0ae5146106e457806370a08231146107495780638262bafc146107ae57806384ab8bb814610ac95780638da5cb5b14610b2e57806395d89b4114610b85578063a8285fdb14610c15578063cfb5192814610c2c578063d7e80eee14610d08578063ded9468814610e7b578063dfb826b114610ed2578063ed5225ef14610f21578063fc7d666714611150575b600080fd5b34801561013357600080fd5b5061013c61117b565b6040518080602001828103825283818151815260200191508051906020019080838360005b8381101561017c578082015181840152602081019050610161565b50505050905090810190601f1680156101a95780820380516001836020036101000a031916815260200191505b509250505060405180910390f35b3480156101c357600080fd5b506101cc611219565b005b3480156101da57600080fd5b506101e361133b565b6040518082815260200191505060405180910390f35b34801561020557600080fd5b506102c96004803603604081101561021c57600080fd5b81019080803590602001909291908035906020019064010000000081111561024357600080fd5b82018360208201111561025557600080fd5b8035906020019184600183028401116401000000008311171561027757600080fd5b91908080601f016020809104026020016040519081016040528093929190818152602001838380828437600081840152601f19601f820116905080830192505050505050509192919290505050611341565b604051808215151515815260200191505060405180910390f35b3480156102ef57600080fd5b506103676004803603602081101561030657600080fd5b810190808035906020019064010000000081111561032357600080fd5b82018360208201111561033557600080fd5b8035906020019184600183028401116401000000008311171561035757600080fd5b909192939192939050505061167d565b6040518082815260200191505060405180910390f35b34801561038957600080fd5b506103926116e7565b604051808260ff1660ff16815260200191505060405180910390f35b3480156103ba57600080fd5b506103c36116fa565b005b3480156103d157600080fd5b506103fe600480360360208110156103e857600080fd5b810190808035906020019092919050505061195f565b6040518080602001806020018060200180602001806020018060200187810387528d818151815260200191508051906020019080838360005b83811015610452578082015181840152602081019050610437565b50505050905090810190601f16801561047f5780820380516001836020036101000a031916815260200191505b5087810386528c818151815260200191508051906020019080838360005b838110156104b857808201518184015260208101905061049d565b50505050905090810190601f1680156104e55780820380516001836020036101000a031916815260200191505b5087810385528b818151815260200191508051906020019080838360005b8381101561051e578082015181840152602081019050610503565b50505050905090810190601f16801561054b5780820380516001836020036101000a031916815260200191505b5087810384528a818151815260200191508051906020019080838360005b83811015610584578082015181840152602081019050610569565b50505050905090810190601f1680156105b15780820380516001836020036101000a031916815260200191505b50878103835289818151815260200191508051906020019080838360005b838110156105ea5780820151818401526020810190506105cf565b50505050905090810190601f1680156106175780820380516001836020036101000a031916815260200191505b50878103825288818151815260200191508051906020019080838360005b83811015610650578082015181840152602081019050610635565b50505050905090810190601f16801561067d5780820380516001836020036101000a031916815260200191505b509c5050505050505050505050505060405180910390f35b3480156106a157600080fd5b506106ce600480360360208110156106b857600080fd5b8101908080359060200190929190505050611d3a565b6040518082815260200191505060405180910390f35b3480156106f057600080fd5b506107336004803603602081101561070757600080fd5b81019080803573ffffffffffffffffffffffffffffffffffffffff169060200190929190505050611d52565b6040518082815260200191505060405180910390f35b34801561075557600080fd5b506107986004803603602081101561076c57600080fd5b81019080803573ffffffffffffffffffffffffffffffffffffffff169060200190929190505050611d9e565b6040518082815260200191505060405180910390f35b3480156107ba57600080fd5b50610832600480360360208110156107d157600080fd5b81019080803590602001906401000000008111156107ee57600080fd5b82018360208201111561080057600080fd5b8035906020019184600183028401116401000000008311171561082257600080fd5b9091929391929390505050611dea565b6040518080602001806020018060200180602001806020018060200187810387528d818151815260200191508051906020019080838360005b8381101561088657808201518184015260208101905061086b565b50505050905090810190601f1680156108b35780820380516001836020036101000a031916815260200191505b5087810386528c818151815260200191508051906020019080838360005b838110156108ec5780820151818401526020810190506108d1565b50505050905090810190601f1680156109195780820380516001836020036101000a031916815260200191505b5087810385528b818151815260200191508051906020019080838360005b83811015610952578082015181840152602081019050610937565b50505050905090810190601f16801561097f5780820380516001836020036101000a031916815260200191505b5087810384528a818151815260200191508051906020019080838360005b838110156109b857808201518184015260208101905061099d565b50505050905090810190601f1680156109e55780820380516001836020036101000a031916815260200191505b50878103835289818151815260200191508051906020019080838360005b83811015610a1e578082015181840152602081019050610a03565b50505050905090810190601f168015610a4b5780820380516001836020036101000a031916815260200191505b50878103825288818151815260200191508051906020019080838360005b83811015610a84578082015181840152602081019050610a69565b50505050905090810190601f168015610ab15780820380516001836020036101000a031916815260200191505b509c5050505050505050505050505060405180910390f35b348015610ad557600080fd5b50610b1860048036036020811015610aec57600080fd5b81019080803573ffffffffffffffffffffffffffffffffffffffff169060200190929190505050612305565b6040518082815260200191505060405180910390f35b348015610b3a57600080fd5b50610b43612351565b604051808273ffffffffffffffffffffffffffffffffffffffff1673ffffffffffffffffffffffffffffffffffffffff16815260200191505060405180910390f35b348015610b9157600080fd5b50610b9a612377565b6040518080602001828103825283818151815260200191508051906020019080838360005b83811015610bda578082015181840152602081019050610bbf565b50505050905090810190601f168015610c075780820380516001836020036101000a031916815260200191505b509250505060405180910390f35b348015610c2157600080fd5b50610c2a612415565b005b348015610c3857600080fd5b50610cf260048036036020811015610c4f57600080fd5b8101908080359060200190640100000000811115610c6c57600080fd5b820183602082011115610c7e57600080fd5b80359060200191846001830284011164010000000083111715610ca057600080fd5b91908080601f016020809104026020016040519081016040528093929190818152602001838380828437600081840152601f19601f820116905080830192505050505050509192919290505050612624565b6040518082815260200191505060405180910390f35b348015610d1457600080fd5b50610e6560048036036040811015610d2b57600080fd5b8101908080359060200190640100000000811115610d4857600080fd5b820183602082011115610d5a57600080fd5b80359060200191846001830284011164010000000083111715610d7c57600080fd5b91908080601f016020809104026020016040519081016040528093929190818152602001838380828437600081840152601f19601f82011690508083019250505050505050919291929080359060200190640100000000811115610ddf57600080fd5b820183602082011115610df157600080fd5b80359060200191846001830284011164010000000083111715610e1357600080fd5b91908080601f016020809104026020016040519081016040528093929190818152602001838380828437600081840152601f19601f820116905080830192505050505050509192919290505050612650565b6040518082815260200191505060405180910390f35b348015610e8757600080fd5b50610e9061284f565b604051808273ffffffffffffffffffffffffffffffffffffffff1673ffffffffffffffffffffffffffffffffffffffff16815260200191505060405180910390f35b348015610ede57600080fd5b50610f0b60048036036020811015610ef557600080fd5b8101908080359060200190929190505050612879565b6040518082815260200191505060405180910390f35b348015610f2d57600080fd5b5061114e600480360360c0811015610f4457600080fd5b8101908080359060200190640100000000811115610f6157600080fd5b820183602082011115610f7357600080fd5b80359060200191846001830284011164010000000083111715610f9557600080fd5b909192939192939080359060200190640100000000811115610fb657600080fd5b820183602082011115610fc857600080fd5b80359060200191846001830284011164010000000083111715610fea57600080fd5b90919293919293908035906020019064010000000081111561100b57600080fd5b82018360208201111561101d57600080fd5b8035906020019184600183028401116401000000008311171561103f57600080fd5b90919293919293908035906020019064010000000081111561106057600080fd5b82018360208201111561107257600080fd5b8035906020019184600183028401116401000000008311171561109457600080fd5b9091929391929390803590602001906401000000008111156110b557600080fd5b8201836020820111156110c757600080fd5b803590602001918460018302840111640100000000831117156110e957600080fd5b90919293919293908035906020019064010000000081111561110a57600080fd5b82018360208201111561111c57600080fd5b8035906020019184600183028401116401000000008311171561113e57600080fd5b9091929391929390505050612891565b005b34801561115c57600080fd5b50611165612d3f565b6040518082815260200191505060405180910390f35b60028054600181600116156101000203166002900480601f0160208091040260200160405190810160405280929190818152602001828054600181600116156101000203166002900480156112115780601f106111e657610100808354040283529160200191611211565b820191906000526020600020905b8154815290600101906020018083116111f457829003601f168201915b505050505081565b600460009054906101000a900473ffffffffffffffffffffffffffffffffffffffff1673ffffffffffffffffffffffffffffffffffffffff163373ffffffffffffffffffffffffffffffffffffffff1614151561127557600080fd5b600754600b54141515156112f1576040517f08c379a00000000000000000000000000000000000000000000000000000000081526004018080602001828103825260198152602001807f77696e6e6572207465616d20696e646578206e6f74207365740000000000000081525060200191505060405180910390fd5b60096000600b548152602001908152602001600020546000808282540192505081905550600060096000600b54815260200190815260200160002081905550600754600b81905550565b60005481565b6000600560003373ffffffffffffffffffffffffffffffffffffffff1673ffffffffffffffffffffffffffffffffffffffff16815260200190815260200160002060010160009054906101000a900460ff16151515611408576040517f08c379a00000000000000000000000000000000000000000000000000000000081526004018080602001828103825260178152602001807f596f75206861766520616c726561647920766f7465642100000000000000000081525060200191505060405180910390fd5b8261141233611d9e565b10151515611488576040517f08c379a00000000000000000000000000000000000000000000000000000000081526004018080602001828103825260128152602001807f4e6f7420656e6f75676820746f6b656e7321000000000000000000000000000081525060200191505060405180910390fd5b600061149383612d45565b9050600754811415151561150f576040517f08c379a00000000000000000000000000000000000000000000000000000000081526004018080602001828103825260118152602001807f496e76616c6964207465616d206e616d6500000000000000000000000000000081525060200191505060405180910390fd5b83600560003373ffffffffffffffffffffffffffffffffffffffff1673ffffffffffffffffffffffffffffffffffffffff1681526020019081526020016000206000016000828254039250508190555083600960008381526020019081526020016000206000828254019250508190555083600560003373ffffffffffffffffffffffffffffffffffffffff1673ffffffffffffffffffffffffffffffffffffffff168152602001908152602001600020600301600082825401925050819055506001600560003373ffffffffffffffffffffffffffffffffffffffff1673ffffffffffffffffffffffffffffffffffffffff16815260200190815260200160002060010160006101000a81548160ff02191690831515021790555080600560003373ffffffffffffffffffffffffffffffffffffffff1673ffffffffffffffffffffffffffffffffffffffff16815260200190815260200160002060020181905550600191505092915050565b6000600960006116d085858080601f016020809104026020016040519081016040528093929190818152602001838380828437600081840152601f19601f82011690508083019250505050505050612d45565b815260200190815260200160002054905092915050565b600160009054906101000a900460ff1681565b600660003373ffffffffffffffffffffffffffffffffffffffff1673ffffffffffffffffffffffffffffffffffffffff16815260200190815260200160002060009054906101000a900460ff161515156117bc576040517f08c379a000000000000000000000000000000000000000000000000000000000815260040180806020018281038252601b8152602001807f596f75206861766520616c72656164792072656769737465726564000000000081525060200191505060405180910390fd5b678ac7230489e800006000541015151561183e576040517f08c379a00000000000000000000000000000000000000000000000000000000081526004018080602001828103825260178152602001807f4e6f7420656e6f75676820746f74616c537570706c792100000000000000000081525060200191505060405180910390fd5b6001600660003373ffffffffffffffffffffffffffffffffffffffff1673ffffffffffffffffffffffffffffffffffffffff16815260200190815260200160002060006101000a81548160ff021916908315150217905550608060405190810160405280678ac7230489e80000815260200160001515815260200160075481526020016000815250600560003373ffffffffffffffffffffffffffffffffffffffff1673ffffffffffffffffffffffffffffffffffffffff1681526020019081526020016000206000820151816000015560208201518160010160006101000a81548160ff0219169083151502179055506040820151816002015560608201518160030155905050678ac7230489e800006000808282540392505081905550565b60088181548110151561196e57fe5b9060005260206000209060060201600091509050806000018054600181600116156101000203166002900480601f016020809104026020016040519081016040528092919081815260200182805460018160011615610100020316600290048015611a1a5780601f106119ef57610100808354040283529160200191611a1a565b820191906000526020600020905b8154815290600101906020018083116119fd57829003601f168201915b505050505090806001018054600181600116156101000203166002900480601f016020809104026020016040519081016040528092919081815260200182805460018160011615610100020316600290048015611ab85780601f10611a8d57610100808354040283529160200191611ab8565b820191906000526020600020905b815481529060010190602001808311611a9b57829003601f168201915b505050505090806002018054600181600116156101000203166002900480601f016020809104026020016040519081016040528092919081815260200182805460018160011615610100020316600290048015611b565780601f10611b2b57610100808354040283529160200191611b56565b820191906000526020600020905b815481529060010190602001808311611b3957829003601f168201915b505050505090806003018054600181600116156101000203166002900480601f016020809104026020016040519081016040528092919081815260200182805460018160011615610100020316600290048015611bf45780601f10611bc957610100808354040283529160200191611bf4565b820191906000526020600020905b815481529060010190602001808311611bd757829003601f168201915b505050505090806004018054600181600116156101000203166002900480601f016020809104026020016040519081016040528092919081815260200182805460018160011615610100020316600290048015611c925780601f10611c6757610100808354040283529160200191611c92565b820191906000526020600020905b815481529060010190602001808311611c7557829003601f168201915b505050505090806005018054600181600116156101000203166002900480601f016020809104026020016040519081016040528092919081815260200182805460018160011615610100020316600290048015611d305780601f10611d0557610100808354040283529160200191611d30565b820191906000526020600020905b815481529060010190602001808311611d1357829003601f168201915b5050505050905086565b600a6020528060005260406000206000915090505481565b6000600560008373ffffffffffffffffffffffffffffffffffffffff1673ffffffffffffffffffffffffffffffffffffffff168152602001908152602001600020600201549050919050565b6000600560008373ffffffffffffffffffffffffffffffffffffffff1673ffffffffffffffffffffffffffffffffffffffff168152602001908152602001600020600001549050919050565b6060806060806060806000611e4289898080601f016020809104026020016040519081016040528093929190818152602001838380828437600081840152601f19601f82011690508083019250505050505050612d45565b90506007548114151515611ebe576040517f08c379a00000000000000000000000000000000000000000000000000000000081526004018080602001828103825260118152602001807f496e76616c6964207465616d206e616d6500000000000000000000000000000081525060200191505060405180910390fd5b611ec6612d6a565b600882815481101515611ed557fe5b906000526020600020906006020160c06040519081016040529081600082018054600181600116156101000203166002900480601f016020809104026020016040519081016040528092919081815260200182805460018160011615610100020316600290048015611f885780601f10611f5d57610100808354040283529160200191611f88565b820191906000526020600020905b815481529060010190602001808311611f6b57829003601f168201915b50505050508152602001600182018054600181600116156101000203166002900480601f01602080910402602001604051908101604052809291908181526020018280546001816001161561010002031660029004801561202a5780601f10611fff5761010080835404028352916020019161202a565b820191906000526020600020905b81548152906001019060200180831161200d57829003601f168201915b50505050508152602001600282018054600181600116156101000203166002900480601f0160208091040260200160405190810160405280929190818152602001828054600181600116156101000203166002900480156120cc5780601f106120a1576101008083540402835291602001916120cc565b820191906000526020600020905b8154815290600101906020018083116120af57829003601f168201915b50505050508152602001600382018054600181600116156101000203166002900480601f01602080910402602001604051908101604052809291908181526020018280546001816001161561010002031660029004801561216e5780601f106121435761010080835404028352916020019161216e565b820191906000526020600020905b81548152906001019060200180831161215157829003601f168201915b50505050508152602001600482018054600181600116156101000203166002900480601f0160208091040260200160405190810160405280929190818152602001828054600181600116156101000203166002900480156122105780601f106121e557610100808354040283529160200191612210565b820191906000526020600020905b8154815290600101906020018083116121f357829003601f168201915b50505050508152602001600582018054600181600116156101000203166002900480601f0160208091040260200160405190810160405280929190818152602001828054600181600116156101000203166002900480156122b25780601f10612287576101008083540402835291602001916122b2565b820191906000526020600020905b81548152906001019060200180831161229557829003601f168201915b5050505050815250509050806000015181602001518260400151836060015184608001518560a0015185955084945083935082925081915080905097509750975097509750975050509295509295509295565b6000600560008373ffffffffffffffffffffffffffffffffffffffff1673ffffffffffffffffffffffffffffffffffffffff168152602001908152602001600020600301549050919050565b600460009054906101000a900473ffffffffffffffffffffffffffffffffffffffff1681565b60038054600181600116156101000203166002900480601f01602080910402602001604051908101604052809291908181526020018280546001816001161561010002031660029004801561240d5780601f106123e25761010080835404028352916020019161240d565b820191906000526020600020905b8154815290600101906020018083116123f057829003601f168201915b505050505081565b600754600b5414151515612491576040517f08c379a00000000000000000000000000000000000000000000000000000000081526004018080602001828103825260198152602001807f77696e6e6572207465616d20696e646578206e6f74207365740000000000000081525060200191505060405180910390fd5b600b5461249d33611d52565b1415612536576000600c54600d546124b433612305565b8115156124bd57fe5b0402905080600560003373ffffffffffffffffffffffffffffffffffffffff1673ffffffffffffffffffffffffffffffffffffffff168152602001908152602001600020600001600082825401925050819055508060096000600b54815260200190815260200160002060008282540392505081905550505b600754600560003373ffffffffffffffffffffffffffffffffffffffff1673ffffffffffffffffffffffffffffffffffffffff168152602001908152602001600020600201819055506000600560003373ffffffffffffffffffffffffffffffffffffffff1673ffffffffffffffffffffffffffffffffffffffff168152602001908152602001600020600301819055506000600560003373ffffffffffffffffffffffffffffffffffffffff1673ffffffffffffffffffffffffffffffffffffffff16815260200190815260200160002060010160006101000a81548160ff021916908315150217905550565b6000606082905060008151141561264257600060010291505061264b565b60208301519150505b919050565b6000600460009054906101000a900473ffffffffffffffffffffffffffffffffffffffff1673ffffffffffffffffffffffffffffffffffffffff163373ffffffffffffffffffffffffffffffffffffffff161415156126ae57600080fd5b60006126b984612d45565b905060006126c684612d45565b90506007548214151515612742576040517f08c379a00000000000000000000000000000000000000000000000000000000081526004018080602001828103825260188152602001807f496e76616c69642077696e6e6572207465616d206e616d65000000000000000081525060200191505060405180910390fd5b60075481141515156127bc576040517f08c379a00000000000000000000000000000000000000000000000000000000081526004018080602001828103825260178152602001807f496e76616c6964206c6f736572207465616d206e616d6500000000000000000081525060200191505060405180910390fd5b81600b819055506009600083815260200190815260200160002054600d81905550600960008281526020019081526020016000205460096000848152602001908152602001600020600082825401925050819055506009600083815260200190815260200160002054600c8190555060006009600083815260200190815260200160002081905550819250505092915050565b6000600460009054906101000a900473ffffffffffffffffffffffffffffffffffffffff16905090565b60096020528060005260406000206000915090505481565b600460009054906101000a900473ffffffffffffffffffffffffffffffffffffffff1673ffffffffffffffffffffffffffffffffffffffff163373ffffffffffffffffffffffffffffffffffffffff161415156128ed57600080fd5b60008c8c9050111515612968576040517f08c379a00000000000000000000000000000000000000000000000000000000081526004018080602001828103825260198152602001807f5465616d206e616d652063616e6e6f7420626520656d7074790000000000000081525060200191505060405180910390fd5b60006129b78d8d8080601f016020809104026020016040519081016040528093929190818152602001838380828437600081840152601f19601f82011690508083019250505050505050612624565b90506000600a600083815260200190815260200160002054141515612a44576040517f08c379a00000000000000000000000000000000000000000000000000000000081526004018080602001828103825260188152602001807f5465616d206e616d6520616c726561647920657869737473000000000000000081525060200191505060405180910390fd5b612a4c612d6a565b60c0604051908101604052808f8f8080601f016020809104026020016040519081016040528093929190818152602001838380828437600081840152601f19601f8201169050808301925050505050505081526020018d8d8080601f016020809104026020016040519081016040528093929190818152602001838380828437600081840152601f19601f8201169050808301925050505050505081526020018b8b8080601f016020809104026020016040519081016040528093929190818152602001838380828437600081840152601f19601f82011690508083019250505050505050815260200189898080601f016020809104026020016040519081016040528093929190818152602001838380828437600081840152601f19601f82011690508083019250505050505050815260200187878080601f016020809104026020016040519081016040528093929190818152602001838380828437600081840152601f19601f82011690508083019250505050505050815260200185858080601f016020809104026020016040519081016040528093929190818152602001838380828437600081840152601f19601f82011690508083019250505050505050815250905060006008805490509050600882908060018154018082558091505090600182039060005260206000209060060201600090919290919091506000820151816000019080519060200190612c68929190612da1565b506020820151816001019080519060200190612c85929190612da1565b506040820151816002019080519060200190612ca2929190612da1565b506060820151816003019080519060200190612cbf929190612da1565b506080820151816004019080519060200190612cdc929190612da1565b5060a0820151816005019080519060200190612cf9929190612da1565b5050505080600a60008581526020019081526020016000208190555060006009600083815260200190815260200160002081905550505050505050505050505050505050565b60075481565b6000600a6000612d5484612624565b8152602001908152602001600020549050919050565b60c0604051908101604052806060815260200160608152602001606081526020016060815260200160608152602001606081525090565b828054600181600116156101000203166002900490600052602060002090601f016020900481019282601f10612de257805160ff1916838001178555612e10565b82800160010185558215612e10579182015b82811115612e0f578251825591602001919060010190612df4565b5b509050612e1d9190612e21565b5090565b612e4391905b80821115612e3f576000816000905550600101612e27565b5090565b9056fea165627a7a72305820124d329e0984e551ce5c74be84014bb9e80139c03a1d8fd3cd4591e28a76da7d0029",
  "source": "// SPDX-License-Identifier: MIT\npragma solidity >=0.4.22 <0.9.0; //>=0.8.18 <0.9.0\nimport './SetTeam.sol';\n// Vote.sol\n\ncontract Vote is SetTeam {\n    // user  \n    function vote(uint256 _amount, string memory _teamName) public returns(bool) {\n        //       \n        require(!userData[msg.sender].voted, \"You have already voted!\");\n        //       \n        require(balanceOf(msg.sender) >= _amount, \"Not enough tokens!\");\n\n        //    index \n        uint index = getTeamIndexByTeamName(_teamName);\n        require(index != INVALID_INDEX, \"Invalid team name\");\n\n        //   ->     \n        userData[msg.sender].balance -= _amount;\n        teamWeight[index] += _amount;\n        //  gameEnd()  ,           \n        userData[msg.sender].voteBalance += _amount; \n\n        //        \n        userData[msg.sender].voted = true;\n        //    \n        userData[msg.sender].teamIndex = index;\n        \n        return true;\n    }\n\n    //    \n    // SetTeam.sol  winnerTeamIndex .\n    function gameEnd(string memory _teamNameWin, string memory _teamNameLose) public onlyOwner returns(uint) {\n        //  ,   index \n        uint _winnerTeamIndex = getTeamIndexByTeamName(_teamNameWin);\n        uint _loserTeamIndex = getTeamIndexByTeamName(_teamNameLose);\n        require(_winnerTeamIndex != INVALID_INDEX, \"Invalid winner team name\");\n        require(_loserTeamIndex != INVALID_INDEX, \"Invalid loser team name\");\n\n        winnerTeamIndex = _winnerTeamIndex;\n        //  winner team   ( )\n        winnerTeamPureBalance = teamWeight[_winnerTeamIndex];      \n        //        \n        teamWeight[_winnerTeamIndex] += teamWeight[_loserTeamIndex];\n\n        //    : bettingTotalBalance(   )\n        bettingTotalBalance = teamWeight[_winnerTeamIndex];\n        teamWeight[_loserTeamIndex] = 0;\n\n        return _winnerTeamIndex;\n    }\n\n\n    //     :         \n    //     :  ,   \n    function returnBettingResult() public {\n        require(winnerTeamIndex != INVALID_INDEX, \"winner team index not set\");\n\n        if (getUserVotedTeamIndex(msg.sender) == winnerTeamIndex) {\n            //    \n            uint amountToReturn = (voteBalanceOf(msg.sender) / winnerTeamPureBalance) * bettingTotalBalance;\n            // teamWeight[winner]  user \n            userData[msg.sender].balance += amountToReturn;\n            teamWeight[winnerTeamIndex] -= amountToReturn;\n        }\n        // user betting  data \n        userData[msg.sender].teamIndex = INVALID_INDEX;\n        userData[msg.sender].voteBalance = 0;\n        userData[msg.sender].voted = false;\n    }\n\n    //     (ex.  )\n    //   totalSupply \n    // winner team weight = 0\n    function returnBettingResultOver() public onlyOwner {\n        require(winnerTeamIndex != INVALID_INDEX, \"winner team index not set\");\n        totalSupply += teamWeight[winnerTeamIndex];\n        teamWeight[winnerTeamIndex] = 0;\n        winnerTeamIndex = INVALID_INDEX;\n    }\n}",
  "sourcePath": "/home/minkun/vote-main/src/contracts/Vote.sol",
  "compiler": {
    "name": "solc",
    "version": "0.5.1+commit.c8a2cb62.Emscripten.clang"
  },
  "schemaVersion": "3.4.14",
  "updatedAt": "2023-08-02T06:46:31.205Z",
  "networkType": "ethereum",
  "devdoc": {
    "methods": {}
  },
  "userdoc": {
    "methods": {}
  }
}